{
	"exercices/ex03 - Fonctions/sources/Function.sol": {
		"Function": {
			"abi": [
				{
					"inputs": [],
					"name": "WhatIsTheAnswerToLife",
					"outputs": [
						{
							"internalType": "uint256",
							"name": "answerToLife_",
							"type": "uint256"
						}
					],
					"stateMutability": "pure",
					"type": "function"
				}
			],
			"devdoc": {
				"kind": "dev",
				"methods": {},
				"version": 1
			},
			"evm": {
				"assembly": "    /* \"exercices/ex03 - Fonctions/sources/Function.sol\":62:197  contract Function {... */\n  mstore(0x40, 0x80)\n  callvalue\n  dup1\n  iszero\n  tag_1\n  jumpi\n  0x00\n  dup1\n  revert\ntag_1:\n  pop\n  dataSize(sub_0)\n  dup1\n  dataOffset(sub_0)\n  0x00\n  codecopy\n  0x00\n  return\nstop\n\nsub_0: assembly {\n        /* \"exercices/ex03 - Fonctions/sources/Function.sol\":62:197  contract Function {... */\n      mstore(0x40, 0x80)\n      callvalue\n      dup1\n      iszero\n      tag_1\n      jumpi\n      0x00\n      dup1\n      revert\n    tag_1:\n      pop\n      jumpi(tag_2, lt(calldatasize, 0x04))\n      shr(0xe0, calldataload(0x00))\n      dup1\n      0x5252bced\n      eq\n      tag_3\n      jumpi\n    tag_2:\n      0x00\n      dup1\n      revert\n        /* \"exercices/ex03 - Fonctions/sources/Function.sol\":86:195  function WhatIsTheAnswerToLife() public pure returns (uint answerToLife_) {... */\n    tag_3:\n      tag_4\n      tag_5\n      jump\t// in\n    tag_4:\n      mload(0x40)\n      tag_6\n      swap2\n      swap1\n      tag_7\n      jump\t// in\n    tag_6:\n      mload(0x40)\n      dup1\n      swap2\n      sub\n      swap1\n      return\n    tag_5:\n        /* \"exercices/ex03 - Fonctions/sources/Function.sol\":140:158  uint answerToLife_ */\n      0x00\n        /* \"exercices/ex03 - Fonctions/sources/Function.sol\":186:188  42 */\n      0x2a\n        /* \"exercices/ex03 - Fonctions/sources/Function.sol\":170:188  answerToLife_ = 42 */\n      swap1\n      pop\n        /* \"exercices/ex03 - Fonctions/sources/Function.sol\":86:195  function WhatIsTheAnswerToLife() public pure returns (uint answerToLife_) {... */\n      swap1\n      jump\t// out\n        /* \"#utility.yul\":7:125   */\n    tag_10:\n        /* \"#utility.yul\":94:118   */\n      tag_12\n        /* \"#utility.yul\":112:117   */\n      dup2\n        /* \"#utility.yul\":94:118   */\n      tag_13\n      jump\t// in\n    tag_12:\n        /* \"#utility.yul\":89:92   */\n      dup3\n        /* \"#utility.yul\":82:119   */\n      mstore\n        /* \"#utility.yul\":72:125   */\n      pop\n      pop\n      jump\t// out\n        /* \"#utility.yul\":131:353   */\n    tag_7:\n        /* \"#utility.yul\":224:228   */\n      0x00\n        /* \"#utility.yul\":262:264   */\n      0x20\n        /* \"#utility.yul\":251:260   */\n      dup3\n        /* \"#utility.yul\":247:265   */\n      add\n        /* \"#utility.yul\":239:265   */\n      swap1\n      pop\n        /* \"#utility.yul\":275:346   */\n      tag_15\n        /* \"#utility.yul\":343:344   */\n      0x00\n        /* \"#utility.yul\":332:341   */\n      dup4\n        /* \"#utility.yul\":328:345   */\n      add\n        /* \"#utility.yul\":319:325   */\n      dup5\n        /* \"#utility.yul\":275:346   */\n      tag_10\n      jump\t// in\n    tag_15:\n        /* \"#utility.yul\":229:353   */\n      swap3\n      swap2\n      pop\n      pop\n      jump\t// out\n        /* \"#utility.yul\":359:436   */\n    tag_13:\n        /* \"#utility.yul\":396:403   */\n      0x00\n        /* \"#utility.yul\":425:430   */\n      dup2\n        /* \"#utility.yul\":414:430   */\n      swap1\n      pop\n        /* \"#utility.yul\":404:436   */\n      swap2\n      swap1\n      pop\n      jump\t// out\n\n    auxdata: 0xa26469706673582212208d7d3dd2c5cf893cd3034e49c2253dee729f36d09c60d5041c08b442d342058764736f6c63430008040033\n}\n",
				"bytecode": {
					"linkReferences": {},
					"object": "608060405234801561001057600080fd5b5060b68061001f6000396000f3fe6080604052348015600f57600080fd5b506004361060285760003560e01c80635252bced14602d575b600080fd5b60336047565b604051603e9190605d565b60405180910390f35b6000602a905090565b6057816076565b82525050565b6000602082019050607060008301846050565b92915050565b600081905091905056fea26469706673582212208d7d3dd2c5cf893cd3034e49c2253dee729f36d09c60d5041c08b442d342058764736f6c63430008040033",
					"opcodes": "PUSH1 0x80 PUSH1 0x40 MSTORE CALLVALUE DUP1 ISZERO PUSH2 0x10 JUMPI PUSH1 0x0 DUP1 REVERT JUMPDEST POP PUSH1 0xB6 DUP1 PUSH2 0x1F PUSH1 0x0 CODECOPY PUSH1 0x0 RETURN INVALID PUSH1 0x80 PUSH1 0x40 MSTORE CALLVALUE DUP1 ISZERO PUSH1 0xF JUMPI PUSH1 0x0 DUP1 REVERT JUMPDEST POP PUSH1 0x4 CALLDATASIZE LT PUSH1 0x28 JUMPI PUSH1 0x0 CALLDATALOAD PUSH1 0xE0 SHR DUP1 PUSH4 0x5252BCED EQ PUSH1 0x2D JUMPI JUMPDEST PUSH1 0x0 DUP1 REVERT JUMPDEST PUSH1 0x33 PUSH1 0x47 JUMP JUMPDEST PUSH1 0x40 MLOAD PUSH1 0x3E SWAP2 SWAP1 PUSH1 0x5D JUMP JUMPDEST PUSH1 0x40 MLOAD DUP1 SWAP2 SUB SWAP1 RETURN JUMPDEST PUSH1 0x0 PUSH1 0x2A SWAP1 POP SWAP1 JUMP JUMPDEST PUSH1 0x57 DUP2 PUSH1 0x76 JUMP JUMPDEST DUP3 MSTORE POP POP JUMP JUMPDEST PUSH1 0x0 PUSH1 0x20 DUP3 ADD SWAP1 POP PUSH1 0x70 PUSH1 0x0 DUP4 ADD DUP5 PUSH1 0x50 JUMP JUMPDEST SWAP3 SWAP2 POP POP JUMP JUMPDEST PUSH1 0x0 DUP2 SWAP1 POP SWAP2 SWAP1 POP JUMP INVALID LOG2 PUSH5 0x6970667358 0x22 SLT KECCAK256 DUP14 PUSH30 0x3DD2C5CF893CD3034E49C2253DEE729F36D09C60D5041C08B442D3420587 PUSH5 0x736F6C6343 STOP ADDMOD DIV STOP CALLER "
				},
				"gasEstimates": {
					"creation": {
						"codeDepositCost": "36400",
						"executionCost": "87",
						"totalCost": "36487"
					},
					"external": {
						"WhatIsTheAnswerToLife()": "315"
					}
				},
				"methodIdentifiers": {
					"WhatIsTheAnswerToLife()": "5252bced"
				}
			},
			"storageLayout": {
				"storage": [],
				"types": null
			},
			"userdoc": {
				"kind": "user",
				"methods": {},
				"version": 1
			}
		}
	}
}