{
	"exercices/ex07 - Boucles/sources/Array.sol": {
		"Array": {
			"abi": [
				{
					"inputs": [
						{
							"internalType": "uint8",
							"name": "index",
							"type": "uint8"
						}
					],
					"name": "get",
					"outputs": [
						{
							"internalType": "int256",
							"name": "",
							"type": "int256"
						}
					],
					"stateMutability": "view",
					"type": "function"
				},
				{
					"inputs": [],
					"name": "incrementArrayFor",
					"outputs": [],
					"stateMutability": "nonpayable",
					"type": "function"
				},
				{
					"inputs": [],
					"name": "incrementArrayWhile",
					"outputs": [],
					"stateMutability": "nonpayable",
					"type": "function"
				},
				{
					"inputs": [
						{
							"internalType": "uint8",
							"name": "index",
							"type": "uint8"
						},
						{
							"internalType": "int256",
							"name": "value",
							"type": "int256"
						}
					],
					"name": "set",
					"outputs": [],
					"stateMutability": "nonpayable",
					"type": "function"
				}
			],
			"devdoc": {
				"kind": "dev",
				"methods": {},
				"version": 1
			},
			"evm": {
				"assembly": "    /* \"exercices/ex07 - Boucles/sources/Array.sol\":62:620  contract Array {... */\n  mstore(0x40, 0x80)\n    /* \"exercices/ex07 - Boucles/sources/Array.sol\":84:138  int256[10] myArray = [int256(42), -86, 69, 30, -85563] */\n  mload(0x40)\n  dup1\n  0xa0\n  add\n  0x40\n  mstore\n  dup1\n    /* \"exercices/ex07 - Boucles/sources/Array.sol\":113:115  42 */\n  0x2a\n    /* \"exercices/ex07 - Boucles/sources/Array.sol\":84:138  int256[10] myArray = [int256(42), -86, 69, 30, -85563] */\n  dup2\n  mstore\n  0x20\n  add\n    /* \"exercices/ex07 - Boucles/sources/Array.sol\":118:121  -86 */\n  0xffffffffffffffffffffffffffffffffffffffffffffffffffffffffffffffaa\n    /* \"exercices/ex07 - Boucles/sources/Array.sol\":84:138  int256[10] myArray = [int256(42), -86, 69, 30, -85563] */\n  dup2\n  mstore\n  0x20\n  add\n    /* \"exercices/ex07 - Boucles/sources/Array.sol\":123:125  69 */\n  0x45\n    /* \"exercices/ex07 - Boucles/sources/Array.sol\":84:138  int256[10] myArray = [int256(42), -86, 69, 30, -85563] */\n  dup2\n  mstore\n  0x20\n  add\n    /* \"exercices/ex07 - Boucles/sources/Array.sol\":127:129  30 */\n  0x1e\n    /* \"exercices/ex07 - Boucles/sources/Array.sol\":84:138  int256[10] myArray = [int256(42), -86, 69, 30, -85563] */\n  dup2\n  mstore\n  0x20\n  add\n    /* \"exercices/ex07 - Boucles/sources/Array.sol\":131:137  -85563 */\n  0xfffffffffffffffffffffffffffffffffffffffffffffffffffffffffffeb1c5\n    /* \"exercices/ex07 - Boucles/sources/Array.sol\":84:138  int256[10] myArray = [int256(42), -86, 69, 30, -85563] */\n  dup2\n  mstore\n  pop\n  0x00\n  swap1\n  0x05\n  tag_1\n  swap3\n  swap2\n  swap1\n  tag_2\n  jump\t// in\ntag_1:\n  pop\n    /* \"exercices/ex07 - Boucles/sources/Array.sol\":62:620  contract Array {... */\n  callvalue\n  dup1\n  iszero\n  tag_3\n  jumpi\n  0x00\n  dup1\n  revert\ntag_3:\n  pop\n  jump(tag_4)\ntag_2:\n  dup3\n  0x0a\n  dup2\n  add\n  swap3\n  dup3\n  iszero\n  tag_5\n  jumpi\n  swap2\n  0x20\n  mul\n  dup3\n  add\ntag_6:\n  dup3\n  dup2\n  gt\n  iszero\n  tag_7\n  jumpi\n  dup3\n  mload\n  dup3\n  sstore\n  swap2\n  0x20\n  add\n  swap2\n  swap1\n  0x01\n  add\n  swap1\n  jump(tag_6)\ntag_7:\ntag_5:\n  pop\n  swap1\n  pop\n  tag_8\n  swap2\n  swap1\n  tag_9\n  jump\t// in\ntag_8:\n  pop\n  swap1\n  jump\t// out\ntag_9:\ntag_10:\n  dup1\n  dup3\n  gt\n  iszero\n  tag_11\n  jumpi\n  0x00\n  dup2\n  0x00\n  swap1\n  sstore\n  pop\n  0x01\n  add\n  jump(tag_10)\ntag_11:\n  pop\n  swap1\n  jump\t// out\ntag_4:\n  dataSize(sub_0)\n  dup1\n  dataOffset(sub_0)\n  0x00\n  codecopy\n  0x00\n  return\nstop\n\nsub_0: assembly {\n        /* \"exercices/ex07 - Boucles/sources/Array.sol\":62:620  contract Array {... */\n      mstore(0x40, 0x80)\n      callvalue\n      dup1\n      iszero\n      tag_1\n      jumpi\n      0x00\n      dup1\n      revert\n    tag_1:\n      pop\n      jumpi(tag_2, lt(calldatasize, 0x04))\n      shr(0xe0, calldataload(0x00))\n      dup1\n      0x05608df5\n      eq\n      tag_3\n      jumpi\n      dup1\n      0x22bc1d8b\n      eq\n      tag_4\n      jumpi\n      dup1\n      0x4ac56d57\n      eq\n      tag_5\n      jumpi\n      dup1\n      0xf72d0b3b\n      eq\n      tag_6\n      jumpi\n    tag_2:\n      0x00\n      dup1\n      revert\n        /* \"exercices/ex07 - Boucles/sources/Array.sol\":462:617  function incrementArrayWhile() public {... */\n    tag_3:\n      tag_7\n      tag_8\n      jump\t// in\n    tag_7:\n      stop\n        /* \"exercices/ex07 - Boucles/sources/Array.sol\":336:456  function incrementArrayFor() public {... */\n    tag_4:\n      tag_9\n      tag_10\n      jump\t// in\n    tag_9:\n      stop\n        /* \"exercices/ex07 - Boucles/sources/Array.sol\":244:330  function set(uint8 index, int256 value) public {... */\n    tag_5:\n      tag_11\n      0x04\n      dup1\n      calldatasize\n      sub\n      dup2\n      add\n      swap1\n      tag_12\n      swap2\n      swap1\n      tag_13\n      jump\t// in\n    tag_12:\n      tag_14\n      jump\t// in\n    tag_11:\n      stop\n        /* \"exercices/ex07 - Boucles/sources/Array.sol\":145:238  function get(uint8 index) public view returns (int256) {... */\n    tag_6:\n      tag_15\n      0x04\n      dup1\n      calldatasize\n      sub\n      dup2\n      add\n      swap1\n      tag_16\n      swap2\n      swap1\n      tag_17\n      jump\t// in\n    tag_16:\n      tag_18\n      jump\t// in\n    tag_15:\n      mload(0x40)\n      tag_19\n      swap2\n      swap1\n      tag_20\n      jump\t// in\n    tag_19:\n      mload(0x40)\n      dup1\n      swap2\n      sub\n      swap1\n      return\n        /* \"exercices/ex07 - Boucles/sources/Array.sol\":462:617  function incrementArrayWhile() public {... */\n    tag_8:\n        /* \"exercices/ex07 - Boucles/sources/Array.sol\":510:516  uint i */\n      0x00\n        /* \"exercices/ex07 - Boucles/sources/Array.sol\":530:611  while (i < myArray.length) {... */\n    tag_22:\n        /* \"exercices/ex07 - Boucles/sources/Array.sol\":541:555  myArray.length */\n      0x0a\n        /* \"exercices/ex07 - Boucles/sources/Array.sol\":537:538  i */\n      dup2\n        /* \"exercices/ex07 - Boucles/sources/Array.sol\":537:555  i < myArray.length */\n      lt\n        /* \"exercices/ex07 - Boucles/sources/Array.sol\":530:611  while (i < myArray.length) {... */\n      iszero\n      tag_23\n      jumpi\n        /* \"exercices/ex07 - Boucles/sources/Array.sol\":573:580  myArray */\n      0x00\n        /* \"exercices/ex07 - Boucles/sources/Array.sol\":581:582  i */\n      dup2\n        /* \"exercices/ex07 - Boucles/sources/Array.sol\":573:583  myArray[i] */\n      0x0a\n      dup2\n      lt\n      tag_24\n      jumpi\n      mstore(0x00, 0x4e487b7100000000000000000000000000000000000000000000000000000000)\n      mstore(0x04, 0x32)\n      revert(0x00, 0x24)\n    tag_24:\n      add\n      0x00\n        /* \"exercices/ex07 - Boucles/sources/Array.sol\":571:583  ++myArray[i] */\n      dup2\n      sload\n      tag_26\n      swap1\n      tag_27\n      jump\t// in\n    tag_26:\n      swap2\n      swap1\n      pop\n      dup2\n      swap1\n      sstore\n      pop\n        /* \"exercices/ex07 - Boucles/sources/Array.sol\":597:600  ++i */\n      dup1\n      tag_28\n      swap1\n      tag_29\n      jump\t// in\n    tag_28:\n      swap1\n      pop\n        /* \"exercices/ex07 - Boucles/sources/Array.sol\":530:611  while (i < myArray.length) {... */\n      jump(tag_22)\n    tag_23:\n        /* \"exercices/ex07 - Boucles/sources/Array.sol\":462:617  function incrementArrayWhile() public {... */\n      pop\n      jump\t// out\n        /* \"exercices/ex07 - Boucles/sources/Array.sol\":336:456  function incrementArrayFor() public {... */\n    tag_10:\n        /* \"exercices/ex07 - Boucles/sources/Array.sol\":386:392  uint i */\n      0x00\n        /* \"exercices/ex07 - Boucles/sources/Array.sol\":382:449  for(uint i = 0 ; i < myArray.length ; ++i)... */\n    tag_31:\n        /* \"exercices/ex07 - Boucles/sources/Array.sol\":403:417  myArray.length */\n      0x0a\n        /* \"exercices/ex07 - Boucles/sources/Array.sol\":399:400  i */\n      dup2\n        /* \"exercices/ex07 - Boucles/sources/Array.sol\":399:417  i < myArray.length */\n      lt\n        /* \"exercices/ex07 - Boucles/sources/Array.sol\":382:449  for(uint i = 0 ; i < myArray.length ; ++i)... */\n      iszero\n      tag_32\n      jumpi\n        /* \"exercices/ex07 - Boucles/sources/Array.sol\":439:446  myArray */\n      0x00\n        /* \"exercices/ex07 - Boucles/sources/Array.sol\":447:448  i */\n      dup2\n        /* \"exercices/ex07 - Boucles/sources/Array.sol\":439:449  myArray[i] */\n      0x0a\n      dup2\n      lt\n      tag_34\n      jumpi\n      mstore(0x00, 0x4e487b7100000000000000000000000000000000000000000000000000000000)\n      mstore(0x04, 0x32)\n      revert(0x00, 0x24)\n    tag_34:\n      add\n      0x00\n        /* \"exercices/ex07 - Boucles/sources/Array.sol\":437:449  ++myArray[i] */\n      dup2\n      sload\n      tag_36\n      swap1\n      tag_27\n      jump\t// in\n    tag_36:\n      swap2\n      swap1\n      pop\n      dup2\n      swap1\n      sstore\n      pop\n        /* \"exercices/ex07 - Boucles/sources/Array.sol\":420:423  ++i */\n      dup1\n      tag_37\n      swap1\n      tag_29\n      jump\t// in\n    tag_37:\n      swap1\n      pop\n        /* \"exercices/ex07 - Boucles/sources/Array.sol\":382:449  for(uint i = 0 ; i < myArray.length ; ++i)... */\n      jump(tag_31)\n    tag_32:\n      pop\n        /* \"exercices/ex07 - Boucles/sources/Array.sol\":336:456  function incrementArrayFor() public {... */\n      jump\t// out\n        /* \"exercices/ex07 - Boucles/sources/Array.sol\":244:330  function set(uint8 index, int256 value) public {... */\n    tag_14:\n        /* \"exercices/ex07 - Boucles/sources/Array.sol\":318:323  value */\n      dup1\n        /* \"exercices/ex07 - Boucles/sources/Array.sol\":301:308  myArray */\n      0x00\n        /* \"exercices/ex07 - Boucles/sources/Array.sol\":309:314  index */\n      dup4\n        /* \"exercices/ex07 - Boucles/sources/Array.sol\":301:315  myArray[index] */\n      0xff\n      and\n      0x0a\n      dup2\n      lt\n      tag_39\n      jumpi\n      mstore(0x00, 0x4e487b7100000000000000000000000000000000000000000000000000000000)\n      mstore(0x04, 0x32)\n      revert(0x00, 0x24)\n    tag_39:\n      add\n        /* \"exercices/ex07 - Boucles/sources/Array.sol\":301:323  myArray[index] = value */\n      dup2\n      swap1\n      sstore\n      pop\n        /* \"exercices/ex07 - Boucles/sources/Array.sol\":244:330  function set(uint8 index, int256 value) public {... */\n      pop\n      pop\n      jump\t// out\n        /* \"exercices/ex07 - Boucles/sources/Array.sol\":145:238  function get(uint8 index) public view returns (int256) {... */\n    tag_18:\n        /* \"exercices/ex07 - Boucles/sources/Array.sol\":192:198  int256 */\n      0x00\n        /* \"exercices/ex07 - Boucles/sources/Array.sol\":217:224  myArray */\n      dup1\n        /* \"exercices/ex07 - Boucles/sources/Array.sol\":225:230  index */\n      dup3\n        /* \"exercices/ex07 - Boucles/sources/Array.sol\":217:231  myArray[index] */\n      0xff\n      and\n      0x0a\n      dup2\n      lt\n      tag_42\n      jumpi\n      mstore(0x00, 0x4e487b7100000000000000000000000000000000000000000000000000000000)\n      mstore(0x04, 0x32)\n      revert(0x00, 0x24)\n    tag_42:\n      add\n      sload\n        /* \"exercices/ex07 - Boucles/sources/Array.sol\":210:231  return myArray[index] */\n      swap1\n      pop\n        /* \"exercices/ex07 - Boucles/sources/Array.sol\":145:238  function get(uint8 index) public view returns (int256) {... */\n      swap2\n      swap1\n      pop\n      jump\t// out\n        /* \"#utility.yul\":7:144   */\n    tag_45:\n        /* \"#utility.yul\":52:57   */\n      0x00\n        /* \"#utility.yul\":90:96   */\n      dup2\n        /* \"#utility.yul\":77:97   */\n      calldataload\n        /* \"#utility.yul\":68:97   */\n      swap1\n      pop\n        /* \"#utility.yul\":106:138   */\n      tag_47\n        /* \"#utility.yul\":132:137   */\n      dup2\n        /* \"#utility.yul\":106:138   */\n      tag_48\n      jump\t// in\n    tag_47:\n        /* \"#utility.yul\":58:144   */\n      swap3\n      swap2\n      pop\n      pop\n      jump\t// out\n        /* \"#utility.yul\":150:285   */\n    tag_49:\n        /* \"#utility.yul\":194:199   */\n      0x00\n        /* \"#utility.yul\":232:238   */\n      dup2\n        /* \"#utility.yul\":219:239   */\n      calldataload\n        /* \"#utility.yul\":210:239   */\n      swap1\n      pop\n        /* \"#utility.yul\":248:279   */\n      tag_51\n        /* \"#utility.yul\":273:278   */\n      dup2\n        /* \"#utility.yul\":248:279   */\n      tag_52\n      jump\t// in\n    tag_51:\n        /* \"#utility.yul\":200:285   */\n      swap3\n      swap2\n      pop\n      pop\n      jump\t// out\n        /* \"#utility.yul\":291:549   */\n    tag_17:\n        /* \"#utility.yul\":348:354   */\n      0x00\n        /* \"#utility.yul\":397:399   */\n      0x20\n        /* \"#utility.yul\":385:394   */\n      dup3\n        /* \"#utility.yul\":376:383   */\n      dup5\n        /* \"#utility.yul\":372:395   */\n      sub\n        /* \"#utility.yul\":368:400   */\n      slt\n        /* \"#utility.yul\":365:367   */\n      iszero\n      tag_54\n      jumpi\n        /* \"#utility.yul\":413:414   */\n      0x00\n        /* \"#utility.yul\":410:411   */\n      dup1\n        /* \"#utility.yul\":403:415   */\n      revert\n        /* \"#utility.yul\":365:367   */\n    tag_54:\n        /* \"#utility.yul\":456:457   */\n      0x00\n        /* \"#utility.yul\":481:532   */\n      tag_55\n        /* \"#utility.yul\":524:531   */\n      dup5\n        /* \"#utility.yul\":515:521   */\n      dup3\n        /* \"#utility.yul\":504:513   */\n      dup6\n        /* \"#utility.yul\":500:522   */\n      add\n        /* \"#utility.yul\":481:532   */\n      tag_49\n      jump\t// in\n    tag_55:\n        /* \"#utility.yul\":471:532   */\n      swap2\n      pop\n        /* \"#utility.yul\":427:542   */\n      pop\n        /* \"#utility.yul\":355:549   */\n      swap3\n      swap2\n      pop\n      pop\n      jump\t// out\n        /* \"#utility.yul\":555:956   */\n    tag_13:\n        /* \"#utility.yul\":620:626   */\n      0x00\n        /* \"#utility.yul\":628:634   */\n      dup1\n        /* \"#utility.yul\":677:679   */\n      0x40\n        /* \"#utility.yul\":665:674   */\n      dup4\n        /* \"#utility.yul\":656:663   */\n      dup6\n        /* \"#utility.yul\":652:675   */\n      sub\n        /* \"#utility.yul\":648:680   */\n      slt\n        /* \"#utility.yul\":645:647   */\n      iszero\n      tag_57\n      jumpi\n        /* \"#utility.yul\":693:694   */\n      0x00\n        /* \"#utility.yul\":690:691   */\n      dup1\n        /* \"#utility.yul\":683:695   */\n      revert\n        /* \"#utility.yul\":645:647   */\n    tag_57:\n        /* \"#utility.yul\":736:737   */\n      0x00\n        /* \"#utility.yul\":761:812   */\n      tag_58\n        /* \"#utility.yul\":804:811   */\n      dup6\n        /* \"#utility.yul\":795:801   */\n      dup3\n        /* \"#utility.yul\":784:793   */\n      dup7\n        /* \"#utility.yul\":780:802   */\n      add\n        /* \"#utility.yul\":761:812   */\n      tag_49\n      jump\t// in\n    tag_58:\n        /* \"#utility.yul\":751:812   */\n      swap3\n      pop\n        /* \"#utility.yul\":707:822   */\n      pop\n        /* \"#utility.yul\":861:863   */\n      0x20\n        /* \"#utility.yul\":887:939   */\n      tag_59\n        /* \"#utility.yul\":931:938   */\n      dup6\n        /* \"#utility.yul\":922:928   */\n      dup3\n        /* \"#utility.yul\":911:920   */\n      dup7\n        /* \"#utility.yul\":907:929   */\n      add\n        /* \"#utility.yul\":887:939   */\n      tag_45\n      jump\t// in\n    tag_59:\n        /* \"#utility.yul\":877:939   */\n      swap2\n      pop\n        /* \"#utility.yul\":832:949   */\n      pop\n        /* \"#utility.yul\":635:956   */\n      swap3\n      pop\n      swap3\n      swap1\n      pop\n      jump\t// out\n        /* \"#utility.yul\":962:1077   */\n    tag_60:\n        /* \"#utility.yul\":1047:1070   */\n      tag_62\n        /* \"#utility.yul\":1064:1069   */\n      dup2\n        /* \"#utility.yul\":1047:1070   */\n      tag_63\n      jump\t// in\n    tag_62:\n        /* \"#utility.yul\":1042:1045   */\n      dup3\n        /* \"#utility.yul\":1035:1071   */\n      mstore\n        /* \"#utility.yul\":1025:1077   */\n      pop\n      pop\n      jump\t// out\n        /* \"#utility.yul\":1083:1301   */\n    tag_20:\n        /* \"#utility.yul\":1174:1178   */\n      0x00\n        /* \"#utility.yul\":1212:1214   */\n      0x20\n        /* \"#utility.yul\":1201:1210   */\n      dup3\n        /* \"#utility.yul\":1197:1215   */\n      add\n        /* \"#utility.yul\":1189:1215   */\n      swap1\n      pop\n        /* \"#utility.yul\":1225:1294   */\n      tag_65\n        /* \"#utility.yul\":1291:1292   */\n      0x00\n        /* \"#utility.yul\":1280:1289   */\n      dup4\n        /* \"#utility.yul\":1276:1293   */\n      add\n        /* \"#utility.yul\":1267:1273   */\n      dup5\n        /* \"#utility.yul\":1225:1294   */\n      tag_60\n      jump\t// in\n    tag_65:\n        /* \"#utility.yul\":1179:1301   */\n      swap3\n      swap2\n      pop\n      pop\n      jump\t// out\n        /* \"#utility.yul\":1307:1383   */\n    tag_63:\n        /* \"#utility.yul\":1343:1350   */\n      0x00\n        /* \"#utility.yul\":1372:1377   */\n      dup2\n        /* \"#utility.yul\":1361:1377   */\n      swap1\n      pop\n        /* \"#utility.yul\":1351:1383   */\n      swap2\n      swap1\n      pop\n      jump\t// out\n        /* \"#utility.yul\":1389:1466   */\n    tag_67:\n        /* \"#utility.yul\":1426:1433   */\n      0x00\n        /* \"#utility.yul\":1455:1460   */\n      dup2\n        /* \"#utility.yul\":1444:1460   */\n      swap1\n      pop\n        /* \"#utility.yul\":1434:1466   */\n      swap2\n      swap1\n      pop\n      jump\t// out\n        /* \"#utility.yul\":1472:1558   */\n    tag_69:\n        /* \"#utility.yul\":1507:1514   */\n      0x00\n        /* \"#utility.yul\":1547:1551   */\n      0xff\n        /* \"#utility.yul\":1540:1545   */\n      dup3\n        /* \"#utility.yul\":1536:1552   */\n      and\n        /* \"#utility.yul\":1525:1552   */\n      swap1\n      pop\n        /* \"#utility.yul\":1515:1558   */\n      swap2\n      swap1\n      pop\n      jump\t// out\n        /* \"#utility.yul\":1564:1795   */\n    tag_27:\n        /* \"#utility.yul\":1602:1605   */\n      0x00\n        /* \"#utility.yul\":1625:1648   */\n      tag_72\n        /* \"#utility.yul\":1642:1647   */\n      dup3\n        /* \"#utility.yul\":1625:1648   */\n      tag_63\n      jump\t// in\n    tag_72:\n        /* \"#utility.yul\":1616:1648   */\n      swap2\n      pop\n        /* \"#utility.yul\":1670:1736   */\n      0x7fffffffffffffffffffffffffffffffffffffffffffffffffffffffffffffff\n        /* \"#utility.yul\":1663:1668   */\n      dup3\n        /* \"#utility.yul\":1660:1737   */\n      eq\n        /* \"#utility.yul\":1657:1659   */\n      iszero\n      tag_73\n      jumpi\n        /* \"#utility.yul\":1740:1758   */\n      tag_74\n      tag_75\n      jump\t// in\n    tag_74:\n        /* \"#utility.yul\":1657:1659   */\n    tag_73:\n        /* \"#utility.yul\":1787:1788   */\n      0x01\n        /* \"#utility.yul\":1780:1785   */\n      dup3\n        /* \"#utility.yul\":1776:1789   */\n      add\n        /* \"#utility.yul\":1769:1789   */\n      swap1\n      pop\n        /* \"#utility.yul\":1606:1795   */\n      swap2\n      swap1\n      pop\n      jump\t// out\n        /* \"#utility.yul\":1801:2034   */\n    tag_29:\n        /* \"#utility.yul\":1840:1843   */\n      0x00\n        /* \"#utility.yul\":1863:1887   */\n      tag_77\n        /* \"#utility.yul\":1881:1886   */\n      dup3\n        /* \"#utility.yul\":1863:1887   */\n      tag_67\n      jump\t// in\n    tag_77:\n        /* \"#utility.yul\":1854:1887   */\n      swap2\n      pop\n        /* \"#utility.yul\":1909:1975   */\n      0xffffffffffffffffffffffffffffffffffffffffffffffffffffffffffffffff\n        /* \"#utility.yul\":1902:1907   */\n      dup3\n        /* \"#utility.yul\":1899:1976   */\n      eq\n        /* \"#utility.yul\":1896:1898   */\n      iszero\n      tag_78\n      jumpi\n        /* \"#utility.yul\":1979:1997   */\n      tag_79\n      tag_75\n      jump\t// in\n    tag_79:\n        /* \"#utility.yul\":1896:1898   */\n    tag_78:\n        /* \"#utility.yul\":2026:2027   */\n      0x01\n        /* \"#utility.yul\":2019:2024   */\n      dup3\n        /* \"#utility.yul\":2015:2028   */\n      add\n        /* \"#utility.yul\":2008:2028   */\n      swap1\n      pop\n        /* \"#utility.yul\":1844:2034   */\n      swap2\n      swap1\n      pop\n      jump\t// out\n        /* \"#utility.yul\":2040:2220   */\n    tag_75:\n        /* \"#utility.yul\":2088:2165   */\n      0x4e487b7100000000000000000000000000000000000000000000000000000000\n        /* \"#utility.yul\":2085:2086   */\n      0x00\n        /* \"#utility.yul\":2078:2166   */\n      mstore\n        /* \"#utility.yul\":2185:2189   */\n      0x11\n        /* \"#utility.yul\":2182:2183   */\n      0x04\n        /* \"#utility.yul\":2175:2190   */\n      mstore\n        /* \"#utility.yul\":2209:2213   */\n      0x24\n        /* \"#utility.yul\":2206:2207   */\n      0x00\n        /* \"#utility.yul\":2199:2214   */\n      revert\n        /* \"#utility.yul\":2226:2346   */\n    tag_48:\n        /* \"#utility.yul\":2298:2321   */\n      tag_82\n        /* \"#utility.yul\":2315:2320   */\n      dup2\n        /* \"#utility.yul\":2298:2321   */\n      tag_63\n      jump\t// in\n    tag_82:\n        /* \"#utility.yul\":2291:2296   */\n      dup2\n        /* \"#utility.yul\":2288:2322   */\n      eq\n        /* \"#utility.yul\":2278:2280   */\n      tag_83\n      jumpi\n        /* \"#utility.yul\":2336:2337   */\n      0x00\n        /* \"#utility.yul\":2333:2334   */\n      dup1\n        /* \"#utility.yul\":2326:2338   */\n      revert\n        /* \"#utility.yul\":2278:2280   */\n    tag_83:\n        /* \"#utility.yul\":2268:2346   */\n      pop\n      jump\t// out\n        /* \"#utility.yul\":2352:2470   */\n    tag_52:\n        /* \"#utility.yul\":2423:2445   */\n      tag_85\n        /* \"#utility.yul\":2439:2444   */\n      dup2\n        /* \"#utility.yul\":2423:2445   */\n      tag_69\n      jump\t// in\n    tag_85:\n        /* \"#utility.yul\":2416:2421   */\n      dup2\n        /* \"#utility.yul\":2413:2446   */\n      eq\n        /* \"#utility.yul\":2403:2405   */\n      tag_86\n      jumpi\n        /* \"#utility.yul\":2460:2461   */\n      0x00\n        /* \"#utility.yul\":2457:2458   */\n      dup1\n        /* \"#utility.yul\":2450:2462   */\n      revert\n        /* \"#utility.yul\":2403:2405   */\n    tag_86:\n        /* \"#utility.yul\":2393:2470   */\n      pop\n      jump\t// out\n\n    auxdata: 0xa264697066735822122017a09166b46c5d513e3354d105cf193bebb2e9395f27c42f40bad321392f94e164736f6c63430008040033\n}\n",
				"bytecode": {
					"linkReferences": {},
					"object": "60806040526040518060a00160405280602a81526020017fffffffffffffffffffffffffffffffffffffffffffffffffffffffffffffffaa815260200160458152602001601e81526020017ffffffffffffffffffffffffffffffffffffffffffffffffffffffffffffeb1c5815250600090600561007e929190610091565b5034801561008b57600080fd5b506100ee565b82600a81019282156100c0579160200282015b828111156100bf5782518255916020019190600101906100a4565b5b5090506100cd91906100d1565b5090565b5b808211156100ea5760008160009055506001016100d2565b5090565b61041c806100fd6000396000f3fe608060405234801561001057600080fd5b506004361061004c5760003560e01c806305608df51461005157806322bc1d8b1461005b5780634ac56d5714610065578063f72d0b3b14610081575b600080fd5b6100596100b1565b005b610063610120565b005b61007f600480360381019061007a9190610270565b61018f565b005b61009b60048036038101906100969190610247565b6101d6565b6040516100a891906102bb565b60405180910390f35b60005b600a81101561011d57600081600a81106100f7577f4e487b7100000000000000000000000000000000000000000000000000000000600052603260045260246000fd5b0160008154610105906102f7565b919050819055508061011690610340565b90506100b4565b50565b60005b600a81101561018c57600081600a8110610166577f4e487b7100000000000000000000000000000000000000000000000000000000600052603260045260246000fd5b0160008154610174906102f7565b919050819055508061018590610340565b9050610123565b50565b8060008360ff16600a81106101cd577f4e487b7100000000000000000000000000000000000000000000000000000000600052603260045260246000fd5b01819055505050565b6000808260ff16600a8110610214577f4e487b7100000000000000000000000000000000000000000000000000000000600052603260045260246000fd5b01549050919050565b60008135905061022c816103b8565b92915050565b600081359050610241816103cf565b92915050565b60006020828403121561025957600080fd5b600061026784828501610232565b91505092915050565b6000806040838503121561028357600080fd5b600061029185828601610232565b92505060206102a28582860161021d565b9150509250929050565b6102b5816102d6565b82525050565b60006020820190506102d060008301846102ac565b92915050565b6000819050919050565b6000819050919050565b600060ff82169050919050565b6000610302826102d6565b91507f7fffffffffffffffffffffffffffffffffffffffffffffffffffffffffffffff82141561033557610334610389565b5b600182019050919050565b600061034b826102e0565b91507fffffffffffffffffffffffffffffffffffffffffffffffffffffffffffffffff82141561037e5761037d610389565b5b600182019050919050565b7f4e487b7100000000000000000000000000000000000000000000000000000000600052601160045260246000fd5b6103c1816102d6565b81146103cc57600080fd5b50565b6103d8816102ea565b81146103e357600080fd5b5056fea264697066735822122017a09166b46c5d513e3354d105cf193bebb2e9395f27c42f40bad321392f94e164736f6c63430008040033",
					"opcodes": "PUSH1 0x80 PUSH1 0x40 MSTORE PUSH1 0x40 MLOAD DUP1 PUSH1 0xA0 ADD PUSH1 0x40 MSTORE DUP1 PUSH1 0x2A DUP2 MSTORE PUSH1 0x20 ADD PUSH32 0xFFFFFFFFFFFFFFFFFFFFFFFFFFFFFFFFFFFFFFFFFFFFFFFFFFFFFFFFFFFFFFAA DUP2 MSTORE PUSH1 0x20 ADD PUSH1 0x45 DUP2 MSTORE PUSH1 0x20 ADD PUSH1 0x1E DUP2 MSTORE PUSH1 0x20 ADD PUSH32 0xFFFFFFFFFFFFFFFFFFFFFFFFFFFFFFFFFFFFFFFFFFFFFFFFFFFFFFFFFFFEB1C5 DUP2 MSTORE POP PUSH1 0x0 SWAP1 PUSH1 0x5 PUSH2 0x7E SWAP3 SWAP2 SWAP1 PUSH2 0x91 JUMP JUMPDEST POP CALLVALUE DUP1 ISZERO PUSH2 0x8B JUMPI PUSH1 0x0 DUP1 REVERT JUMPDEST POP PUSH2 0xEE JUMP JUMPDEST DUP3 PUSH1 0xA DUP2 ADD SWAP3 DUP3 ISZERO PUSH2 0xC0 JUMPI SWAP2 PUSH1 0x20 MUL DUP3 ADD JUMPDEST DUP3 DUP2 GT ISZERO PUSH2 0xBF JUMPI DUP3 MLOAD DUP3 SSTORE SWAP2 PUSH1 0x20 ADD SWAP2 SWAP1 PUSH1 0x1 ADD SWAP1 PUSH2 0xA4 JUMP JUMPDEST JUMPDEST POP SWAP1 POP PUSH2 0xCD SWAP2 SWAP1 PUSH2 0xD1 JUMP JUMPDEST POP SWAP1 JUMP JUMPDEST JUMPDEST DUP1 DUP3 GT ISZERO PUSH2 0xEA JUMPI PUSH1 0x0 DUP2 PUSH1 0x0 SWAP1 SSTORE POP PUSH1 0x1 ADD PUSH2 0xD2 JUMP JUMPDEST POP SWAP1 JUMP JUMPDEST PUSH2 0x41C DUP1 PUSH2 0xFD PUSH1 0x0 CODECOPY PUSH1 0x0 RETURN INVALID PUSH1 0x80 PUSH1 0x40 MSTORE CALLVALUE DUP1 ISZERO PUSH2 0x10 JUMPI PUSH1 0x0 DUP1 REVERT JUMPDEST POP PUSH1 0x4 CALLDATASIZE LT PUSH2 0x4C JUMPI PUSH1 0x0 CALLDATALOAD PUSH1 0xE0 SHR DUP1 PUSH4 0x5608DF5 EQ PUSH2 0x51 JUMPI DUP1 PUSH4 0x22BC1D8B EQ PUSH2 0x5B JUMPI DUP1 PUSH4 0x4AC56D57 EQ PUSH2 0x65 JUMPI DUP1 PUSH4 0xF72D0B3B EQ PUSH2 0x81 JUMPI JUMPDEST PUSH1 0x0 DUP1 REVERT JUMPDEST PUSH2 0x59 PUSH2 0xB1 JUMP JUMPDEST STOP JUMPDEST PUSH2 0x63 PUSH2 0x120 JUMP JUMPDEST STOP JUMPDEST PUSH2 0x7F PUSH1 0x4 DUP1 CALLDATASIZE SUB DUP2 ADD SWAP1 PUSH2 0x7A SWAP2 SWAP1 PUSH2 0x270 JUMP JUMPDEST PUSH2 0x18F JUMP JUMPDEST STOP JUMPDEST PUSH2 0x9B PUSH1 0x4 DUP1 CALLDATASIZE SUB DUP2 ADD SWAP1 PUSH2 0x96 SWAP2 SWAP1 PUSH2 0x247 JUMP JUMPDEST PUSH2 0x1D6 JUMP JUMPDEST PUSH1 0x40 MLOAD PUSH2 0xA8 SWAP2 SWAP1 PUSH2 0x2BB JUMP JUMPDEST PUSH1 0x40 MLOAD DUP1 SWAP2 SUB SWAP1 RETURN JUMPDEST PUSH1 0x0 JUMPDEST PUSH1 0xA DUP2 LT ISZERO PUSH2 0x11D JUMPI PUSH1 0x0 DUP2 PUSH1 0xA DUP2 LT PUSH2 0xF7 JUMPI PUSH32 0x4E487B7100000000000000000000000000000000000000000000000000000000 PUSH1 0x0 MSTORE PUSH1 0x32 PUSH1 0x4 MSTORE PUSH1 0x24 PUSH1 0x0 REVERT JUMPDEST ADD PUSH1 0x0 DUP2 SLOAD PUSH2 0x105 SWAP1 PUSH2 0x2F7 JUMP JUMPDEST SWAP2 SWAP1 POP DUP2 SWAP1 SSTORE POP DUP1 PUSH2 0x116 SWAP1 PUSH2 0x340 JUMP JUMPDEST SWAP1 POP PUSH2 0xB4 JUMP JUMPDEST POP JUMP JUMPDEST PUSH1 0x0 JUMPDEST PUSH1 0xA DUP2 LT ISZERO PUSH2 0x18C JUMPI PUSH1 0x0 DUP2 PUSH1 0xA DUP2 LT PUSH2 0x166 JUMPI PUSH32 0x4E487B7100000000000000000000000000000000000000000000000000000000 PUSH1 0x0 MSTORE PUSH1 0x32 PUSH1 0x4 MSTORE PUSH1 0x24 PUSH1 0x0 REVERT JUMPDEST ADD PUSH1 0x0 DUP2 SLOAD PUSH2 0x174 SWAP1 PUSH2 0x2F7 JUMP JUMPDEST SWAP2 SWAP1 POP DUP2 SWAP1 SSTORE POP DUP1 PUSH2 0x185 SWAP1 PUSH2 0x340 JUMP JUMPDEST SWAP1 POP PUSH2 0x123 JUMP JUMPDEST POP JUMP JUMPDEST DUP1 PUSH1 0x0 DUP4 PUSH1 0xFF AND PUSH1 0xA DUP2 LT PUSH2 0x1CD JUMPI PUSH32 0x4E487B7100000000000000000000000000000000000000000000000000000000 PUSH1 0x0 MSTORE PUSH1 0x32 PUSH1 0x4 MSTORE PUSH1 0x24 PUSH1 0x0 REVERT JUMPDEST ADD DUP2 SWAP1 SSTORE POP POP POP JUMP JUMPDEST PUSH1 0x0 DUP1 DUP3 PUSH1 0xFF AND PUSH1 0xA DUP2 LT PUSH2 0x214 JUMPI PUSH32 0x4E487B7100000000000000000000000000000000000000000000000000000000 PUSH1 0x0 MSTORE PUSH1 0x32 PUSH1 0x4 MSTORE PUSH1 0x24 PUSH1 0x0 REVERT JUMPDEST ADD SLOAD SWAP1 POP SWAP2 SWAP1 POP JUMP JUMPDEST PUSH1 0x0 DUP2 CALLDATALOAD SWAP1 POP PUSH2 0x22C DUP2 PUSH2 0x3B8 JUMP JUMPDEST SWAP3 SWAP2 POP POP JUMP JUMPDEST PUSH1 0x0 DUP2 CALLDATALOAD SWAP1 POP PUSH2 0x241 DUP2 PUSH2 0x3CF JUMP JUMPDEST SWAP3 SWAP2 POP POP JUMP JUMPDEST PUSH1 0x0 PUSH1 0x20 DUP3 DUP5 SUB SLT ISZERO PUSH2 0x259 JUMPI PUSH1 0x0 DUP1 REVERT JUMPDEST PUSH1 0x0 PUSH2 0x267 DUP5 DUP3 DUP6 ADD PUSH2 0x232 JUMP JUMPDEST SWAP2 POP POP SWAP3 SWAP2 POP POP JUMP JUMPDEST PUSH1 0x0 DUP1 PUSH1 0x40 DUP4 DUP6 SUB SLT ISZERO PUSH2 0x283 JUMPI PUSH1 0x0 DUP1 REVERT JUMPDEST PUSH1 0x0 PUSH2 0x291 DUP6 DUP3 DUP7 ADD PUSH2 0x232 JUMP JUMPDEST SWAP3 POP POP PUSH1 0x20 PUSH2 0x2A2 DUP6 DUP3 DUP7 ADD PUSH2 0x21D JUMP JUMPDEST SWAP2 POP POP SWAP3 POP SWAP3 SWAP1 POP JUMP JUMPDEST PUSH2 0x2B5 DUP2 PUSH2 0x2D6 JUMP JUMPDEST DUP3 MSTORE POP POP JUMP JUMPDEST PUSH1 0x0 PUSH1 0x20 DUP3 ADD SWAP1 POP PUSH2 0x2D0 PUSH1 0x0 DUP4 ADD DUP5 PUSH2 0x2AC JUMP JUMPDEST SWAP3 SWAP2 POP POP JUMP JUMPDEST PUSH1 0x0 DUP2 SWAP1 POP SWAP2 SWAP1 POP JUMP JUMPDEST PUSH1 0x0 DUP2 SWAP1 POP SWAP2 SWAP1 POP JUMP JUMPDEST PUSH1 0x0 PUSH1 0xFF DUP3 AND SWAP1 POP SWAP2 SWAP1 POP JUMP JUMPDEST PUSH1 0x0 PUSH2 0x302 DUP3 PUSH2 0x2D6 JUMP JUMPDEST SWAP2 POP PUSH32 0x7FFFFFFFFFFFFFFFFFFFFFFFFFFFFFFFFFFFFFFFFFFFFFFFFFFFFFFFFFFFFFFF DUP3 EQ ISZERO PUSH2 0x335 JUMPI PUSH2 0x334 PUSH2 0x389 JUMP JUMPDEST JUMPDEST PUSH1 0x1 DUP3 ADD SWAP1 POP SWAP2 SWAP1 POP JUMP JUMPDEST PUSH1 0x0 PUSH2 0x34B DUP3 PUSH2 0x2E0 JUMP JUMPDEST SWAP2 POP PUSH32 0xFFFFFFFFFFFFFFFFFFFFFFFFFFFFFFFFFFFFFFFFFFFFFFFFFFFFFFFFFFFFFFFF DUP3 EQ ISZERO PUSH2 0x37E JUMPI PUSH2 0x37D PUSH2 0x389 JUMP JUMPDEST JUMPDEST PUSH1 0x1 DUP3 ADD SWAP1 POP SWAP2 SWAP1 POP JUMP JUMPDEST PUSH32 0x4E487B7100000000000000000000000000000000000000000000000000000000 PUSH1 0x0 MSTORE PUSH1 0x11 PUSH1 0x4 MSTORE PUSH1 0x24 PUSH1 0x0 REVERT JUMPDEST PUSH2 0x3C1 DUP2 PUSH2 0x2D6 JUMP JUMPDEST DUP2 EQ PUSH2 0x3CC JUMPI PUSH1 0x0 DUP1 REVERT JUMPDEST POP JUMP JUMPDEST PUSH2 0x3D8 DUP2 PUSH2 0x2EA JUMP JUMPDEST DUP2 EQ PUSH2 0x3E3 JUMPI PUSH1 0x0 DUP1 REVERT JUMPDEST POP JUMP INVALID LOG2 PUSH5 0x6970667358 0x22 SLT KECCAK256 OR LOG0 SWAP2 PUSH7 0xB46C5D513E3354 0xD1 SDIV 0xCF NOT EXTCODESIZE 0xEB 0xB2 0xE9 CODECOPY 0x5F 0x27 0xC4 0x2F BLOCKHASH 0xBA 0xD3 0x21 CODECOPY 0x2F SWAP5 0xE1 PUSH5 0x736F6C6343 STOP ADDMOD DIV STOP CALLER "
				},
				"gasEstimates": {
					"creation": {
						"codeDepositCost": "210400",
						"executionCost": "infinite",
						"totalCost": "infinite"
					},
					"external": {
						"get(uint8)": "1487",
						"incrementArrayFor()": "infinite",
						"incrementArrayWhile()": "infinite",
						"set(uint8,int256)": "20656"
					}
				},
				"methodIdentifiers": {
					"get(uint8)": "f72d0b3b",
					"incrementArrayFor()": "22bc1d8b",
					"incrementArrayWhile()": "05608df5",
					"set(uint8,int256)": "4ac56d57"
				}
			},
			"storageLayout": {
				"storage": [
					{
						"astId": 16,
						"contract": "exercices/ex07 - Boucles/sources/Array.sol:Array",
						"label": "myArray",
						"offset": 0,
						"slot": "0",
						"type": "t_array(t_int256)10_storage"
					}
				],
				"types": {
					"t_array(t_int256)10_storage": {
						"base": "t_int256",
						"encoding": "inplace",
						"label": "int256[10]",
						"numberOfBytes": "320"
					},
					"t_int256": {
						"encoding": "inplace",
						"label": "int256",
						"numberOfBytes": "32"
					}
				}
			},
			"userdoc": {
				"kind": "user",
				"methods": {},
				"version": 1
			}
		}
	}
}