{
	"data": {
		"bytecode": {
			"linkReferences": {},
			"object": "6080604052602a6000557fffffffffffffffffffffffffffffffffffffffffffffffffffffffffffffffd66001556040518060400160405280600c81526020017f49276d206120737472696e670000000000000000000000000000000000000000815250600290805190602001906100789291906100e7565b506001600360006101000a81548160ff02191690831515021790555033600360016101000a81548173ffffffffffffffffffffffffffffffffffffffff021916908373ffffffffffffffffffffffffffffffffffffffff1602179055503480156100e157600080fd5b506101eb565b8280546100f39061018a565b90600052602060002090601f016020900481019282610115576000855561015c565b82601f1061012e57805160ff191683800117855561015c565b8280016001018555821561015c579182015b8281111561015b578251825591602001919060010190610140565b5b509050610169919061016d565b5090565b5b8082111561018657600081600090555060010161016e565b5090565b600060028204905060018216806101a257607f821691505b602082108114156101b6576101b56101bc565b5b50919050565b7f4e487b7100000000000000000000000000000000000000000000000000000000600052602260045260246000fd5b61010d806101fa6000396000f3fe6080604052348015600f57600080fd5b506004361060325760003560e01c806360cb0d4f146037578063ec5cf024146051575b600080fd5b603d606b565b6040516048919060aa565b60405180910390f35b60576071565b604051606291906091565b60405180910390f35b60005481565b60015481565b607e8160c3565b82525050565b608b8160cd565b82525050565b600060208201905060a460008301846077565b92915050565b600060208201905060bd60008301846084565b92915050565b6000819050919050565b600081905091905056fea264697066735822122037e6f6900554681ff53d7a73cbe1c970a97af654119a1391dbe960885bf6b86364736f6c63430008040033",
			"opcodes": "PUSH1 0x80 PUSH1 0x40 MSTORE PUSH1 0x2A PUSH1 0x0 SSTORE PUSH32 0xFFFFFFFFFFFFFFFFFFFFFFFFFFFFFFFFFFFFFFFFFFFFFFFFFFFFFFFFFFFFFFD6 PUSH1 0x1 SSTORE PUSH1 0x40 MLOAD DUP1 PUSH1 0x40 ADD PUSH1 0x40 MSTORE DUP1 PUSH1 0xC DUP2 MSTORE PUSH1 0x20 ADD PUSH32 0x49276D206120737472696E670000000000000000000000000000000000000000 DUP2 MSTORE POP PUSH1 0x2 SWAP1 DUP1 MLOAD SWAP1 PUSH1 0x20 ADD SWAP1 PUSH2 0x78 SWAP3 SWAP2 SWAP1 PUSH2 0xE7 JUMP JUMPDEST POP PUSH1 0x1 PUSH1 0x3 PUSH1 0x0 PUSH2 0x100 EXP DUP2 SLOAD DUP2 PUSH1 0xFF MUL NOT AND SWAP1 DUP4 ISZERO ISZERO MUL OR SWAP1 SSTORE POP CALLER PUSH1 0x3 PUSH1 0x1 PUSH2 0x100 EXP DUP2 SLOAD DUP2 PUSH20 0xFFFFFFFFFFFFFFFFFFFFFFFFFFFFFFFFFFFFFFFF MUL NOT AND SWAP1 DUP4 PUSH20 0xFFFFFFFFFFFFFFFFFFFFFFFFFFFFFFFFFFFFFFFF AND MUL OR SWAP1 SSTORE POP CALLVALUE DUP1 ISZERO PUSH2 0xE1 JUMPI PUSH1 0x0 DUP1 REVERT JUMPDEST POP PUSH2 0x1EB JUMP JUMPDEST DUP3 DUP1 SLOAD PUSH2 0xF3 SWAP1 PUSH2 0x18A JUMP JUMPDEST SWAP1 PUSH1 0x0 MSTORE PUSH1 0x20 PUSH1 0x0 KECCAK256 SWAP1 PUSH1 0x1F ADD PUSH1 0x20 SWAP1 DIV DUP2 ADD SWAP3 DUP3 PUSH2 0x115 JUMPI PUSH1 0x0 DUP6 SSTORE PUSH2 0x15C JUMP JUMPDEST DUP3 PUSH1 0x1F LT PUSH2 0x12E JUMPI DUP1 MLOAD PUSH1 0xFF NOT AND DUP4 DUP1 ADD OR DUP6 SSTORE PUSH2 0x15C JUMP JUMPDEST DUP3 DUP1 ADD PUSH1 0x1 ADD DUP6 SSTORE DUP3 ISZERO PUSH2 0x15C JUMPI SWAP2 DUP3 ADD JUMPDEST DUP3 DUP2 GT ISZERO PUSH2 0x15B JUMPI DUP3 MLOAD DUP3 SSTORE SWAP2 PUSH1 0x20 ADD SWAP2 SWAP1 PUSH1 0x1 ADD SWAP1 PUSH2 0x140 JUMP JUMPDEST JUMPDEST POP SWAP1 POP PUSH2 0x169 SWAP2 SWAP1 PUSH2 0x16D JUMP JUMPDEST POP SWAP1 JUMP JUMPDEST JUMPDEST DUP1 DUP3 GT ISZERO PUSH2 0x186 JUMPI PUSH1 0x0 DUP2 PUSH1 0x0 SWAP1 SSTORE POP PUSH1 0x1 ADD PUSH2 0x16E JUMP JUMPDEST POP SWAP1 JUMP JUMPDEST PUSH1 0x0 PUSH1 0x2 DUP3 DIV SWAP1 POP PUSH1 0x1 DUP3 AND DUP1 PUSH2 0x1A2 JUMPI PUSH1 0x7F DUP3 AND SWAP2 POP JUMPDEST PUSH1 0x20 DUP3 LT DUP2 EQ ISZERO PUSH2 0x1B6 JUMPI PUSH2 0x1B5 PUSH2 0x1BC JUMP JUMPDEST JUMPDEST POP SWAP2 SWAP1 POP JUMP JUMPDEST PUSH32 0x4E487B7100000000000000000000000000000000000000000000000000000000 PUSH1 0x0 MSTORE PUSH1 0x22 PUSH1 0x4 MSTORE PUSH1 0x24 PUSH1 0x0 REVERT JUMPDEST PUSH2 0x10D DUP1 PUSH2 0x1FA PUSH1 0x0 CODECOPY PUSH1 0x0 RETURN INVALID PUSH1 0x80 PUSH1 0x40 MSTORE CALLVALUE DUP1 ISZERO PUSH1 0xF JUMPI PUSH1 0x0 DUP1 REVERT JUMPDEST POP PUSH1 0x4 CALLDATASIZE LT PUSH1 0x32 JUMPI PUSH1 0x0 CALLDATALOAD PUSH1 0xE0 SHR DUP1 PUSH4 0x60CB0D4F EQ PUSH1 0x37 JUMPI DUP1 PUSH4 0xEC5CF024 EQ PUSH1 0x51 JUMPI JUMPDEST PUSH1 0x0 DUP1 REVERT JUMPDEST PUSH1 0x3D PUSH1 0x6B JUMP JUMPDEST PUSH1 0x40 MLOAD PUSH1 0x48 SWAP2 SWAP1 PUSH1 0xAA JUMP JUMPDEST PUSH1 0x40 MLOAD DUP1 SWAP2 SUB SWAP1 RETURN JUMPDEST PUSH1 0x57 PUSH1 0x71 JUMP JUMPDEST PUSH1 0x40 MLOAD PUSH1 0x62 SWAP2 SWAP1 PUSH1 0x91 JUMP JUMPDEST PUSH1 0x40 MLOAD DUP1 SWAP2 SUB SWAP1 RETURN JUMPDEST PUSH1 0x0 SLOAD DUP2 JUMP JUMPDEST PUSH1 0x1 SLOAD DUP2 JUMP JUMPDEST PUSH1 0x7E DUP2 PUSH1 0xC3 JUMP JUMPDEST DUP3 MSTORE POP POP JUMP JUMPDEST PUSH1 0x8B DUP2 PUSH1 0xCD JUMP JUMPDEST DUP3 MSTORE POP POP JUMP JUMPDEST PUSH1 0x0 PUSH1 0x20 DUP3 ADD SWAP1 POP PUSH1 0xA4 PUSH1 0x0 DUP4 ADD DUP5 PUSH1 0x77 JUMP JUMPDEST SWAP3 SWAP2 POP POP JUMP JUMPDEST PUSH1 0x0 PUSH1 0x20 DUP3 ADD SWAP1 POP PUSH1 0xBD PUSH1 0x0 DUP4 ADD DUP5 PUSH1 0x84 JUMP JUMPDEST SWAP3 SWAP2 POP POP JUMP JUMPDEST PUSH1 0x0 DUP2 SWAP1 POP SWAP2 SWAP1 POP JUMP JUMPDEST PUSH1 0x0 DUP2 SWAP1 POP SWAP2 SWAP1 POP JUMP INVALID LOG2 PUSH5 0x6970667358 0x22 SLT KECCAK256 CALLDATACOPY 0xE6 0xF6 SWAP1 SDIV SLOAD PUSH9 0x1FF53D7A73CBE1C970 0xA9 PUSH27 0xF654119A1391DBE960885BF6B86364736F6C634300080400330000 "
		},
		"gasEstimates": {
			"creation": {
				"codeDepositCost": "53800",
				"executionCost": "infinite",
				"totalCost": "infinite"
			},
			"external": {
				"answerToLife()": "1107",
				"wrongAnswerToLife()": "1129"
			}
		},
		"methodIdentifiers": {
			"answerToLife()": "60cb0d4f",
			"wrongAnswerToLife()": "ec5cf024"
		}
	},
	"abi": [
		{
			"inputs": [],
			"name": "answerToLife",
			"outputs": [
				{
					"internalType": "uint256",
					"name": "",
					"type": "uint256"
				}
			],
			"stateMutability": "view",
			"type": "function"
		},
		{
			"inputs": [],
			"name": "wrongAnswerToLife",
			"outputs": [
				{
					"internalType": "int256",
					"name": "",
					"type": "int256"
				}
			],
			"stateMutability": "view",
			"type": "function"
		}
	]
}