{
	"exercices/rush/Distrib.sol": {
		"RushChapterI": {
			"abi": [
				{
					"inputs": [
						{
							"internalType": "enum RushChapterI.Dish",
							"name": "",
							"type": "uint8"
						}
					],
					"name": "dishQuantity",
					"outputs": [
						{
							"internalType": "uint256",
							"name": "",
							"type": "uint256"
						}
					],
					"stateMutability": "view",
					"type": "function"
				},
				{
					"inputs": [
						{
							"internalType": "enum RushChapterI.Dish",
							"name": "dish",
							"type": "uint8"
						},
						{
							"internalType": "uint256",
							"name": "quantity",
							"type": "uint256"
						}
					],
					"name": "fillDish",
					"outputs": [
						{
							"internalType": "uint256",
							"name": "total_",
							"type": "uint256"
						},
						{
							"internalType": "uint256",
							"name": "added_",
							"type": "uint256"
						}
					],
					"stateMutability": "nonpayable",
					"type": "function"
				},
				{
					"inputs": [
						{
							"internalType": "enum RushChapterI.Dish",
							"name": "dish",
							"type": "uint8"
						},
						{
							"internalType": "uint256",
							"name": "quantity",
							"type": "uint256"
						}
					],
					"name": "getDish",
					"outputs": [
						{
							"internalType": "enum RushChapterI.Dish",
							"name": "",
							"type": "uint8"
						},
						{
							"internalType": "uint256",
							"name": "",
							"type": "uint256"
						},
						{
							"internalType": "uint256",
							"name": "total_",
							"type": "uint256"
						}
					],
					"stateMutability": "nonpayable",
					"type": "function"
				},
				{
					"inputs": [],
					"name": "quantityMax",
					"outputs": [
						{
							"internalType": "uint256",
							"name": "",
							"type": "uint256"
						}
					],
					"stateMutability": "view",
					"type": "function"
				},
				{
					"inputs": [],
					"name": "totalQuantity",
					"outputs": [
						{
							"internalType": "uint256",
							"name": "",
							"type": "uint256"
						}
					],
					"stateMutability": "view",
					"type": "function"
				}
			],
			"devdoc": {
				"kind": "dev",
				"methods": {},
				"version": 1
			},
			"evm": {
				"assembly": "    /* \"exercices/rush/Distrib.sol\":62:999  contract RushChapterI {... */\n  mstore(0x40, 0x80)\n    /* \"exercices/rush/Distrib.sol\":297:299  42 */\n  0x2a\n    /* \"exercices/rush/Distrib.sol\":271:299  uint public quantityMax = 42 */\n  0x02\n  sstore\n    /* \"exercices/rush/Distrib.sol\":62:999  contract RushChapterI {... */\n  callvalue\n  dup1\n  iszero\n  tag_1\n  jumpi\n  0x00\n  dup1\n  revert\ntag_1:\n  pop\n  dataSize(sub_0)\n  dup1\n  dataOffset(sub_0)\n  0x00\n  codecopy\n  0x00\n  return\nstop\n\nsub_0: assembly {\n        /* \"exercices/rush/Distrib.sol\":62:999  contract RushChapterI {... */\n      mstore(0x40, 0x80)\n      callvalue\n      dup1\n      iszero\n      tag_1\n      jumpi\n      0x00\n      dup1\n      revert\n    tag_1:\n      pop\n      jumpi(tag_2, lt(calldatasize, 0x04))\n      shr(0xe0, calldataload(0x00))\n      dup1\n      0x273fbf17\n      eq\n      tag_3\n      jumpi\n      dup1\n      0x8d65df2a\n      eq\n      tag_4\n      jumpi\n      dup1\n      0xc332c3be\n      eq\n      tag_5\n      jumpi\n      dup1\n      0xc616f412\n      eq\n      tag_6\n      jumpi\n      dup1\n      0xc79cf758\n      eq\n      tag_7\n      jumpi\n    tag_2:\n      0x00\n      dup1\n      revert\n        /* \"exercices/rush/Distrib.sol\":271:299  uint public quantityMax = 42 */\n    tag_3:\n      tag_8\n      tag_9\n      jump\t// in\n    tag_8:\n      mload(0x40)\n      tag_10\n      swap2\n      swap1\n      tag_11\n      jump\t// in\n    tag_10:\n      mload(0x40)\n      dup1\n      swap2\n      sub\n      swap1\n      return\n        /* \"exercices/rush/Distrib.sol\":665:997  function fillDish(Dish dish, uint quantity) public returns (uint total_, uint added_) {... */\n    tag_4:\n      tag_12\n      0x04\n      dup1\n      calldatasize\n      sub\n      dup2\n      add\n      swap1\n      tag_13\n      swap2\n      swap1\n      tag_14\n      jump\t// in\n    tag_13:\n      tag_15\n      jump\t// in\n    tag_12:\n      mload(0x40)\n      tag_16\n      swap3\n      swap2\n      swap1\n      tag_17\n      jump\t// in\n    tag_16:\n      mload(0x40)\n      dup1\n      swap2\n      sub\n      swap1\n      return\n        /* \"exercices/rush/Distrib.sol\":306:659  function getDish(Dish dish, uint quantity) public returns (Dish, uint, uint total_) {... */\n    tag_5:\n      tag_18\n      0x04\n      dup1\n      calldatasize\n      sub\n      dup2\n      add\n      swap1\n      tag_19\n      swap2\n      swap1\n      tag_14\n      jump\t// in\n    tag_19:\n      tag_20\n      jump\t// in\n    tag_18:\n      mload(0x40)\n      tag_21\n      swap4\n      swap3\n      swap2\n      swap1\n      tag_22\n      jump\t// in\n    tag_21:\n      mload(0x40)\n      dup1\n      swap2\n      sub\n      swap1\n      return\n        /* \"exercices/rush/Distrib.sol\":240:265  uint public totalQuantity */\n    tag_6:\n      tag_23\n      tag_24\n      jump\t// in\n    tag_23:\n      mload(0x40)\n      tag_25\n      swap2\n      swap1\n      tag_11\n      jump\t// in\n    tag_25:\n      mload(0x40)\n      dup1\n      swap2\n      sub\n      swap1\n      return\n        /* \"exercices/rush/Distrib.sol\":192:234  mapping (Dish => uint) public dishQuantity */\n    tag_7:\n      tag_26\n      0x04\n      dup1\n      calldatasize\n      sub\n      dup2\n      add\n      swap1\n      tag_27\n      swap2\n      swap1\n      tag_28\n      jump\t// in\n    tag_27:\n      tag_29\n      jump\t// in\n    tag_26:\n      mload(0x40)\n      tag_30\n      swap2\n      swap1\n      tag_11\n      jump\t// in\n    tag_30:\n      mload(0x40)\n      dup1\n      swap2\n      sub\n      swap1\n      return\n        /* \"exercices/rush/Distrib.sol\":271:299  uint public quantityMax = 42 */\n    tag_9:\n      sload(0x02)\n      dup2\n      jump\t// out\n        /* \"exercices/rush/Distrib.sol\":665:997  function fillDish(Dish dish, uint quantity) public returns (uint total_, uint added_) {... */\n    tag_15:\n        /* \"exercices/rush/Distrib.sol\":725:736  uint total_ */\n      0x00\n        /* \"exercices/rush/Distrib.sol\":738:749  uint added_ */\n      dup1\n        /* \"exercices/rush/Distrib.sol\":770:783  totalQuantity */\n      sload(0x01)\n        /* \"exercices/rush/Distrib.sol\":761:783  total_ = totalQuantity */\n      swap2\n      pop\n        /* \"exercices/rush/Distrib.sol\":803:811  quantity */\n      dup3\n        /* \"exercices/rush/Distrib.sol\":793:811  total_ += quantity */\n      dup3\n      tag_32\n      swap2\n      swap1\n      tag_33\n      jump\t// in\n    tag_32:\n      swap2\n      pop\n        /* \"exercices/rush/Distrib.sol\":833:844  quantityMax */\n      sload(0x02)\n        /* \"exercices/rush/Distrib.sol\":824:830  total_ */\n      dup3\n        /* \"exercices/rush/Distrib.sol\":824:844  total_ > quantityMax */\n      gt\n        /* \"exercices/rush/Distrib.sol\":821:879  if(total_ > quantityMax) ... */\n      iszero\n      tag_34\n      jumpi\n        /* \"exercices/rush/Distrib.sol\":868:879  quantityMax */\n      sload(0x02)\n        /* \"exercices/rush/Distrib.sol\":859:879  total_ = quantityMax */\n      swap2\n      pop\n        /* \"exercices/rush/Distrib.sol\":821:879  if(total_ > quantityMax) ... */\n    tag_34:\n        /* \"exercices/rush/Distrib.sol\":907:920  totalQuantity */\n      sload(0x01)\n        /* \"exercices/rush/Distrib.sol\":898:904  total_ */\n      dup3\n        /* \"exercices/rush/Distrib.sol\":898:920  total_ - totalQuantity */\n      tag_35\n      swap2\n      swap1\n      tag_36\n      jump\t// in\n    tag_35:\n        /* \"exercices/rush/Distrib.sol\":889:920  added_ = total_ - totalQuantity */\n      swap1\n      pop\n        /* \"exercices/rush/Distrib.sol\":952:958  added_ */\n      dup1\n        /* \"exercices/rush/Distrib.sol\":930:942  dishQuantity */\n      0x00\n        /* \"exercices/rush/Distrib.sol\":930:948  dishQuantity[dish] */\n      dup1\n        /* \"exercices/rush/Distrib.sol\":943:947  dish */\n      dup7\n        /* \"exercices/rush/Distrib.sol\":930:948  dishQuantity[dish] */\n      0x04\n      dup2\n      gt\n      iszero\n      tag_37\n      jumpi\n      mstore(0x00, 0x4e487b7100000000000000000000000000000000000000000000000000000000)\n      mstore(0x04, 0x21)\n      revert(0x00, 0x24)\n    tag_37:\n      0x04\n      dup2\n      gt\n      iszero\n      tag_38\n      jumpi\n      mstore(0x00, 0x4e487b7100000000000000000000000000000000000000000000000000000000)\n      mstore(0x04, 0x21)\n      revert(0x00, 0x24)\n    tag_38:\n      dup2\n      mstore\n      0x20\n      add\n      swap1\n      dup2\n      mstore\n      0x20\n      add\n      0x00\n      keccak256\n      0x00\n        /* \"exercices/rush/Distrib.sol\":930:958  dishQuantity[dish] += added_ */\n      dup3\n      dup3\n      sload\n      tag_39\n      swap2\n      swap1\n      tag_33\n      jump\t// in\n    tag_39:\n      swap3\n      pop\n      pop\n      dup2\n      swap1\n      sstore\n      pop\n        /* \"exercices/rush/Distrib.sol\":984:990  total_ */\n      dup2\n        /* \"exercices/rush/Distrib.sol\":968:981  totalQuantity */\n      0x01\n        /* \"exercices/rush/Distrib.sol\":968:990  totalQuantity = total_ */\n      dup2\n      swap1\n      sstore\n      pop\n        /* \"exercices/rush/Distrib.sol\":665:997  function fillDish(Dish dish, uint quantity) public returns (uint total_, uint added_) {... */\n      swap3\n      pop\n      swap3\n      swap1\n      pop\n      jump\t// out\n        /* \"exercices/rush/Distrib.sol\":306:659  function getDish(Dish dish, uint quantity) public returns (Dish, uint, uint total_) {... */\n    tag_20:\n        /* \"exercices/rush/Distrib.sol\":365:369  Dish */\n      0x00\n        /* \"exercices/rush/Distrib.sol\":371:375  uint */\n      dup1\n        /* \"exercices/rush/Distrib.sol\":377:388  uint total_ */\n      0x00\n        /* \"exercices/rush/Distrib.sol\":409:421  dishQuantity */\n      dup1\n        /* \"exercices/rush/Distrib.sol\":409:427  dishQuantity[dish] */\n      0x00\n        /* \"exercices/rush/Distrib.sol\":422:426  dish */\n      dup7\n        /* \"exercices/rush/Distrib.sol\":409:427  dishQuantity[dish] */\n      0x04\n      dup2\n      gt\n      iszero\n      tag_41\n      jumpi\n      mstore(0x00, 0x4e487b7100000000000000000000000000000000000000000000000000000000)\n      mstore(0x04, 0x21)\n      revert(0x00, 0x24)\n    tag_41:\n      0x04\n      dup2\n      gt\n      iszero\n      tag_42\n      jumpi\n      mstore(0x00, 0x4e487b7100000000000000000000000000000000000000000000000000000000)\n      mstore(0x04, 0x21)\n      revert(0x00, 0x24)\n    tag_42:\n      dup2\n      mstore\n      0x20\n      add\n      swap1\n      dup2\n      mstore\n      0x20\n      add\n      0x00\n      keccak256\n      sload\n        /* \"exercices/rush/Distrib.sol\":400:427  total_ = dishQuantity[dish] */\n      swap1\n      pop\n        /* \"exercices/rush/Distrib.sol\":451:457  total_ */\n      dup1\n        /* \"exercices/rush/Distrib.sol\":440:448  quantity */\n      dup5\n        /* \"exercices/rush/Distrib.sol\":440:457  quantity > total_ */\n      gt\n        /* \"exercices/rush/Distrib.sol\":437:495  if(quantity > total_)... */\n      iszero\n      tag_43\n      jumpi\n        /* \"exercices/rush/Distrib.sol\":479:483  dish */\n      dup5\n        /* \"exercices/rush/Distrib.sol\":485:486  0 */\n      0x00\n        /* \"exercices/rush/Distrib.sol\":471:495  return (dish, 0, total_) */\n      swap3\n      pop\n      swap3\n      pop\n      jump(tag_40)\n        /* \"exercices/rush/Distrib.sol\":437:495  if(quantity > total_)... */\n    tag_43:\n        /* \"exercices/rush/Distrib.sol\":523:531  quantity */\n      dup4\n        /* \"exercices/rush/Distrib.sol\":514:531  total_-= quantity */\n      dup2\n      tag_44\n      swap2\n      swap1\n      tag_36\n      jump\t// in\n    tag_44:\n      swap1\n      pop\n        /* \"exercices/rush/Distrib.sol\":558:566  quantity */\n      dup4\n        /* \"exercices/rush/Distrib.sol\":541:554  totalQuantity */\n      0x01\n      0x00\n        /* \"exercices/rush/Distrib.sol\":541:566  totalQuantity -= quantity */\n      dup3\n      dup3\n      sload\n      tag_45\n      swap2\n      swap1\n      tag_36\n      jump\t// in\n    tag_45:\n      swap3\n      pop\n      pop\n      dup2\n      swap1\n      sstore\n      pop\n        /* \"exercices/rush/Distrib.sol\":597:603  total_ */\n      dup1\n        /* \"exercices/rush/Distrib.sol\":576:588  dishQuantity */\n      0x00\n        /* \"exercices/rush/Distrib.sol\":576:594  dishQuantity[dish] */\n      dup1\n        /* \"exercices/rush/Distrib.sol\":589:593  dish */\n      dup8\n        /* \"exercices/rush/Distrib.sol\":576:594  dishQuantity[dish] */\n      0x04\n      dup2\n      gt\n      iszero\n      tag_46\n      jumpi\n      mstore(0x00, 0x4e487b7100000000000000000000000000000000000000000000000000000000)\n      mstore(0x04, 0x21)\n      revert(0x00, 0x24)\n    tag_46:\n      0x04\n      dup2\n      gt\n      iszero\n      tag_47\n      jumpi\n      mstore(0x00, 0x4e487b7100000000000000000000000000000000000000000000000000000000)\n      mstore(0x04, 0x21)\n      revert(0x00, 0x24)\n    tag_47:\n      dup2\n      mstore\n      0x20\n      add\n      swap1\n      dup2\n      mstore\n      0x20\n      add\n      0x00\n      keccak256\n        /* \"exercices/rush/Distrib.sol\":576:603  dishQuantity[dish] = total_ */\n      dup2\n      swap1\n      sstore\n      pop\n        /* \"exercices/rush/Distrib.sol\":629:633  dish */\n      dup5\n        /* \"exercices/rush/Distrib.sol\":635:643  quantity */\n      dup5\n        /* \"exercices/rush/Distrib.sol\":622:652  return(dish, quantity, total_) */\n      swap3\n      pop\n      swap3\n      pop\n        /* \"exercices/rush/Distrib.sol\":306:659  function getDish(Dish dish, uint quantity) public returns (Dish, uint, uint total_) {... */\n    tag_40:\n      swap3\n      pop\n      swap3\n      pop\n      swap3\n      jump\t// out\n        /* \"exercices/rush/Distrib.sol\":240:265  uint public totalQuantity */\n    tag_24:\n      sload(0x01)\n      dup2\n      jump\t// out\n        /* \"exercices/rush/Distrib.sol\":192:234  mapping (Dish => uint) public dishQuantity */\n    tag_29:\n      mstore(0x20, 0x00)\n      dup1\n      0x00\n      mstore\n      keccak256(0x00, 0x40)\n      0x00\n      swap2\n      pop\n      swap1\n      pop\n      sload\n      dup2\n      jump\t// out\n        /* \"#utility.yul\":7:158   */\n    tag_49:\n        /* \"#utility.yul\":59:64   */\n      0x00\n        /* \"#utility.yul\":97:103   */\n      dup2\n        /* \"#utility.yul\":84:104   */\n      calldataload\n        /* \"#utility.yul\":75:104   */\n      swap1\n      pop\n        /* \"#utility.yul\":113:152   */\n      tag_51\n        /* \"#utility.yul\":146:151   */\n      dup2\n        /* \"#utility.yul\":113:152   */\n      tag_52\n      jump\t// in\n    tag_51:\n        /* \"#utility.yul\":65:158   */\n      swap3\n      swap2\n      pop\n      pop\n      jump\t// out\n        /* \"#utility.yul\":164:303   */\n    tag_53:\n        /* \"#utility.yul\":210:215   */\n      0x00\n        /* \"#utility.yul\":248:254   */\n      dup2\n        /* \"#utility.yul\":235:255   */\n      calldataload\n        /* \"#utility.yul\":226:255   */\n      swap1\n      pop\n        /* \"#utility.yul\":264:297   */\n      tag_55\n        /* \"#utility.yul\":291:296   */\n      dup2\n        /* \"#utility.yul\":264:297   */\n      tag_56\n      jump\t// in\n    tag_55:\n        /* \"#utility.yul\":216:303   */\n      swap3\n      swap2\n      pop\n      pop\n      jump\t// out\n        /* \"#utility.yul\":309:583   */\n    tag_28:\n        /* \"#utility.yul\":374:380   */\n      0x00\n        /* \"#utility.yul\":423:425   */\n      0x20\n        /* \"#utility.yul\":411:420   */\n      dup3\n        /* \"#utility.yul\":402:409   */\n      dup5\n        /* \"#utility.yul\":398:421   */\n      sub\n        /* \"#utility.yul\":394:426   */\n      slt\n        /* \"#utility.yul\":391:393   */\n      iszero\n      tag_58\n      jumpi\n        /* \"#utility.yul\":439:440   */\n      0x00\n        /* \"#utility.yul\":436:437   */\n      dup1\n        /* \"#utility.yul\":429:441   */\n      revert\n        /* \"#utility.yul\":391:393   */\n    tag_58:\n        /* \"#utility.yul\":482:483   */\n      0x00\n        /* \"#utility.yul\":507:566   */\n      tag_59\n        /* \"#utility.yul\":558:565   */\n      dup5\n        /* \"#utility.yul\":549:555   */\n      dup3\n        /* \"#utility.yul\":538:547   */\n      dup6\n        /* \"#utility.yul\":534:556   */\n      add\n        /* \"#utility.yul\":507:566   */\n      tag_49\n      jump\t// in\n    tag_59:\n        /* \"#utility.yul\":497:566   */\n      swap2\n      pop\n        /* \"#utility.yul\":453:576   */\n      pop\n        /* \"#utility.yul\":381:583   */\n      swap3\n      swap2\n      pop\n      pop\n      jump\t// out\n        /* \"#utility.yul\":589:1008   */\n    tag_14:\n        /* \"#utility.yul\":663:669   */\n      0x00\n        /* \"#utility.yul\":671:677   */\n      dup1\n        /* \"#utility.yul\":720:722   */\n      0x40\n        /* \"#utility.yul\":708:717   */\n      dup4\n        /* \"#utility.yul\":699:706   */\n      dup6\n        /* \"#utility.yul\":695:718   */\n      sub\n        /* \"#utility.yul\":691:723   */\n      slt\n        /* \"#utility.yul\":688:690   */\n      iszero\n      tag_61\n      jumpi\n        /* \"#utility.yul\":736:737   */\n      0x00\n        /* \"#utility.yul\":733:734   */\n      dup1\n        /* \"#utility.yul\":726:738   */\n      revert\n        /* \"#utility.yul\":688:690   */\n    tag_61:\n        /* \"#utility.yul\":779:780   */\n      0x00\n        /* \"#utility.yul\":804:863   */\n      tag_62\n        /* \"#utility.yul\":855:862   */\n      dup6\n        /* \"#utility.yul\":846:852   */\n      dup3\n        /* \"#utility.yul\":835:844   */\n      dup7\n        /* \"#utility.yul\":831:853   */\n      add\n        /* \"#utility.yul\":804:863   */\n      tag_49\n      jump\t// in\n    tag_62:\n        /* \"#utility.yul\":794:863   */\n      swap3\n      pop\n        /* \"#utility.yul\":750:873   */\n      pop\n        /* \"#utility.yul\":912:914   */\n      0x20\n        /* \"#utility.yul\":938:991   */\n      tag_63\n        /* \"#utility.yul\":983:990   */\n      dup6\n        /* \"#utility.yul\":974:980   */\n      dup3\n        /* \"#utility.yul\":963:972   */\n      dup7\n        /* \"#utility.yul\":959:981   */\n      add\n        /* \"#utility.yul\":938:991   */\n      tag_53\n      jump\t// in\n    tag_63:\n        /* \"#utility.yul\":928:991   */\n      swap2\n      pop\n        /* \"#utility.yul\":883:1001   */\n      pop\n        /* \"#utility.yul\":678:1008   */\n      swap3\n      pop\n      swap3\n      swap1\n      pop\n      jump\t// out\n        /* \"#utility.yul\":1014:1153   */\n    tag_64:\n        /* \"#utility.yul\":1105:1146   */\n      tag_66\n        /* \"#utility.yul\":1140:1145   */\n      dup2\n        /* \"#utility.yul\":1105:1146   */\n      tag_67\n      jump\t// in\n    tag_66:\n        /* \"#utility.yul\":1100:1103   */\n      dup3\n        /* \"#utility.yul\":1093:1147   */\n      mstore\n        /* \"#utility.yul\":1083:1153   */\n      pop\n      pop\n      jump\t// out\n        /* \"#utility.yul\":1159:1277   */\n    tag_68:\n        /* \"#utility.yul\":1246:1270   */\n      tag_70\n        /* \"#utility.yul\":1264:1269   */\n      dup2\n        /* \"#utility.yul\":1246:1270   */\n      tag_71\n      jump\t// in\n    tag_70:\n        /* \"#utility.yul\":1241:1244   */\n      dup3\n        /* \"#utility.yul\":1234:1271   */\n      mstore\n        /* \"#utility.yul\":1224:1277   */\n      pop\n      pop\n      jump\t// out\n        /* \"#utility.yul\":1283:1733   */\n    tag_22:\n        /* \"#utility.yul\":1436:1440   */\n      0x00\n        /* \"#utility.yul\":1474:1476   */\n      0x60\n        /* \"#utility.yul\":1463:1472   */\n      dup3\n        /* \"#utility.yul\":1459:1477   */\n      add\n        /* \"#utility.yul\":1451:1477   */\n      swap1\n      pop\n        /* \"#utility.yul\":1487:1562   */\n      tag_73\n        /* \"#utility.yul\":1559:1560   */\n      0x00\n        /* \"#utility.yul\":1548:1557   */\n      dup4\n        /* \"#utility.yul\":1544:1561   */\n      add\n        /* \"#utility.yul\":1535:1541   */\n      dup7\n        /* \"#utility.yul\":1487:1562   */\n      tag_64\n      jump\t// in\n    tag_73:\n        /* \"#utility.yul\":1572:1644   */\n      tag_74\n        /* \"#utility.yul\":1640:1642   */\n      0x20\n        /* \"#utility.yul\":1629:1638   */\n      dup4\n        /* \"#utility.yul\":1625:1643   */\n      add\n        /* \"#utility.yul\":1616:1622   */\n      dup6\n        /* \"#utility.yul\":1572:1644   */\n      tag_68\n      jump\t// in\n    tag_74:\n        /* \"#utility.yul\":1654:1726   */\n      tag_75\n        /* \"#utility.yul\":1722:1724   */\n      0x40\n        /* \"#utility.yul\":1711:1720   */\n      dup4\n        /* \"#utility.yul\":1707:1725   */\n      add\n        /* \"#utility.yul\":1698:1704   */\n      dup5\n        /* \"#utility.yul\":1654:1726   */\n      tag_68\n      jump\t// in\n    tag_75:\n        /* \"#utility.yul\":1441:1733   */\n      swap5\n      swap4\n      pop\n      pop\n      pop\n      pop\n      jump\t// out\n        /* \"#utility.yul\":1739:1961   */\n    tag_11:\n        /* \"#utility.yul\":1832:1836   */\n      0x00\n        /* \"#utility.yul\":1870:1872   */\n      0x20\n        /* \"#utility.yul\":1859:1868   */\n      dup3\n        /* \"#utility.yul\":1855:1873   */\n      add\n        /* \"#utility.yul\":1847:1873   */\n      swap1\n      pop\n        /* \"#utility.yul\":1883:1954   */\n      tag_77\n        /* \"#utility.yul\":1951:1952   */\n      0x00\n        /* \"#utility.yul\":1940:1949   */\n      dup4\n        /* \"#utility.yul\":1936:1953   */\n      add\n        /* \"#utility.yul\":1927:1933   */\n      dup5\n        /* \"#utility.yul\":1883:1954   */\n      tag_68\n      jump\t// in\n    tag_77:\n        /* \"#utility.yul\":1837:1961   */\n      swap3\n      swap2\n      pop\n      pop\n      jump\t// out\n        /* \"#utility.yul\":1967:2299   */\n    tag_17:\n        /* \"#utility.yul\":2088:2092   */\n      0x00\n        /* \"#utility.yul\":2126:2128   */\n      0x40\n        /* \"#utility.yul\":2115:2124   */\n      dup3\n        /* \"#utility.yul\":2111:2129   */\n      add\n        /* \"#utility.yul\":2103:2129   */\n      swap1\n      pop\n        /* \"#utility.yul\":2139:2210   */\n      tag_79\n        /* \"#utility.yul\":2207:2208   */\n      0x00\n        /* \"#utility.yul\":2196:2205   */\n      dup4\n        /* \"#utility.yul\":2192:2209   */\n      add\n        /* \"#utility.yul\":2183:2189   */\n      dup6\n        /* \"#utility.yul\":2139:2210   */\n      tag_68\n      jump\t// in\n    tag_79:\n        /* \"#utility.yul\":2220:2292   */\n      tag_80\n        /* \"#utility.yul\":2288:2290   */\n      0x20\n        /* \"#utility.yul\":2277:2286   */\n      dup4\n        /* \"#utility.yul\":2273:2291   */\n      add\n        /* \"#utility.yul\":2264:2270   */\n      dup5\n        /* \"#utility.yul\":2220:2292   */\n      tag_68\n      jump\t// in\n    tag_80:\n        /* \"#utility.yul\":2093:2299   */\n      swap4\n      swap3\n      pop\n      pop\n      pop\n      jump\t// out\n        /* \"#utility.yul\":2305:2610   */\n    tag_33:\n        /* \"#utility.yul\":2345:2348   */\n      0x00\n        /* \"#utility.yul\":2364:2384   */\n      tag_82\n        /* \"#utility.yul\":2382:2383   */\n      dup3\n        /* \"#utility.yul\":2364:2384   */\n      tag_71\n      jump\t// in\n    tag_82:\n        /* \"#utility.yul\":2359:2384   */\n      swap2\n      pop\n        /* \"#utility.yul\":2398:2418   */\n      tag_83\n        /* \"#utility.yul\":2416:2417   */\n      dup4\n        /* \"#utility.yul\":2398:2418   */\n      tag_71\n      jump\t// in\n    tag_83:\n        /* \"#utility.yul\":2393:2418   */\n      swap3\n      pop\n        /* \"#utility.yul\":2552:2553   */\n      dup3\n        /* \"#utility.yul\":2484:2550   */\n      0xffffffffffffffffffffffffffffffffffffffffffffffffffffffffffffffff\n        /* \"#utility.yul\":2480:2554   */\n      sub\n        /* \"#utility.yul\":2477:2478   */\n      dup3\n        /* \"#utility.yul\":2474:2555   */\n      gt\n        /* \"#utility.yul\":2471:2473   */\n      iszero\n      tag_84\n      jumpi\n        /* \"#utility.yul\":2558:2576   */\n      tag_85\n      tag_86\n      jump\t// in\n    tag_85:\n        /* \"#utility.yul\":2471:2473   */\n    tag_84:\n        /* \"#utility.yul\":2602:2603   */\n      dup3\n        /* \"#utility.yul\":2599:2600   */\n      dup3\n        /* \"#utility.yul\":2595:2604   */\n      add\n        /* \"#utility.yul\":2588:2604   */\n      swap1\n      pop\n        /* \"#utility.yul\":2349:2610   */\n      swap3\n      swap2\n      pop\n      pop\n      jump\t// out\n        /* \"#utility.yul\":2616:2807   */\n    tag_36:\n        /* \"#utility.yul\":2656:2660   */\n      0x00\n        /* \"#utility.yul\":2676:2696   */\n      tag_88\n        /* \"#utility.yul\":2694:2695   */\n      dup3\n        /* \"#utility.yul\":2676:2696   */\n      tag_71\n      jump\t// in\n    tag_88:\n        /* \"#utility.yul\":2671:2696   */\n      swap2\n      pop\n        /* \"#utility.yul\":2710:2730   */\n      tag_89\n        /* \"#utility.yul\":2728:2729   */\n      dup4\n        /* \"#utility.yul\":2710:2730   */\n      tag_71\n      jump\t// in\n    tag_89:\n        /* \"#utility.yul\":2705:2730   */\n      swap3\n      pop\n        /* \"#utility.yul\":2749:2750   */\n      dup3\n        /* \"#utility.yul\":2746:2747   */\n      dup3\n        /* \"#utility.yul\":2743:2751   */\n      lt\n        /* \"#utility.yul\":2740:2742   */\n      iszero\n      tag_90\n      jumpi\n        /* \"#utility.yul\":2754:2772   */\n      tag_91\n      tag_86\n      jump\t// in\n    tag_91:\n        /* \"#utility.yul\":2740:2742   */\n    tag_90:\n        /* \"#utility.yul\":2799:2800   */\n      dup3\n        /* \"#utility.yul\":2796:2797   */\n      dup3\n        /* \"#utility.yul\":2792:2801   */\n      sub\n        /* \"#utility.yul\":2784:2801   */\n      swap1\n      pop\n        /* \"#utility.yul\":2661:2807   */\n      swap3\n      swap2\n      pop\n      pop\n      jump\t// out\n        /* \"#utility.yul\":2813:2936   */\n    tag_92:\n        /* \"#utility.yul\":2856:2863   */\n      0x00\n        /* \"#utility.yul\":2885:2890   */\n      dup2\n        /* \"#utility.yul\":2874:2890   */\n      swap1\n      pop\n        /* \"#utility.yul\":2891:2930   */\n      tag_94\n        /* \"#utility.yul\":2924:2929   */\n      dup3\n        /* \"#utility.yul\":2891:2930   */\n      tag_95\n      jump\t// in\n    tag_94:\n        /* \"#utility.yul\":2864:2936   */\n      swap2\n      swap1\n      pop\n      jump\t// out\n        /* \"#utility.yul\":2942:3019   */\n    tag_71:\n        /* \"#utility.yul\":2979:2986   */\n      0x00\n        /* \"#utility.yul\":3008:3013   */\n      dup2\n        /* \"#utility.yul\":2997:3013   */\n      swap1\n      pop\n        /* \"#utility.yul\":2987:3019   */\n      swap2\n      swap1\n      pop\n      jump\t// out\n        /* \"#utility.yul\":3025:3148   */\n    tag_67:\n        /* \"#utility.yul\":3079:3088   */\n      0x00\n        /* \"#utility.yul\":3112:3142   */\n      tag_98\n        /* \"#utility.yul\":3136:3141   */\n      dup3\n        /* \"#utility.yul\":3112:3142   */\n      tag_92\n      jump\t// in\n    tag_98:\n        /* \"#utility.yul\":3099:3142   */\n      swap1\n      pop\n        /* \"#utility.yul\":3089:3148   */\n      swap2\n      swap1\n      pop\n      jump\t// out\n        /* \"#utility.yul\":3154:3334   */\n    tag_86:\n        /* \"#utility.yul\":3202:3279   */\n      0x4e487b7100000000000000000000000000000000000000000000000000000000\n        /* \"#utility.yul\":3199:3200   */\n      0x00\n        /* \"#utility.yul\":3192:3280   */\n      mstore\n        /* \"#utility.yul\":3299:3303   */\n      0x11\n        /* \"#utility.yul\":3296:3297   */\n      0x04\n        /* \"#utility.yul\":3289:3304   */\n      mstore\n        /* \"#utility.yul\":3323:3327   */\n      0x24\n        /* \"#utility.yul\":3320:3321   */\n      0x00\n        /* \"#utility.yul\":3313:3328   */\n      revert\n        /* \"#utility.yul\":3340:3520   */\n    tag_100:\n        /* \"#utility.yul\":3388:3465   */\n      0x4e487b7100000000000000000000000000000000000000000000000000000000\n        /* \"#utility.yul\":3385:3386   */\n      0x00\n        /* \"#utility.yul\":3378:3466   */\n      mstore\n        /* \"#utility.yul\":3485:3489   */\n      0x21\n        /* \"#utility.yul\":3482:3483   */\n      0x04\n        /* \"#utility.yul\":3475:3490   */\n      mstore\n        /* \"#utility.yul\":3509:3513   */\n      0x24\n        /* \"#utility.yul\":3506:3507   */\n      0x00\n        /* \"#utility.yul\":3499:3514   */\n      revert\n        /* \"#utility.yul\":3526:3637   */\n    tag_95:\n        /* \"#utility.yul\":3605:3606   */\n      0x05\n        /* \"#utility.yul\":3598:3603   */\n      dup2\n        /* \"#utility.yul\":3595:3607   */\n      lt\n        /* \"#utility.yul\":3585:3587   */\n      tag_103\n      jumpi\n        /* \"#utility.yul\":3611:3629   */\n      tag_104\n      tag_100\n      jump\t// in\n    tag_104:\n        /* \"#utility.yul\":3585:3587   */\n    tag_103:\n        /* \"#utility.yul\":3575:3637   */\n      pop\n      jump\t// out\n        /* \"#utility.yul\":3643:3748   */\n    tag_52:\n        /* \"#utility.yul\":3722:3723   */\n      0x05\n        /* \"#utility.yul\":3715:3720   */\n      dup2\n        /* \"#utility.yul\":3712:3724   */\n      lt\n        /* \"#utility.yul\":3702:3704   */\n      tag_106\n      jumpi\n        /* \"#utility.yul\":3738:3739   */\n      0x00\n        /* \"#utility.yul\":3735:3736   */\n      dup1\n        /* \"#utility.yul\":3728:3740   */\n      revert\n        /* \"#utility.yul\":3702:3704   */\n    tag_106:\n        /* \"#utility.yul\":3692:3748   */\n      pop\n      jump\t// out\n        /* \"#utility.yul\":3754:3876   */\n    tag_56:\n        /* \"#utility.yul\":3827:3851   */\n      tag_108\n        /* \"#utility.yul\":3845:3850   */\n      dup2\n        /* \"#utility.yul\":3827:3851   */\n      tag_71\n      jump\t// in\n    tag_108:\n        /* \"#utility.yul\":3820:3825   */\n      dup2\n        /* \"#utility.yul\":3817:3852   */\n      eq\n        /* \"#utility.yul\":3807:3809   */\n      tag_109\n      jumpi\n        /* \"#utility.yul\":3866:3867   */\n      0x00\n        /* \"#utility.yul\":3863:3864   */\n      dup1\n        /* \"#utility.yul\":3856:3868   */\n      revert\n        /* \"#utility.yul\":3807:3809   */\n    tag_109:\n        /* \"#utility.yul\":3797:3876   */\n      pop\n      jump\t// out\n\n    auxdata: 0xa2646970667358221220ff083b7beab2a327c72b03a51fd408b4dec33f8c45b65ad3a79f7ca2cac4383364736f6c63430008040033\n}\n",
				"bytecode": {
					"linkReferences": {},
					"object": "6080604052602a60025534801561001557600080fd5b50610636806100256000396000f3fe608060405234801561001057600080fd5b50600436106100575760003560e01c8063273fbf171461005c5780638d65df2a1461007a578063c332c3be146100ab578063c616f412146100dd578063c79cf758146100fb575b600080fd5b61006461012b565b604051610071919061046a565b60405180910390f35b610094600480360381019061008f91906103d9565b610131565b6040516100a2929190610485565b60405180910390f35b6100c560048036038101906100c091906103d9565b61020e565b6040516100d493929190610433565b60405180910390f35b6100e5610368565b6040516100f2919061046a565b60405180910390f35b610115600480360381019061011091906103b0565b61036e565b604051610122919061046a565b60405180910390f35b60025481565b6000806001549150828261014591906104ae565b91506002548211156101575760025491505b600154826101659190610504565b9050806000808660048111156101a4577f4e487b7100000000000000000000000000000000000000000000000000000000600052602160045260246000fd5b60048111156101dc577f4e487b7100000000000000000000000000000000000000000000000000000000600052602160045260246000fd5b815260200190815260200160002060008282546101f991906104ae565b92505081905550816001819055509250929050565b600080600080600086600481111561024f577f4e487b7100000000000000000000000000000000000000000000000000000000600052602160045260246000fd5b6004811115610287577f4e487b7100000000000000000000000000000000000000000000000000000000600052602160045260246000fd5b8152602001908152602001600020549050808411156102ac5784600092509250610361565b83816102b89190610504565b905083600160008282546102cc9190610504565b9250508190555080600080876004811115610310577f4e487b7100000000000000000000000000000000000000000000000000000000600052602160045260246000fd5b6004811115610348577f4e487b7100000000000000000000000000000000000000000000000000000000600052602160045260246000fd5b8152602001908152602001600020819055508484925092505b9250925092565b60015481565b60006020528060005260406000206000915090505481565b600081359050610395816105d9565b92915050565b6000813590506103aa816105e9565b92915050565b6000602082840312156103c257600080fd5b60006103d084828501610386565b91505092915050565b600080604083850312156103ec57600080fd5b60006103fa85828601610386565b925050602061040b8582860161039b565b9150509250929050565b61041e81610555565b82525050565b61042d8161054b565b82525050565b60006060820190506104486000830186610415565b6104556020830185610424565b6104626040830184610424565b949350505050565b600060208201905061047f6000830184610424565b92915050565b600060408201905061049a6000830185610424565b6104a76020830184610424565b9392505050565b60006104b98261054b565b91506104c48361054b565b9250827fffffffffffffffffffffffffffffffffffffffffffffffffffffffffffffffff038211156104f9576104f8610567565b5b828201905092915050565b600061050f8261054b565b915061051a8361054b565b92508282101561052d5761052c610567565b5b828203905092915050565b6000819050610546826105c5565b919050565b6000819050919050565b600061056082610538565b9050919050565b7f4e487b7100000000000000000000000000000000000000000000000000000000600052601160045260246000fd5b7f4e487b7100000000000000000000000000000000000000000000000000000000600052602160045260246000fd5b600581106105d6576105d5610596565b5b50565b600581106105e657600080fd5b50565b6105f28161054b565b81146105fd57600080fd5b5056fea2646970667358221220ff083b7beab2a327c72b03a51fd408b4dec33f8c45b65ad3a79f7ca2cac4383364736f6c63430008040033",
					"opcodes": "PUSH1 0x80 PUSH1 0x40 MSTORE PUSH1 0x2A PUSH1 0x2 SSTORE CALLVALUE DUP1 ISZERO PUSH2 0x15 JUMPI PUSH1 0x0 DUP1 REVERT JUMPDEST POP PUSH2 0x636 DUP1 PUSH2 0x25 PUSH1 0x0 CODECOPY PUSH1 0x0 RETURN INVALID PUSH1 0x80 PUSH1 0x40 MSTORE CALLVALUE DUP1 ISZERO PUSH2 0x10 JUMPI PUSH1 0x0 DUP1 REVERT JUMPDEST POP PUSH1 0x4 CALLDATASIZE LT PUSH2 0x57 JUMPI PUSH1 0x0 CALLDATALOAD PUSH1 0xE0 SHR DUP1 PUSH4 0x273FBF17 EQ PUSH2 0x5C JUMPI DUP1 PUSH4 0x8D65DF2A EQ PUSH2 0x7A JUMPI DUP1 PUSH4 0xC332C3BE EQ PUSH2 0xAB JUMPI DUP1 PUSH4 0xC616F412 EQ PUSH2 0xDD JUMPI DUP1 PUSH4 0xC79CF758 EQ PUSH2 0xFB JUMPI JUMPDEST PUSH1 0x0 DUP1 REVERT JUMPDEST PUSH2 0x64 PUSH2 0x12B JUMP JUMPDEST PUSH1 0x40 MLOAD PUSH2 0x71 SWAP2 SWAP1 PUSH2 0x46A JUMP JUMPDEST PUSH1 0x40 MLOAD DUP1 SWAP2 SUB SWAP1 RETURN JUMPDEST PUSH2 0x94 PUSH1 0x4 DUP1 CALLDATASIZE SUB DUP2 ADD SWAP1 PUSH2 0x8F SWAP2 SWAP1 PUSH2 0x3D9 JUMP JUMPDEST PUSH2 0x131 JUMP JUMPDEST PUSH1 0x40 MLOAD PUSH2 0xA2 SWAP3 SWAP2 SWAP1 PUSH2 0x485 JUMP JUMPDEST PUSH1 0x40 MLOAD DUP1 SWAP2 SUB SWAP1 RETURN JUMPDEST PUSH2 0xC5 PUSH1 0x4 DUP1 CALLDATASIZE SUB DUP2 ADD SWAP1 PUSH2 0xC0 SWAP2 SWAP1 PUSH2 0x3D9 JUMP JUMPDEST PUSH2 0x20E JUMP JUMPDEST PUSH1 0x40 MLOAD PUSH2 0xD4 SWAP4 SWAP3 SWAP2 SWAP1 PUSH2 0x433 JUMP JUMPDEST PUSH1 0x40 MLOAD DUP1 SWAP2 SUB SWAP1 RETURN JUMPDEST PUSH2 0xE5 PUSH2 0x368 JUMP JUMPDEST PUSH1 0x40 MLOAD PUSH2 0xF2 SWAP2 SWAP1 PUSH2 0x46A JUMP JUMPDEST PUSH1 0x40 MLOAD DUP1 SWAP2 SUB SWAP1 RETURN JUMPDEST PUSH2 0x115 PUSH1 0x4 DUP1 CALLDATASIZE SUB DUP2 ADD SWAP1 PUSH2 0x110 SWAP2 SWAP1 PUSH2 0x3B0 JUMP JUMPDEST PUSH2 0x36E JUMP JUMPDEST PUSH1 0x40 MLOAD PUSH2 0x122 SWAP2 SWAP1 PUSH2 0x46A JUMP JUMPDEST PUSH1 0x40 MLOAD DUP1 SWAP2 SUB SWAP1 RETURN JUMPDEST PUSH1 0x2 SLOAD DUP2 JUMP JUMPDEST PUSH1 0x0 DUP1 PUSH1 0x1 SLOAD SWAP2 POP DUP3 DUP3 PUSH2 0x145 SWAP2 SWAP1 PUSH2 0x4AE JUMP JUMPDEST SWAP2 POP PUSH1 0x2 SLOAD DUP3 GT ISZERO PUSH2 0x157 JUMPI PUSH1 0x2 SLOAD SWAP2 POP JUMPDEST PUSH1 0x1 SLOAD DUP3 PUSH2 0x165 SWAP2 SWAP1 PUSH2 0x504 JUMP JUMPDEST SWAP1 POP DUP1 PUSH1 0x0 DUP1 DUP7 PUSH1 0x4 DUP2 GT ISZERO PUSH2 0x1A4 JUMPI PUSH32 0x4E487B7100000000000000000000000000000000000000000000000000000000 PUSH1 0x0 MSTORE PUSH1 0x21 PUSH1 0x4 MSTORE PUSH1 0x24 PUSH1 0x0 REVERT JUMPDEST PUSH1 0x4 DUP2 GT ISZERO PUSH2 0x1DC JUMPI PUSH32 0x4E487B7100000000000000000000000000000000000000000000000000000000 PUSH1 0x0 MSTORE PUSH1 0x21 PUSH1 0x4 MSTORE PUSH1 0x24 PUSH1 0x0 REVERT JUMPDEST DUP2 MSTORE PUSH1 0x20 ADD SWAP1 DUP2 MSTORE PUSH1 0x20 ADD PUSH1 0x0 KECCAK256 PUSH1 0x0 DUP3 DUP3 SLOAD PUSH2 0x1F9 SWAP2 SWAP1 PUSH2 0x4AE JUMP JUMPDEST SWAP3 POP POP DUP2 SWAP1 SSTORE POP DUP2 PUSH1 0x1 DUP2 SWAP1 SSTORE POP SWAP3 POP SWAP3 SWAP1 POP JUMP JUMPDEST PUSH1 0x0 DUP1 PUSH1 0x0 DUP1 PUSH1 0x0 DUP7 PUSH1 0x4 DUP2 GT ISZERO PUSH2 0x24F JUMPI PUSH32 0x4E487B7100000000000000000000000000000000000000000000000000000000 PUSH1 0x0 MSTORE PUSH1 0x21 PUSH1 0x4 MSTORE PUSH1 0x24 PUSH1 0x0 REVERT JUMPDEST PUSH1 0x4 DUP2 GT ISZERO PUSH2 0x287 JUMPI PUSH32 0x4E487B7100000000000000000000000000000000000000000000000000000000 PUSH1 0x0 MSTORE PUSH1 0x21 PUSH1 0x4 MSTORE PUSH1 0x24 PUSH1 0x0 REVERT JUMPDEST DUP2 MSTORE PUSH1 0x20 ADD SWAP1 DUP2 MSTORE PUSH1 0x20 ADD PUSH1 0x0 KECCAK256 SLOAD SWAP1 POP DUP1 DUP5 GT ISZERO PUSH2 0x2AC JUMPI DUP5 PUSH1 0x0 SWAP3 POP SWAP3 POP PUSH2 0x361 JUMP JUMPDEST DUP4 DUP2 PUSH2 0x2B8 SWAP2 SWAP1 PUSH2 0x504 JUMP JUMPDEST SWAP1 POP DUP4 PUSH1 0x1 PUSH1 0x0 DUP3 DUP3 SLOAD PUSH2 0x2CC SWAP2 SWAP1 PUSH2 0x504 JUMP JUMPDEST SWAP3 POP POP DUP2 SWAP1 SSTORE POP DUP1 PUSH1 0x0 DUP1 DUP8 PUSH1 0x4 DUP2 GT ISZERO PUSH2 0x310 JUMPI PUSH32 0x4E487B7100000000000000000000000000000000000000000000000000000000 PUSH1 0x0 MSTORE PUSH1 0x21 PUSH1 0x4 MSTORE PUSH1 0x24 PUSH1 0x0 REVERT JUMPDEST PUSH1 0x4 DUP2 GT ISZERO PUSH2 0x348 JUMPI PUSH32 0x4E487B7100000000000000000000000000000000000000000000000000000000 PUSH1 0x0 MSTORE PUSH1 0x21 PUSH1 0x4 MSTORE PUSH1 0x24 PUSH1 0x0 REVERT JUMPDEST DUP2 MSTORE PUSH1 0x20 ADD SWAP1 DUP2 MSTORE PUSH1 0x20 ADD PUSH1 0x0 KECCAK256 DUP2 SWAP1 SSTORE POP DUP5 DUP5 SWAP3 POP SWAP3 POP JUMPDEST SWAP3 POP SWAP3 POP SWAP3 JUMP JUMPDEST PUSH1 0x1 SLOAD DUP2 JUMP JUMPDEST PUSH1 0x0 PUSH1 0x20 MSTORE DUP1 PUSH1 0x0 MSTORE PUSH1 0x40 PUSH1 0x0 KECCAK256 PUSH1 0x0 SWAP2 POP SWAP1 POP SLOAD DUP2 JUMP JUMPDEST PUSH1 0x0 DUP2 CALLDATALOAD SWAP1 POP PUSH2 0x395 DUP2 PUSH2 0x5D9 JUMP JUMPDEST SWAP3 SWAP2 POP POP JUMP JUMPDEST PUSH1 0x0 DUP2 CALLDATALOAD SWAP1 POP PUSH2 0x3AA DUP2 PUSH2 0x5E9 JUMP JUMPDEST SWAP3 SWAP2 POP POP JUMP JUMPDEST PUSH1 0x0 PUSH1 0x20 DUP3 DUP5 SUB SLT ISZERO PUSH2 0x3C2 JUMPI PUSH1 0x0 DUP1 REVERT JUMPDEST PUSH1 0x0 PUSH2 0x3D0 DUP5 DUP3 DUP6 ADD PUSH2 0x386 JUMP JUMPDEST SWAP2 POP POP SWAP3 SWAP2 POP POP JUMP JUMPDEST PUSH1 0x0 DUP1 PUSH1 0x40 DUP4 DUP6 SUB SLT ISZERO PUSH2 0x3EC JUMPI PUSH1 0x0 DUP1 REVERT JUMPDEST PUSH1 0x0 PUSH2 0x3FA DUP6 DUP3 DUP7 ADD PUSH2 0x386 JUMP JUMPDEST SWAP3 POP POP PUSH1 0x20 PUSH2 0x40B DUP6 DUP3 DUP7 ADD PUSH2 0x39B JUMP JUMPDEST SWAP2 POP POP SWAP3 POP SWAP3 SWAP1 POP JUMP JUMPDEST PUSH2 0x41E DUP2 PUSH2 0x555 JUMP JUMPDEST DUP3 MSTORE POP POP JUMP JUMPDEST PUSH2 0x42D DUP2 PUSH2 0x54B JUMP JUMPDEST DUP3 MSTORE POP POP JUMP JUMPDEST PUSH1 0x0 PUSH1 0x60 DUP3 ADD SWAP1 POP PUSH2 0x448 PUSH1 0x0 DUP4 ADD DUP7 PUSH2 0x415 JUMP JUMPDEST PUSH2 0x455 PUSH1 0x20 DUP4 ADD DUP6 PUSH2 0x424 JUMP JUMPDEST PUSH2 0x462 PUSH1 0x40 DUP4 ADD DUP5 PUSH2 0x424 JUMP JUMPDEST SWAP5 SWAP4 POP POP POP POP JUMP JUMPDEST PUSH1 0x0 PUSH1 0x20 DUP3 ADD SWAP1 POP PUSH2 0x47F PUSH1 0x0 DUP4 ADD DUP5 PUSH2 0x424 JUMP JUMPDEST SWAP3 SWAP2 POP POP JUMP JUMPDEST PUSH1 0x0 PUSH1 0x40 DUP3 ADD SWAP1 POP PUSH2 0x49A PUSH1 0x0 DUP4 ADD DUP6 PUSH2 0x424 JUMP JUMPDEST PUSH2 0x4A7 PUSH1 0x20 DUP4 ADD DUP5 PUSH2 0x424 JUMP JUMPDEST SWAP4 SWAP3 POP POP POP JUMP JUMPDEST PUSH1 0x0 PUSH2 0x4B9 DUP3 PUSH2 0x54B JUMP JUMPDEST SWAP2 POP PUSH2 0x4C4 DUP4 PUSH2 0x54B JUMP JUMPDEST SWAP3 POP DUP3 PUSH32 0xFFFFFFFFFFFFFFFFFFFFFFFFFFFFFFFFFFFFFFFFFFFFFFFFFFFFFFFFFFFFFFFF SUB DUP3 GT ISZERO PUSH2 0x4F9 JUMPI PUSH2 0x4F8 PUSH2 0x567 JUMP JUMPDEST JUMPDEST DUP3 DUP3 ADD SWAP1 POP SWAP3 SWAP2 POP POP JUMP JUMPDEST PUSH1 0x0 PUSH2 0x50F DUP3 PUSH2 0x54B JUMP JUMPDEST SWAP2 POP PUSH2 0x51A DUP4 PUSH2 0x54B JUMP JUMPDEST SWAP3 POP DUP3 DUP3 LT ISZERO PUSH2 0x52D JUMPI PUSH2 0x52C PUSH2 0x567 JUMP JUMPDEST JUMPDEST DUP3 DUP3 SUB SWAP1 POP SWAP3 SWAP2 POP POP JUMP JUMPDEST PUSH1 0x0 DUP2 SWAP1 POP PUSH2 0x546 DUP3 PUSH2 0x5C5 JUMP JUMPDEST SWAP2 SWAP1 POP JUMP JUMPDEST PUSH1 0x0 DUP2 SWAP1 POP SWAP2 SWAP1 POP JUMP JUMPDEST PUSH1 0x0 PUSH2 0x560 DUP3 PUSH2 0x538 JUMP JUMPDEST SWAP1 POP SWAP2 SWAP1 POP JUMP JUMPDEST PUSH32 0x4E487B7100000000000000000000000000000000000000000000000000000000 PUSH1 0x0 MSTORE PUSH1 0x11 PUSH1 0x4 MSTORE PUSH1 0x24 PUSH1 0x0 REVERT JUMPDEST PUSH32 0x4E487B7100000000000000000000000000000000000000000000000000000000 PUSH1 0x0 MSTORE PUSH1 0x21 PUSH1 0x4 MSTORE PUSH1 0x24 PUSH1 0x0 REVERT JUMPDEST PUSH1 0x5 DUP2 LT PUSH2 0x5D6 JUMPI PUSH2 0x5D5 PUSH2 0x596 JUMP JUMPDEST JUMPDEST POP JUMP JUMPDEST PUSH1 0x5 DUP2 LT PUSH2 0x5E6 JUMPI PUSH1 0x0 DUP1 REVERT JUMPDEST POP JUMP JUMPDEST PUSH2 0x5F2 DUP2 PUSH2 0x54B JUMP JUMPDEST DUP2 EQ PUSH2 0x5FD JUMPI PUSH1 0x0 DUP1 REVERT JUMPDEST POP JUMP INVALID LOG2 PUSH5 0x6970667358 0x22 SLT KECCAK256 SELFDESTRUCT ADDMOD EXTCODESIZE PUSH28 0xEAB2A327C72B03A51FD408B4DEC33F8C45B65AD3A79F7CA2CAC43833 PUSH5 0x736F6C6343 STOP ADDMOD DIV STOP CALLER "
				},
				"gasEstimates": {
					"creation": {
						"codeDepositCost": "318000",
						"executionCost": "20361",
						"totalCost": "338361"
					},
					"external": {
						"dishQuantity(uint8)": "1488",
						"fillDish(uint8,uint256)": "infinite",
						"getDish(uint8,uint256)": "infinite",
						"quantityMax()": "1107",
						"totalQuantity()": "1173"
					}
				},
				"methodIdentifiers": {
					"dishQuantity(uint8)": "c79cf758",
					"fillDish(uint8,uint256)": "8d65df2a",
					"getDish(uint8,uint256)": "c332c3be",
					"quantityMax()": "273fbf17",
					"totalQuantity()": "c616f412"
				}
			},
			"storageLayout": {
				"storage": [
					{
						"astId": 12,
						"contract": "exercices/rush/Distrib.sol:RushChapterI",
						"label": "dishQuantity",
						"offset": 0,
						"slot": "0",
						"type": "t_mapping(t_enum(Dish)7,t_uint256)"
					},
					{
						"astId": 14,
						"contract": "exercices/rush/Distrib.sol:RushChapterI",
						"label": "totalQuantity",
						"offset": 0,
						"slot": "1",
						"type": "t_uint256"
					},
					{
						"astId": 17,
						"contract": "exercices/rush/Distrib.sol:RushChapterI",
						"label": "quantityMax",
						"offset": 0,
						"slot": "2",
						"type": "t_uint256"
					}
				],
				"types": {
					"t_enum(Dish)7": {
						"encoding": "inplace",
						"label": "enum RushChapterI.Dish",
						"numberOfBytes": "1"
					},
					"t_mapping(t_enum(Dish)7,t_uint256)": {
						"encoding": "mapping",
						"key": "t_enum(Dish)7",
						"label": "mapping(enum RushChapterI.Dish => uint256)",
						"numberOfBytes": "32",
						"value": "t_uint256"
					},
					"t_uint256": {
						"encoding": "inplace",
						"label": "uint256",
						"numberOfBytes": "32"
					}
				}
			},
			"userdoc": {
				"kind": "user",
				"methods": {},
				"version": 1
			}
		}
	}
}