{
	"data": {
		"bytecode": {
			"linkReferences": {},
			"object": "60806040526040518060a00160405280602a81526020017fffffffffffffffffffffffffffffffffffffffffffffffffffffffffffffffaa815260200160458152602001601e81526020017ffffffffffffffffffffffffffffffffffffffffffffffffffffffffffffeb1c5815250600090600561007e929190610091565b5034801561008b57600080fd5b506100ee565b82600a81019282156100c0579160200282015b828111156100bf5782518255916020019190600101906100a4565b5b5090506100cd91906100d1565b5090565b5b808211156100ea5760008160009055506001016100d2565b5090565b610249806100fd6000396000f3fe608060405234801561001057600080fd5b50600436106100365760003560e01c80634ac56d571461003b578063f72d0b3b14610057575b600080fd5b61005560048036038101906100509190610168565b610087565b005b610071600480360381019061006c919061013f565b6100ce565b60405161007e91906101b3565b60405180910390f35b8060008360ff16600a81106100c5577f4e487b7100000000000000000000000000000000000000000000000000000000600052603260045260246000fd5b01819055505050565b6000808260ff16600a811061010c577f4e487b7100000000000000000000000000000000000000000000000000000000600052603260045260246000fd5b01549050919050565b600081359050610124816101e5565b92915050565b600081359050610139816101fc565b92915050565b60006020828403121561015157600080fd5b600061015f8482850161012a565b91505092915050565b6000806040838503121561017b57600080fd5b60006101898582860161012a565b925050602061019a85828601610115565b9150509250929050565b6101ad816101ce565b82525050565b60006020820190506101c860008301846101a4565b92915050565b6000819050919050565b600060ff82169050919050565b6101ee816101ce565b81146101f957600080fd5b50565b610205816101d8565b811461021057600080fd5b5056fea2646970667358221220e9ed9b5990c528bbef38c4b8751432b762f758fde05605034fa18540a450324364736f6c63430008040033",
			"opcodes": "PUSH1 0x80 PUSH1 0x40 MSTORE PUSH1 0x40 MLOAD DUP1 PUSH1 0xA0 ADD PUSH1 0x40 MSTORE DUP1 PUSH1 0x2A DUP2 MSTORE PUSH1 0x20 ADD PUSH32 0xFFFFFFFFFFFFFFFFFFFFFFFFFFFFFFFFFFFFFFFFFFFFFFFFFFFFFFFFFFFFFFAA DUP2 MSTORE PUSH1 0x20 ADD PUSH1 0x45 DUP2 MSTORE PUSH1 0x20 ADD PUSH1 0x1E DUP2 MSTORE PUSH1 0x20 ADD PUSH32 0xFFFFFFFFFFFFFFFFFFFFFFFFFFFFFFFFFFFFFFFFFFFFFFFFFFFFFFFFFFFEB1C5 DUP2 MSTORE POP PUSH1 0x0 SWAP1 PUSH1 0x5 PUSH2 0x7E SWAP3 SWAP2 SWAP1 PUSH2 0x91 JUMP JUMPDEST POP CALLVALUE DUP1 ISZERO PUSH2 0x8B JUMPI PUSH1 0x0 DUP1 REVERT JUMPDEST POP PUSH2 0xEE JUMP JUMPDEST DUP3 PUSH1 0xA DUP2 ADD SWAP3 DUP3 ISZERO PUSH2 0xC0 JUMPI SWAP2 PUSH1 0x20 MUL DUP3 ADD JUMPDEST DUP3 DUP2 GT ISZERO PUSH2 0xBF JUMPI DUP3 MLOAD DUP3 SSTORE SWAP2 PUSH1 0x20 ADD SWAP2 SWAP1 PUSH1 0x1 ADD SWAP1 PUSH2 0xA4 JUMP JUMPDEST JUMPDEST POP SWAP1 POP PUSH2 0xCD SWAP2 SWAP1 PUSH2 0xD1 JUMP JUMPDEST POP SWAP1 JUMP JUMPDEST JUMPDEST DUP1 DUP3 GT ISZERO PUSH2 0xEA JUMPI PUSH1 0x0 DUP2 PUSH1 0x0 SWAP1 SSTORE POP PUSH1 0x1 ADD PUSH2 0xD2 JUMP JUMPDEST POP SWAP1 JUMP JUMPDEST PUSH2 0x249 DUP1 PUSH2 0xFD PUSH1 0x0 CODECOPY PUSH1 0x0 RETURN INVALID PUSH1 0x80 PUSH1 0x40 MSTORE CALLVALUE DUP1 ISZERO PUSH2 0x10 JUMPI PUSH1 0x0 DUP1 REVERT JUMPDEST POP PUSH1 0x4 CALLDATASIZE LT PUSH2 0x36 JUMPI PUSH1 0x0 CALLDATALOAD PUSH1 0xE0 SHR DUP1 PUSH4 0x4AC56D57 EQ PUSH2 0x3B JUMPI DUP1 PUSH4 0xF72D0B3B EQ PUSH2 0x57 JUMPI JUMPDEST PUSH1 0x0 DUP1 REVERT JUMPDEST PUSH2 0x55 PUSH1 0x4 DUP1 CALLDATASIZE SUB DUP2 ADD SWAP1 PUSH2 0x50 SWAP2 SWAP1 PUSH2 0x168 JUMP JUMPDEST PUSH2 0x87 JUMP JUMPDEST STOP JUMPDEST PUSH2 0x71 PUSH1 0x4 DUP1 CALLDATASIZE SUB DUP2 ADD SWAP1 PUSH2 0x6C SWAP2 SWAP1 PUSH2 0x13F JUMP JUMPDEST PUSH2 0xCE JUMP JUMPDEST PUSH1 0x40 MLOAD PUSH2 0x7E SWAP2 SWAP1 PUSH2 0x1B3 JUMP JUMPDEST PUSH1 0x40 MLOAD DUP1 SWAP2 SUB SWAP1 RETURN JUMPDEST DUP1 PUSH1 0x0 DUP4 PUSH1 0xFF AND PUSH1 0xA DUP2 LT PUSH2 0xC5 JUMPI PUSH32 0x4E487B7100000000000000000000000000000000000000000000000000000000 PUSH1 0x0 MSTORE PUSH1 0x32 PUSH1 0x4 MSTORE PUSH1 0x24 PUSH1 0x0 REVERT JUMPDEST ADD DUP2 SWAP1 SSTORE POP POP POP JUMP JUMPDEST PUSH1 0x0 DUP1 DUP3 PUSH1 0xFF AND PUSH1 0xA DUP2 LT PUSH2 0x10C JUMPI PUSH32 0x4E487B7100000000000000000000000000000000000000000000000000000000 PUSH1 0x0 MSTORE PUSH1 0x32 PUSH1 0x4 MSTORE PUSH1 0x24 PUSH1 0x0 REVERT JUMPDEST ADD SLOAD SWAP1 POP SWAP2 SWAP1 POP JUMP JUMPDEST PUSH1 0x0 DUP2 CALLDATALOAD SWAP1 POP PUSH2 0x124 DUP2 PUSH2 0x1E5 JUMP JUMPDEST SWAP3 SWAP2 POP POP JUMP JUMPDEST PUSH1 0x0 DUP2 CALLDATALOAD SWAP1 POP PUSH2 0x139 DUP2 PUSH2 0x1FC JUMP JUMPDEST SWAP3 SWAP2 POP POP JUMP JUMPDEST PUSH1 0x0 PUSH1 0x20 DUP3 DUP5 SUB SLT ISZERO PUSH2 0x151 JUMPI PUSH1 0x0 DUP1 REVERT JUMPDEST PUSH1 0x0 PUSH2 0x15F DUP5 DUP3 DUP6 ADD PUSH2 0x12A JUMP JUMPDEST SWAP2 POP POP SWAP3 SWAP2 POP POP JUMP JUMPDEST PUSH1 0x0 DUP1 PUSH1 0x40 DUP4 DUP6 SUB SLT ISZERO PUSH2 0x17B JUMPI PUSH1 0x0 DUP1 REVERT JUMPDEST PUSH1 0x0 PUSH2 0x189 DUP6 DUP3 DUP7 ADD PUSH2 0x12A JUMP JUMPDEST SWAP3 POP POP PUSH1 0x20 PUSH2 0x19A DUP6 DUP3 DUP7 ADD PUSH2 0x115 JUMP JUMPDEST SWAP2 POP POP SWAP3 POP SWAP3 SWAP1 POP JUMP JUMPDEST PUSH2 0x1AD DUP2 PUSH2 0x1CE JUMP JUMPDEST DUP3 MSTORE POP POP JUMP JUMPDEST PUSH1 0x0 PUSH1 0x20 DUP3 ADD SWAP1 POP PUSH2 0x1C8 PUSH1 0x0 DUP4 ADD DUP5 PUSH2 0x1A4 JUMP JUMPDEST SWAP3 SWAP2 POP POP JUMP JUMPDEST PUSH1 0x0 DUP2 SWAP1 POP SWAP2 SWAP1 POP JUMP JUMPDEST PUSH1 0x0 PUSH1 0xFF DUP3 AND SWAP1 POP SWAP2 SWAP1 POP JUMP JUMPDEST PUSH2 0x1EE DUP2 PUSH2 0x1CE JUMP JUMPDEST DUP2 EQ PUSH2 0x1F9 JUMPI PUSH1 0x0 DUP1 REVERT JUMPDEST POP JUMP JUMPDEST PUSH2 0x205 DUP2 PUSH2 0x1D8 JUMP JUMPDEST DUP2 EQ PUSH2 0x210 JUMPI PUSH1 0x0 DUP1 REVERT JUMPDEST POP JUMP INVALID LOG2 PUSH5 0x6970667358 0x22 SLT KECCAK256 0xE9 0xED SWAP12 MSIZE SWAP1 0xC5 0x28 0xBB 0xEF CODESIZE 0xC4 0xB8 PUSH22 0x1432B762F758FDE05605034FA18540A450324364736F PUSH13 0x63430008040033000000000000 "
		},
		"gasEstimates": {
			"creation": {
				"codeDepositCost": "117000",
				"executionCost": "infinite",
				"totalCost": "infinite"
			},
			"external": {
				"get(uint8)": "1443",
				"set(uint8,int256)": "20612"
			}
		},
		"methodIdentifiers": {
			"get(uint8)": "f72d0b3b",
			"set(uint8,int256)": "4ac56d57"
		}
	},
	"abi": [
		{
			"inputs": [
				{
					"internalType": "uint8",
					"name": "index",
					"type": "uint8"
				}
			],
			"name": "get",
			"outputs": [
				{
					"internalType": "int256",
					"name": "",
					"type": "int256"
				}
			],
			"stateMutability": "view",
			"type": "function"
		},
		{
			"inputs": [
				{
					"internalType": "uint8",
					"name": "index",
					"type": "uint8"
				},
				{
					"internalType": "int256",
					"name": "value",
					"type": "int256"
				}
			],
			"name": "set",
			"outputs": [],
			"stateMutability": "nonpayable",
			"type": "function"
		}
	]
}