{
	"exercices/ex09 - Structures/sources/Struct.sol": {
		"Struct": {
			"abi": [
				{
					"inputs": [
						{
							"internalType": "uint256",
							"name": "age",
							"type": "uint256"
						},
						{
							"internalType": "address",
							"name": "account",
							"type": "address"
						},
						{
							"internalType": "uint256",
							"name": "grade",
							"type": "uint256"
						},
						{
							"internalType": "bool",
							"name": "isAlive",
							"type": "bool"
						},
						{
							"internalType": "string",
							"name": "username",
							"type": "string"
						}
					],
					"name": "addUser",
					"outputs": [],
					"stateMutability": "nonpayable",
					"type": "function"
				},
				{
					"inputs": [
						{
							"internalType": "address",
							"name": "account",
							"type": "address"
						}
					],
					"name": "removeUser",
					"outputs": [],
					"stateMutability": "nonpayable",
					"type": "function"
				},
				{
					"inputs": [
						{
							"internalType": "address",
							"name": "account",
							"type": "address"
						},
						{
							"internalType": "uint256",
							"name": "age",
							"type": "uint256"
						}
					],
					"name": "setAge",
					"outputs": [],
					"stateMutability": "nonpayable",
					"type": "function"
				},
				{
					"inputs": [
						{
							"internalType": "address",
							"name": "account",
							"type": "address"
						},
						{
							"internalType": "uint256",
							"name": "grade",
							"type": "uint256"
						}
					],
					"name": "setGrade",
					"outputs": [],
					"stateMutability": "nonpayable",
					"type": "function"
				},
				{
					"inputs": [
						{
							"internalType": "address",
							"name": "account",
							"type": "address"
						},
						{
							"internalType": "bool",
							"name": "isAlive",
							"type": "bool"
						}
					],
					"name": "setIsAlive",
					"outputs": [],
					"stateMutability": "nonpayable",
					"type": "function"
				},
				{
					"inputs": [
						{
							"internalType": "address",
							"name": "account",
							"type": "address"
						},
						{
							"internalType": "string",
							"name": "username",
							"type": "string"
						}
					],
					"name": "setUsername",
					"outputs": [],
					"stateMutability": "nonpayable",
					"type": "function"
				}
			],
			"devdoc": {
				"kind": "dev",
				"methods": {},
				"version": 1
			},
			"evm": {
				"assembly": "    /* \"exercices/ex09 - Structures/sources/Struct.sol\":62:1106  contract Struct {... */\n  mstore(0x40, 0x80)\n  callvalue\n  dup1\n  iszero\n  tag_1\n  jumpi\n  0x00\n  dup1\n  revert\ntag_1:\n  pop\n  dataSize(sub_0)\n  dup1\n  dataOffset(sub_0)\n  0x00\n  codecopy\n  0x00\n  return\nstop\n\nsub_0: assembly {\n        /* \"exercices/ex09 - Structures/sources/Struct.sol\":62:1106  contract Struct {... */\n      mstore(0x40, 0x80)\n      callvalue\n      dup1\n      iszero\n      tag_1\n      jumpi\n      0x00\n      dup1\n      revert\n    tag_1:\n      pop\n      jumpi(tag_2, lt(calldatasize, 0x04))\n      shr(0xe0, calldataload(0x00))\n      dup1\n      0x47c7faca\n      eq\n      tag_3\n      jumpi\n      dup1\n      0x98575188\n      eq\n      tag_4\n      jumpi\n      dup1\n      0xc1f3d39d\n      eq\n      tag_5\n      jumpi\n      dup1\n      0xe2045452\n      eq\n      tag_6\n      jumpi\n      dup1\n      0xeab94b20\n      eq\n      tag_7\n      jumpi\n      dup1\n      0xf0b50e80\n      eq\n      tag_8\n      jumpi\n    tag_2:\n      0x00\n      dup1\n      revert\n        /* \"exercices/ex09 - Structures/sources/Struct.sol\":824:957  function setGrade(address account, uint grade) public {... */\n    tag_3:\n      tag_9\n      0x04\n      dup1\n      calldatasize\n      sub\n      dup2\n      add\n      swap1\n      tag_10\n      swap2\n      swap1\n      tag_11\n      jump\t// in\n    tag_10:\n      tag_12\n      jump\t// in\n    tag_9:\n      stop\n        /* \"exercices/ex09 - Structures/sources/Struct.sol\":441:523  function removeUser(address account) public {... */\n    tag_4:\n      tag_13\n      0x04\n      dup1\n      calldatasize\n      sub\n      dup2\n      add\n      swap1\n      tag_14\n      swap2\n      swap1\n      tag_15\n      jump\t// in\n    tag_14:\n      tag_16\n      jump\t// in\n    tag_13:\n      stop\n        /* \"exercices/ex09 - Structures/sources/Struct.sol\":963:1104  function setIsAlive(address account, bool isAlive) public {... */\n    tag_5:\n      tag_17\n      0x04\n      dup1\n      calldatasize\n      sub\n      dup2\n      add\n      swap1\n      tag_18\n      swap2\n      swap1\n      tag_19\n      jump\t// in\n    tag_18:\n      tag_20\n      jump\t// in\n    tag_17:\n      stop\n        /* \"exercices/ex09 - Structures/sources/Struct.sol\":533:687  function setUsername(address account, string memory username) public {... */\n    tag_6:\n      tag_21\n      0x04\n      dup1\n      calldatasize\n      sub\n      dup2\n      add\n      swap1\n      tag_22\n      swap2\n      swap1\n      tag_23\n      jump\t// in\n    tag_22:\n      tag_24\n      jump\t// in\n    tag_21:\n      stop\n        /* \"exercices/ex09 - Structures/sources/Struct.sol\":693:818  function setAge(address account, uint age) public {... */\n    tag_7:\n      tag_25\n      0x04\n      dup1\n      calldatasize\n      sub\n      dup2\n      add\n      swap1\n      tag_26\n      swap2\n      swap1\n      tag_11\n      jump\t// in\n    tag_26:\n      tag_27\n      jump\t// in\n    tag_25:\n      stop\n        /* \"exercices/ex09 - Structures/sources/Struct.sol\":256:435  function addUser(uint age, address account, uint grade, bool isAlive, string memory username) public {... */\n    tag_8:\n      tag_28\n      0x04\n      dup1\n      calldatasize\n      sub\n      dup2\n      add\n      swap1\n      tag_29\n      swap2\n      swap1\n      tag_30\n      jump\t// in\n    tag_29:\n      tag_31\n      jump\t// in\n    tag_28:\n      stop\n        /* \"exercices/ex09 - Structures/sources/Struct.sol\":824:957  function setGrade(address account, uint grade) public {... */\n    tag_12:\n        /* \"exercices/ex09 - Structures/sources/Struct.sol\":888:905  User storage user */\n      0x00\n        /* \"exercices/ex09 - Structures/sources/Struct.sol\":908:913  users */\n      dup1\n        /* \"exercices/ex09 - Structures/sources/Struct.sol\":908:922  users[account] */\n      0x00\n        /* \"exercices/ex09 - Structures/sources/Struct.sol\":914:921  account */\n      dup5\n        /* \"exercices/ex09 - Structures/sources/Struct.sol\":908:922  users[account] */\n      0xffffffffffffffffffffffffffffffffffffffff\n      and\n      0xffffffffffffffffffffffffffffffffffffffff\n      and\n      dup2\n      mstore\n      0x20\n      add\n      swap1\n      dup2\n      mstore\n      0x20\n      add\n      0x00\n      keccak256\n        /* \"exercices/ex09 - Structures/sources/Struct.sol\":888:922  User storage user = users[account] */\n      swap1\n      pop\n        /* \"exercices/ex09 - Structures/sources/Struct.sol\":945:950  grade */\n      dup2\n        /* \"exercices/ex09 - Structures/sources/Struct.sol\":932:936  user */\n      dup2\n        /* \"exercices/ex09 - Structures/sources/Struct.sol\":932:942  user.grade */\n      0x03\n      add\n        /* \"exercices/ex09 - Structures/sources/Struct.sol\":932:950  user.grade = grade */\n      dup2\n      swap1\n      sstore\n      pop\n        /* \"exercices/ex09 - Structures/sources/Struct.sol\":824:957  function setGrade(address account, uint grade) public {... */\n      pop\n      pop\n      pop\n      jump\t// out\n        /* \"exercices/ex09 - Structures/sources/Struct.sol\":441:523  function removeUser(address account) public {... */\n    tag_16:\n        /* \"exercices/ex09 - Structures/sources/Struct.sol\":502:507  users */\n      0x00\n        /* \"exercices/ex09 - Structures/sources/Struct.sol\":502:516  users[account] */\n      dup1\n        /* \"exercices/ex09 - Structures/sources/Struct.sol\":508:515  account */\n      dup3\n        /* \"exercices/ex09 - Structures/sources/Struct.sol\":502:516  users[account] */\n      0xffffffffffffffffffffffffffffffffffffffff\n      and\n      0xffffffffffffffffffffffffffffffffffffffff\n      and\n      dup2\n      mstore\n      0x20\n      add\n      swap1\n      dup2\n      mstore\n      0x20\n      add\n      0x00\n      keccak256\n      0x00\n        /* \"exercices/ex09 - Structures/sources/Struct.sol\":495:516  delete users[account] */\n      dup1\n      dup3\n      add\n      0x00\n      tag_34\n      swap2\n      swap1\n      tag_35\n      jump\t// in\n    tag_34:\n      0x01\n      dup3\n      add\n      0x00\n      swap1\n      sstore\n      0x02\n      dup3\n      add\n      exp(0x0100, 0x00)\n      dup2\n      sload\n      swap1\n      0xffffffffffffffffffffffffffffffffffffffff\n      mul\n      not\n      and\n      swap1\n      sstore\n      0x03\n      dup3\n      add\n      0x00\n      swap1\n      sstore\n      0x04\n      dup3\n      add\n      exp(0x0100, 0x00)\n      dup2\n      sload\n      swap1\n      0xff\n      mul\n      not\n      and\n      swap1\n      sstore\n      pop\n      pop\n        /* \"exercices/ex09 - Structures/sources/Struct.sol\":441:523  function removeUser(address account) public {... */\n      pop\n      jump\t// out\n        /* \"exercices/ex09 - Structures/sources/Struct.sol\":963:1104  function setIsAlive(address account, bool isAlive) public {... */\n    tag_20:\n        /* \"exercices/ex09 - Structures/sources/Struct.sol\":1031:1048  User storage user */\n      0x00\n        /* \"exercices/ex09 - Structures/sources/Struct.sol\":1051:1056  users */\n      dup1\n        /* \"exercices/ex09 - Structures/sources/Struct.sol\":1051:1065  users[account] */\n      0x00\n        /* \"exercices/ex09 - Structures/sources/Struct.sol\":1057:1064  account */\n      dup5\n        /* \"exercices/ex09 - Structures/sources/Struct.sol\":1051:1065  users[account] */\n      0xffffffffffffffffffffffffffffffffffffffff\n      and\n      0xffffffffffffffffffffffffffffffffffffffff\n      and\n      dup2\n      mstore\n      0x20\n      add\n      swap1\n      dup2\n      mstore\n      0x20\n      add\n      0x00\n      keccak256\n        /* \"exercices/ex09 - Structures/sources/Struct.sol\":1031:1065  User storage user = users[account] */\n      swap1\n      pop\n        /* \"exercices/ex09 - Structures/sources/Struct.sol\":1090:1097  isAlive */\n      dup2\n        /* \"exercices/ex09 - Structures/sources/Struct.sol\":1075:1079  user */\n      dup2\n        /* \"exercices/ex09 - Structures/sources/Struct.sol\":1075:1087  user.isAlive */\n      0x04\n      add\n      0x00\n        /* \"exercices/ex09 - Structures/sources/Struct.sol\":1075:1097  user.isAlive = isAlive */\n      0x0100\n      exp\n      dup2\n      sload\n      dup2\n      0xff\n      mul\n      not\n      and\n      swap1\n      dup4\n      iszero\n      iszero\n      mul\n      or\n      swap1\n      sstore\n      pop\n        /* \"exercices/ex09 - Structures/sources/Struct.sol\":963:1104  function setIsAlive(address account, bool isAlive) public {... */\n      pop\n      pop\n      pop\n      jump\t// out\n        /* \"exercices/ex09 - Structures/sources/Struct.sol\":533:687  function setUsername(address account, string memory username) public {... */\n    tag_24:\n        /* \"exercices/ex09 - Structures/sources/Struct.sol\":612:629  User storage user */\n      0x00\n        /* \"exercices/ex09 - Structures/sources/Struct.sol\":632:637  users */\n      dup1\n        /* \"exercices/ex09 - Structures/sources/Struct.sol\":632:646  users[account] */\n      0x00\n        /* \"exercices/ex09 - Structures/sources/Struct.sol\":638:645  account */\n      dup5\n        /* \"exercices/ex09 - Structures/sources/Struct.sol\":632:646  users[account] */\n      0xffffffffffffffffffffffffffffffffffffffff\n      and\n      0xffffffffffffffffffffffffffffffffffffffff\n      and\n      dup2\n      mstore\n      0x20\n      add\n      swap1\n      dup2\n      mstore\n      0x20\n      add\n      0x00\n      keccak256\n        /* \"exercices/ex09 - Structures/sources/Struct.sol\":612:646  User storage user = users[account] */\n      swap1\n      pop\n        /* \"exercices/ex09 - Structures/sources/Struct.sol\":672:680  username */\n      dup2\n        /* \"exercices/ex09 - Structures/sources/Struct.sol\":656:660  user */\n      dup2\n        /* \"exercices/ex09 - Structures/sources/Struct.sol\":656:669  user.username */\n      0x00\n      add\n        /* \"exercices/ex09 - Structures/sources/Struct.sol\":656:680  user.username = username */\n      swap1\n      dup1\n      mload\n      swap1\n      0x20\n      add\n      swap1\n      tag_38\n      swap3\n      swap2\n      swap1\n      tag_39\n      jump\t// in\n    tag_38:\n      pop\n        /* \"exercices/ex09 - Structures/sources/Struct.sol\":533:687  function setUsername(address account, string memory username) public {... */\n      pop\n      pop\n      pop\n      jump\t// out\n        /* \"exercices/ex09 - Structures/sources/Struct.sol\":693:818  function setAge(address account, uint age) public {... */\n    tag_27:\n        /* \"exercices/ex09 - Structures/sources/Struct.sol\":753:770  User storage user */\n      0x00\n        /* \"exercices/ex09 - Structures/sources/Struct.sol\":773:778  users */\n      dup1\n        /* \"exercices/ex09 - Structures/sources/Struct.sol\":773:787  users[account] */\n      0x00\n        /* \"exercices/ex09 - Structures/sources/Struct.sol\":779:786  account */\n      dup5\n        /* \"exercices/ex09 - Structures/sources/Struct.sol\":773:787  users[account] */\n      0xffffffffffffffffffffffffffffffffffffffff\n      and\n      0xffffffffffffffffffffffffffffffffffffffff\n      and\n      dup2\n      mstore\n      0x20\n      add\n      swap1\n      dup2\n      mstore\n      0x20\n      add\n      0x00\n      keccak256\n        /* \"exercices/ex09 - Structures/sources/Struct.sol\":753:787  User storage user = users[account] */\n      swap1\n      pop\n        /* \"exercices/ex09 - Structures/sources/Struct.sol\":808:811  age */\n      dup2\n        /* \"exercices/ex09 - Structures/sources/Struct.sol\":797:801  user */\n      dup2\n        /* \"exercices/ex09 - Structures/sources/Struct.sol\":797:805  user.age */\n      0x01\n      add\n        /* \"exercices/ex09 - Structures/sources/Struct.sol\":797:811  user.age = age */\n      dup2\n      swap1\n      sstore\n      pop\n        /* \"exercices/ex09 - Structures/sources/Struct.sol\":693:818  function setAge(address account, uint age) public {... */\n      pop\n      pop\n      pop\n      jump\t// out\n        /* \"exercices/ex09 - Structures/sources/Struct.sol\":256:435  function addUser(uint age, address account, uint grade, bool isAlive, string memory username) public {... */\n    tag_31:\n        /* \"exercices/ex09 - Structures/sources/Struct.sol\":384:428  User(username, age, account, grade, isAlive) */\n      mload(0x40)\n      dup1\n      0xa0\n      add\n      0x40\n      mstore\n      dup1\n        /* \"exercices/ex09 - Structures/sources/Struct.sol\":389:397  username */\n      dup3\n        /* \"exercices/ex09 - Structures/sources/Struct.sol\":384:428  User(username, age, account, grade, isAlive) */\n      dup2\n      mstore\n      0x20\n      add\n        /* \"exercices/ex09 - Structures/sources/Struct.sol\":399:402  age */\n      dup7\n        /* \"exercices/ex09 - Structures/sources/Struct.sol\":384:428  User(username, age, account, grade, isAlive) */\n      dup2\n      mstore\n      0x20\n      add\n        /* \"exercices/ex09 - Structures/sources/Struct.sol\":404:411  account */\n      dup6\n        /* \"exercices/ex09 - Structures/sources/Struct.sol\":384:428  User(username, age, account, grade, isAlive) */\n      0xffffffffffffffffffffffffffffffffffffffff\n      and\n      dup2\n      mstore\n      0x20\n      add\n        /* \"exercices/ex09 - Structures/sources/Struct.sol\":413:418  grade */\n      dup5\n        /* \"exercices/ex09 - Structures/sources/Struct.sol\":384:428  User(username, age, account, grade, isAlive) */\n      dup2\n      mstore\n      0x20\n      add\n        /* \"exercices/ex09 - Structures/sources/Struct.sol\":420:427  isAlive */\n      dup4\n        /* \"exercices/ex09 - Structures/sources/Struct.sol\":384:428  User(username, age, account, grade, isAlive) */\n      iszero\n      iszero\n      dup2\n      mstore\n      pop\n        /* \"exercices/ex09 - Structures/sources/Struct.sol\":367:372  users */\n      0x00\n        /* \"exercices/ex09 - Structures/sources/Struct.sol\":367:381  users[account] */\n      dup1\n        /* \"exercices/ex09 - Structures/sources/Struct.sol\":373:380  account */\n      dup7\n        /* \"exercices/ex09 - Structures/sources/Struct.sol\":367:381  users[account] */\n      0xffffffffffffffffffffffffffffffffffffffff\n      and\n      0xffffffffffffffffffffffffffffffffffffffff\n      and\n      dup2\n      mstore\n      0x20\n      add\n      swap1\n      dup2\n      mstore\n      0x20\n      add\n      0x00\n      keccak256\n        /* \"exercices/ex09 - Structures/sources/Struct.sol\":367:428  users[account] = User(username, age, account, grade, isAlive) */\n      0x00\n      dup3\n      add\n      mload\n      dup2\n      0x00\n      add\n      swap1\n      dup1\n      mload\n      swap1\n      0x20\n      add\n      swap1\n      tag_42\n      swap3\n      swap2\n      swap1\n      tag_39\n      jump\t// in\n    tag_42:\n      pop\n      0x20\n      dup3\n      add\n      mload\n      dup2\n      0x01\n      add\n      sstore\n      0x40\n      dup3\n      add\n      mload\n      dup2\n      0x02\n      add\n      exp(0x0100, 0x00)\n      dup2\n      sload\n      dup2\n      0xffffffffffffffffffffffffffffffffffffffff\n      mul\n      not\n      and\n      swap1\n      dup4\n      0xffffffffffffffffffffffffffffffffffffffff\n      and\n      mul\n      or\n      swap1\n      sstore\n      pop\n      0x60\n      dup3\n      add\n      mload\n      dup2\n      0x03\n      add\n      sstore\n      0x80\n      dup3\n      add\n      mload\n      dup2\n      0x04\n      add\n      exp(0x0100, 0x00)\n      dup2\n      sload\n      dup2\n      0xff\n      mul\n      not\n      and\n      swap1\n      dup4\n      iszero\n      iszero\n      mul\n      or\n      swap1\n      sstore\n      pop\n      swap1\n      pop\n      pop\n        /* \"exercices/ex09 - Structures/sources/Struct.sol\":256:435  function addUser(uint age, address account, uint grade, bool isAlive, string memory username) public {... */\n      pop\n      pop\n      pop\n      pop\n      pop\n      jump\t// out\n    tag_35:\n      pop\n      dup1\n      sload\n      tag_43\n      swap1\n      tag_44\n      jump\t// in\n    tag_43:\n      0x00\n      dup3\n      sstore\n      dup1\n      0x1f\n      lt\n      tag_46\n      jumpi\n      pop\n      jump(tag_45)\n    tag_46:\n      0x1f\n      add\n      0x20\n      swap1\n      div\n      swap1\n      0x00\n      mstore\n      keccak256(0x00, 0x20)\n      swap1\n      dup2\n      add\n      swap1\n      tag_47\n      swap2\n      swap1\n      tag_48\n      jump\t// in\n    tag_47:\n    tag_45:\n      pop\n      jump\t// out\n    tag_39:\n      dup3\n      dup1\n      sload\n      tag_49\n      swap1\n      tag_44\n      jump\t// in\n    tag_49:\n      swap1\n      0x00\n      mstore\n      keccak256(0x00, 0x20)\n      swap1\n      0x1f\n      add\n      0x20\n      swap1\n      div\n      dup2\n      add\n      swap3\n      dup3\n      tag_51\n      jumpi\n      0x00\n      dup6\n      sstore\n      jump(tag_50)\n    tag_51:\n      dup3\n      0x1f\n      lt\n      tag_52\n      jumpi\n      dup1\n      mload\n      not(0xff)\n      and\n      dup4\n      dup1\n      add\n      or\n      dup6\n      sstore\n      jump(tag_50)\n    tag_52:\n      dup3\n      dup1\n      add\n      0x01\n      add\n      dup6\n      sstore\n      dup3\n      iszero\n      tag_50\n      jumpi\n      swap2\n      dup3\n      add\n    tag_53:\n      dup3\n      dup2\n      gt\n      iszero\n      tag_54\n      jumpi\n      dup3\n      mload\n      dup3\n      sstore\n      swap2\n      0x20\n      add\n      swap2\n      swap1\n      0x01\n      add\n      swap1\n      jump(tag_53)\n    tag_54:\n    tag_50:\n      pop\n      swap1\n      pop\n      tag_55\n      swap2\n      swap1\n      tag_48\n      jump\t// in\n    tag_55:\n      pop\n      swap1\n      jump\t// out\n    tag_48:\n    tag_56:\n      dup1\n      dup3\n      gt\n      iszero\n      tag_57\n      jumpi\n      0x00\n      dup2\n      0x00\n      swap1\n      sstore\n      pop\n      0x01\n      add\n      jump(tag_56)\n    tag_57:\n      pop\n      swap1\n      jump\t// out\n        /* \"#utility.yul\":7:352   */\n    tag_59:\n        /* \"#utility.yul\":85:90   */\n      0x00\n        /* \"#utility.yul\":110:176   */\n      tag_61\n        /* \"#utility.yul\":126:175   */\n      tag_62\n        /* \"#utility.yul\":168:174   */\n      dup5\n        /* \"#utility.yul\":126:175   */\n      tag_63\n      jump\t// in\n    tag_62:\n        /* \"#utility.yul\":110:176   */\n      tag_64\n      jump\t// in\n    tag_61:\n        /* \"#utility.yul\":101:176   */\n      swap1\n      pop\n        /* \"#utility.yul\":199:205   */\n      dup3\n        /* \"#utility.yul\":192:197   */\n      dup2\n        /* \"#utility.yul\":185:206   */\n      mstore\n        /* \"#utility.yul\":237:241   */\n      0x20\n        /* \"#utility.yul\":230:235   */\n      dup2\n        /* \"#utility.yul\":226:242   */\n      add\n        /* \"#utility.yul\":275:278   */\n      dup5\n        /* \"#utility.yul\":266:272   */\n      dup5\n        /* \"#utility.yul\":261:264   */\n      dup5\n        /* \"#utility.yul\":257:273   */\n      add\n        /* \"#utility.yul\":254:279   */\n      gt\n        /* \"#utility.yul\":251:253   */\n      iszero\n      tag_65\n      jumpi\n        /* \"#utility.yul\":292:293   */\n      0x00\n        /* \"#utility.yul\":289:290   */\n      dup1\n        /* \"#utility.yul\":282:294   */\n      revert\n        /* \"#utility.yul\":251:253   */\n    tag_65:\n        /* \"#utility.yul\":305:346   */\n      tag_66\n        /* \"#utility.yul\":339:345   */\n      dup5\n        /* \"#utility.yul\":334:337   */\n      dup3\n        /* \"#utility.yul\":329:332   */\n      dup6\n        /* \"#utility.yul\":305:346   */\n      tag_67\n      jump\t// in\n    tag_66:\n        /* \"#utility.yul\":91:352   */\n      pop\n      swap4\n      swap3\n      pop\n      pop\n      pop\n      jump\t// out\n        /* \"#utility.yul\":358:497   */\n    tag_68:\n        /* \"#utility.yul\":404:409   */\n      0x00\n        /* \"#utility.yul\":442:448   */\n      dup2\n        /* \"#utility.yul\":429:449   */\n      calldataload\n        /* \"#utility.yul\":420:449   */\n      swap1\n      pop\n        /* \"#utility.yul\":458:491   */\n      tag_70\n        /* \"#utility.yul\":485:490   */\n      dup2\n        /* \"#utility.yul\":458:491   */\n      tag_71\n      jump\t// in\n    tag_70:\n        /* \"#utility.yul\":410:497   */\n      swap3\n      swap2\n      pop\n      pop\n      jump\t// out\n        /* \"#utility.yul\":503:636   */\n    tag_72:\n        /* \"#utility.yul\":546:551   */\n      0x00\n        /* \"#utility.yul\":584:590   */\n      dup2\n        /* \"#utility.yul\":571:591   */\n      calldataload\n        /* \"#utility.yul\":562:591   */\n      swap1\n      pop\n        /* \"#utility.yul\":600:630   */\n      tag_74\n        /* \"#utility.yul\":624:629   */\n      dup2\n        /* \"#utility.yul\":600:630   */\n      tag_75\n      jump\t// in\n    tag_74:\n        /* \"#utility.yul\":552:636   */\n      swap3\n      swap2\n      pop\n      pop\n      jump\t// out\n        /* \"#utility.yul\":656:929   */\n    tag_76:\n        /* \"#utility.yul\":712:717   */\n      0x00\n        /* \"#utility.yul\":761:764   */\n      dup3\n        /* \"#utility.yul\":754:758   */\n      0x1f\n        /* \"#utility.yul\":746:752   */\n      dup4\n        /* \"#utility.yul\":742:759   */\n      add\n        /* \"#utility.yul\":738:765   */\n      slt\n        /* \"#utility.yul\":728:730   */\n      tag_78\n      jumpi\n        /* \"#utility.yul\":779:780   */\n      0x00\n        /* \"#utility.yul\":776:777   */\n      dup1\n        /* \"#utility.yul\":769:781   */\n      revert\n        /* \"#utility.yul\":728:730   */\n    tag_78:\n        /* \"#utility.yul\":819:825   */\n      dup2\n        /* \"#utility.yul\":806:826   */\n      calldataload\n        /* \"#utility.yul\":844:923   */\n      tag_79\n        /* \"#utility.yul\":919:922   */\n      dup5\n        /* \"#utility.yul\":911:917   */\n      dup3\n        /* \"#utility.yul\":904:908   */\n      0x20\n        /* \"#utility.yul\":896:902   */\n      dup7\n        /* \"#utility.yul\":892:909   */\n      add\n        /* \"#utility.yul\":844:923   */\n      tag_59\n      jump\t// in\n    tag_79:\n        /* \"#utility.yul\":835:923   */\n      swap2\n      pop\n        /* \"#utility.yul\":718:929   */\n      pop\n      swap3\n      swap2\n      pop\n      pop\n      jump\t// out\n        /* \"#utility.yul\":935:1074   */\n    tag_80:\n        /* \"#utility.yul\":981:986   */\n      0x00\n        /* \"#utility.yul\":1019:1025   */\n      dup2\n        /* \"#utility.yul\":1006:1026   */\n      calldataload\n        /* \"#utility.yul\":997:1026   */\n      swap1\n      pop\n        /* \"#utility.yul\":1035:1068   */\n      tag_82\n        /* \"#utility.yul\":1062:1067   */\n      dup2\n        /* \"#utility.yul\":1035:1068   */\n      tag_83\n      jump\t// in\n    tag_82:\n        /* \"#utility.yul\":987:1074   */\n      swap3\n      swap2\n      pop\n      pop\n      jump\t// out\n        /* \"#utility.yul\":1080:1342   */\n    tag_15:\n        /* \"#utility.yul\":1139:1145   */\n      0x00\n        /* \"#utility.yul\":1188:1190   */\n      0x20\n        /* \"#utility.yul\":1176:1185   */\n      dup3\n        /* \"#utility.yul\":1167:1174   */\n      dup5\n        /* \"#utility.yul\":1163:1186   */\n      sub\n        /* \"#utility.yul\":1159:1191   */\n      slt\n        /* \"#utility.yul\":1156:1158   */\n      iszero\n      tag_85\n      jumpi\n        /* \"#utility.yul\":1204:1205   */\n      0x00\n        /* \"#utility.yul\":1201:1202   */\n      dup1\n        /* \"#utility.yul\":1194:1206   */\n      revert\n        /* \"#utility.yul\":1156:1158   */\n    tag_85:\n        /* \"#utility.yul\":1247:1248   */\n      0x00\n        /* \"#utility.yul\":1272:1325   */\n      tag_86\n        /* \"#utility.yul\":1317:1324   */\n      dup5\n        /* \"#utility.yul\":1308:1314   */\n      dup3\n        /* \"#utility.yul\":1297:1306   */\n      dup6\n        /* \"#utility.yul\":1293:1315   */\n      add\n        /* \"#utility.yul\":1272:1325   */\n      tag_68\n      jump\t// in\n    tag_86:\n        /* \"#utility.yul\":1262:1325   */\n      swap2\n      pop\n        /* \"#utility.yul\":1218:1335   */\n      pop\n        /* \"#utility.yul\":1146:1342   */\n      swap3\n      swap2\n      pop\n      pop\n      jump\t// out\n        /* \"#utility.yul\":1348:1749   */\n    tag_19:\n        /* \"#utility.yul\":1413:1419   */\n      0x00\n        /* \"#utility.yul\":1421:1427   */\n      dup1\n        /* \"#utility.yul\":1470:1472   */\n      0x40\n        /* \"#utility.yul\":1458:1467   */\n      dup4\n        /* \"#utility.yul\":1449:1456   */\n      dup6\n        /* \"#utility.yul\":1445:1468   */\n      sub\n        /* \"#utility.yul\":1441:1473   */\n      slt\n        /* \"#utility.yul\":1438:1440   */\n      iszero\n      tag_88\n      jumpi\n        /* \"#utility.yul\":1486:1487   */\n      0x00\n        /* \"#utility.yul\":1483:1484   */\n      dup1\n        /* \"#utility.yul\":1476:1488   */\n      revert\n        /* \"#utility.yul\":1438:1440   */\n    tag_88:\n        /* \"#utility.yul\":1529:1530   */\n      0x00\n        /* \"#utility.yul\":1554:1607   */\n      tag_89\n        /* \"#utility.yul\":1599:1606   */\n      dup6\n        /* \"#utility.yul\":1590:1596   */\n      dup3\n        /* \"#utility.yul\":1579:1588   */\n      dup7\n        /* \"#utility.yul\":1575:1597   */\n      add\n        /* \"#utility.yul\":1554:1607   */\n      tag_68\n      jump\t// in\n    tag_89:\n        /* \"#utility.yul\":1544:1607   */\n      swap3\n      pop\n        /* \"#utility.yul\":1500:1617   */\n      pop\n        /* \"#utility.yul\":1656:1658   */\n      0x20\n        /* \"#utility.yul\":1682:1732   */\n      tag_90\n        /* \"#utility.yul\":1724:1731   */\n      dup6\n        /* \"#utility.yul\":1715:1721   */\n      dup3\n        /* \"#utility.yul\":1704:1713   */\n      dup7\n        /* \"#utility.yul\":1700:1722   */\n      add\n        /* \"#utility.yul\":1682:1732   */\n      tag_72\n      jump\t// in\n    tag_90:\n        /* \"#utility.yul\":1672:1732   */\n      swap2\n      pop\n        /* \"#utility.yul\":1627:1742   */\n      pop\n        /* \"#utility.yul\":1428:1749   */\n      swap3\n      pop\n      swap3\n      swap1\n      pop\n      jump\t// out\n        /* \"#utility.yul\":1755:2275   */\n    tag_23:\n        /* \"#utility.yul\":1833:1839   */\n      0x00\n        /* \"#utility.yul\":1841:1847   */\n      dup1\n        /* \"#utility.yul\":1890:1892   */\n      0x40\n        /* \"#utility.yul\":1878:1887   */\n      dup4\n        /* \"#utility.yul\":1869:1876   */\n      dup6\n        /* \"#utility.yul\":1865:1888   */\n      sub\n        /* \"#utility.yul\":1861:1893   */\n      slt\n        /* \"#utility.yul\":1858:1860   */\n      iszero\n      tag_92\n      jumpi\n        /* \"#utility.yul\":1906:1907   */\n      0x00\n        /* \"#utility.yul\":1903:1904   */\n      dup1\n        /* \"#utility.yul\":1896:1908   */\n      revert\n        /* \"#utility.yul\":1858:1860   */\n    tag_92:\n        /* \"#utility.yul\":1949:1950   */\n      0x00\n        /* \"#utility.yul\":1974:2027   */\n      tag_93\n        /* \"#utility.yul\":2019:2026   */\n      dup6\n        /* \"#utility.yul\":2010:2016   */\n      dup3\n        /* \"#utility.yul\":1999:2008   */\n      dup7\n        /* \"#utility.yul\":1995:2017   */\n      add\n        /* \"#utility.yul\":1974:2027   */\n      tag_68\n      jump\t// in\n    tag_93:\n        /* \"#utility.yul\":1964:2027   */\n      swap3\n      pop\n        /* \"#utility.yul\":1920:2037   */\n      pop\n        /* \"#utility.yul\":2104:2106   */\n      0x20\n        /* \"#utility.yul\":2093:2102   */\n      dup4\n        /* \"#utility.yul\":2089:2107   */\n      add\n        /* \"#utility.yul\":2076:2108   */\n      calldataload\n        /* \"#utility.yul\":2135:2153   */\n      0xffffffffffffffff\n        /* \"#utility.yul\":2127:2133   */\n      dup2\n        /* \"#utility.yul\":2124:2154   */\n      gt\n        /* \"#utility.yul\":2121:2123   */\n      iszero\n      tag_94\n      jumpi\n        /* \"#utility.yul\":2167:2168   */\n      0x00\n        /* \"#utility.yul\":2164:2165   */\n      dup1\n        /* \"#utility.yul\":2157:2169   */\n      revert\n        /* \"#utility.yul\":2121:2123   */\n    tag_94:\n        /* \"#utility.yul\":2195:2258   */\n      tag_95\n        /* \"#utility.yul\":2250:2257   */\n      dup6\n        /* \"#utility.yul\":2241:2247   */\n      dup3\n        /* \"#utility.yul\":2230:2239   */\n      dup7\n        /* \"#utility.yul\":2226:2248   */\n      add\n        /* \"#utility.yul\":2195:2258   */\n      tag_76\n      jump\t// in\n    tag_95:\n        /* \"#utility.yul\":2185:2258   */\n      swap2\n      pop\n        /* \"#utility.yul\":2047:2268   */\n      pop\n        /* \"#utility.yul\":1848:2275   */\n      swap3\n      pop\n      swap3\n      swap1\n      pop\n      jump\t// out\n        /* \"#utility.yul\":2281:2688   */\n    tag_11:\n        /* \"#utility.yul\":2349:2355   */\n      0x00\n        /* \"#utility.yul\":2357:2363   */\n      dup1\n        /* \"#utility.yul\":2406:2408   */\n      0x40\n        /* \"#utility.yul\":2394:2403   */\n      dup4\n        /* \"#utility.yul\":2385:2392   */\n      dup6\n        /* \"#utility.yul\":2381:2404   */\n      sub\n        /* \"#utility.yul\":2377:2409   */\n      slt\n        /* \"#utility.yul\":2374:2376   */\n      iszero\n      tag_97\n      jumpi\n        /* \"#utility.yul\":2422:2423   */\n      0x00\n        /* \"#utility.yul\":2419:2420   */\n      dup1\n        /* \"#utility.yul\":2412:2424   */\n      revert\n        /* \"#utility.yul\":2374:2376   */\n    tag_97:\n        /* \"#utility.yul\":2465:2466   */\n      0x00\n        /* \"#utility.yul\":2490:2543   */\n      tag_98\n        /* \"#utility.yul\":2535:2542   */\n      dup6\n        /* \"#utility.yul\":2526:2532   */\n      dup3\n        /* \"#utility.yul\":2515:2524   */\n      dup7\n        /* \"#utility.yul\":2511:2533   */\n      add\n        /* \"#utility.yul\":2490:2543   */\n      tag_68\n      jump\t// in\n    tag_98:\n        /* \"#utility.yul\":2480:2543   */\n      swap3\n      pop\n        /* \"#utility.yul\":2436:2553   */\n      pop\n        /* \"#utility.yul\":2592:2594   */\n      0x20\n        /* \"#utility.yul\":2618:2671   */\n      tag_99\n        /* \"#utility.yul\":2663:2670   */\n      dup6\n        /* \"#utility.yul\":2654:2660   */\n      dup3\n        /* \"#utility.yul\":2643:2652   */\n      dup7\n        /* \"#utility.yul\":2639:2661   */\n      add\n        /* \"#utility.yul\":2618:2671   */\n      tag_80\n      jump\t// in\n    tag_99:\n        /* \"#utility.yul\":2608:2671   */\n      swap2\n      pop\n        /* \"#utility.yul\":2563:2681   */\n      pop\n        /* \"#utility.yul\":2364:2688   */\n      swap3\n      pop\n      swap3\n      swap1\n      pop\n      jump\t// out\n        /* \"#utility.yul\":2694:3645   */\n    tag_30:\n        /* \"#utility.yul\":2796:2802   */\n      0x00\n        /* \"#utility.yul\":2804:2810   */\n      dup1\n        /* \"#utility.yul\":2812:2818   */\n      0x00\n        /* \"#utility.yul\":2820:2826   */\n      dup1\n        /* \"#utility.yul\":2828:2834   */\n      0x00\n        /* \"#utility.yul\":2877:2880   */\n      0xa0\n        /* \"#utility.yul\":2865:2874   */\n      dup7\n        /* \"#utility.yul\":2856:2863   */\n      dup9\n        /* \"#utility.yul\":2852:2875   */\n      sub\n        /* \"#utility.yul\":2848:2881   */\n      slt\n        /* \"#utility.yul\":2845:2847   */\n      iszero\n      tag_101\n      jumpi\n        /* \"#utility.yul\":2894:2895   */\n      0x00\n        /* \"#utility.yul\":2891:2892   */\n      dup1\n        /* \"#utility.yul\":2884:2896   */\n      revert\n        /* \"#utility.yul\":2845:2847   */\n    tag_101:\n        /* \"#utility.yul\":2937:2938   */\n      0x00\n        /* \"#utility.yul\":2962:3015   */\n      tag_102\n        /* \"#utility.yul\":3007:3014   */\n      dup9\n        /* \"#utility.yul\":2998:3004   */\n      dup3\n        /* \"#utility.yul\":2987:2996   */\n      dup10\n        /* \"#utility.yul\":2983:3005   */\n      add\n        /* \"#utility.yul\":2962:3015   */\n      tag_80\n      jump\t// in\n    tag_102:\n        /* \"#utility.yul\":2952:3015   */\n      swap6\n      pop\n        /* \"#utility.yul\":2908:3025   */\n      pop\n        /* \"#utility.yul\":3064:3066   */\n      0x20\n        /* \"#utility.yul\":3090:3143   */\n      tag_103\n        /* \"#utility.yul\":3135:3142   */\n      dup9\n        /* \"#utility.yul\":3126:3132   */\n      dup3\n        /* \"#utility.yul\":3115:3124   */\n      dup10\n        /* \"#utility.yul\":3111:3133   */\n      add\n        /* \"#utility.yul\":3090:3143   */\n      tag_68\n      jump\t// in\n    tag_103:\n        /* \"#utility.yul\":3080:3143   */\n      swap5\n      pop\n        /* \"#utility.yul\":3035:3153   */\n      pop\n        /* \"#utility.yul\":3192:3194   */\n      0x40\n        /* \"#utility.yul\":3218:3271   */\n      tag_104\n        /* \"#utility.yul\":3263:3270   */\n      dup9\n        /* \"#utility.yul\":3254:3260   */\n      dup3\n        /* \"#utility.yul\":3243:3252   */\n      dup10\n        /* \"#utility.yul\":3239:3261   */\n      add\n        /* \"#utility.yul\":3218:3271   */\n      tag_80\n      jump\t// in\n    tag_104:\n        /* \"#utility.yul\":3208:3271   */\n      swap4\n      pop\n        /* \"#utility.yul\":3163:3281   */\n      pop\n        /* \"#utility.yul\":3320:3322   */\n      0x60\n        /* \"#utility.yul\":3346:3396   */\n      tag_105\n        /* \"#utility.yul\":3388:3395   */\n      dup9\n        /* \"#utility.yul\":3379:3385   */\n      dup3\n        /* \"#utility.yul\":3368:3377   */\n      dup10\n        /* \"#utility.yul\":3364:3386   */\n      add\n        /* \"#utility.yul\":3346:3396   */\n      tag_72\n      jump\t// in\n    tag_105:\n        /* \"#utility.yul\":3336:3396   */\n      swap3\n      pop\n        /* \"#utility.yul\":3291:3406   */\n      pop\n        /* \"#utility.yul\":3473:3476   */\n      0x80\n        /* \"#utility.yul\":3462:3471   */\n      dup7\n        /* \"#utility.yul\":3458:3477   */\n      add\n        /* \"#utility.yul\":3445:3478   */\n      calldataload\n        /* \"#utility.yul\":3505:3523   */\n      0xffffffffffffffff\n        /* \"#utility.yul\":3497:3503   */\n      dup2\n        /* \"#utility.yul\":3494:3524   */\n      gt\n        /* \"#utility.yul\":3491:3493   */\n      iszero\n      tag_106\n      jumpi\n        /* \"#utility.yul\":3537:3538   */\n      0x00\n        /* \"#utility.yul\":3534:3535   */\n      dup1\n        /* \"#utility.yul\":3527:3539   */\n      revert\n        /* \"#utility.yul\":3491:3493   */\n    tag_106:\n        /* \"#utility.yul\":3565:3628   */\n      tag_107\n        /* \"#utility.yul\":3620:3627   */\n      dup9\n        /* \"#utility.yul\":3611:3617   */\n      dup3\n        /* \"#utility.yul\":3600:3609   */\n      dup10\n        /* \"#utility.yul\":3596:3618   */\n      add\n        /* \"#utility.yul\":3565:3628   */\n      tag_76\n      jump\t// in\n    tag_107:\n        /* \"#utility.yul\":3555:3628   */\n      swap2\n      pop\n        /* \"#utility.yul\":3416:3638   */\n      pop\n        /* \"#utility.yul\":2835:3645   */\n      swap3\n      swap6\n      pop\n      swap3\n      swap6\n      swap1\n      swap4\n      pop\n      jump\t// out\n        /* \"#utility.yul\":3651:3780   */\n    tag_64:\n        /* \"#utility.yul\":3685:3691   */\n      0x00\n        /* \"#utility.yul\":3712:3732   */\n      tag_109\n      tag_110\n      jump\t// in\n    tag_109:\n        /* \"#utility.yul\":3702:3732   */\n      swap1\n      pop\n        /* \"#utility.yul\":3741:3774   */\n      tag_111\n        /* \"#utility.yul\":3769:3773   */\n      dup3\n        /* \"#utility.yul\":3761:3767   */\n      dup3\n        /* \"#utility.yul\":3741:3774   */\n      tag_112\n      jump\t// in\n    tag_111:\n        /* \"#utility.yul\":3692:3780   */\n      swap2\n      swap1\n      pop\n      jump\t// out\n        /* \"#utility.yul\":3786:3861   */\n    tag_110:\n        /* \"#utility.yul\":3819:3825   */\n      0x00\n        /* \"#utility.yul\":3852:3854   */\n      0x40\n        /* \"#utility.yul\":3846:3855   */\n      mload\n        /* \"#utility.yul\":3836:3855   */\n      swap1\n      pop\n        /* \"#utility.yul\":3826:3861   */\n      swap1\n      jump\t// out\n        /* \"#utility.yul\":3867:4175   */\n    tag_63:\n        /* \"#utility.yul\":3929:3933   */\n      0x00\n        /* \"#utility.yul\":4019:4037   */\n      0xffffffffffffffff\n        /* \"#utility.yul\":4011:4017   */\n      dup3\n        /* \"#utility.yul\":4008:4038   */\n      gt\n        /* \"#utility.yul\":4005:4007   */\n      iszero\n      tag_115\n      jumpi\n        /* \"#utility.yul\":4041:4059   */\n      tag_116\n      tag_117\n      jump\t// in\n    tag_116:\n        /* \"#utility.yul\":4005:4007   */\n    tag_115:\n        /* \"#utility.yul\":4079:4108   */\n      tag_118\n        /* \"#utility.yul\":4101:4107   */\n      dup3\n        /* \"#utility.yul\":4079:4108   */\n      tag_119\n      jump\t// in\n    tag_118:\n        /* \"#utility.yul\":4071:4108   */\n      swap1\n      pop\n        /* \"#utility.yul\":4163:4167   */\n      0x20\n        /* \"#utility.yul\":4157:4161   */\n      dup2\n        /* \"#utility.yul\":4153:4168   */\n      add\n        /* \"#utility.yul\":4145:4168   */\n      swap1\n      pop\n        /* \"#utility.yul\":3934:4175   */\n      swap2\n      swap1\n      pop\n      jump\t// out\n        /* \"#utility.yul\":4181:4277   */\n    tag_120:\n        /* \"#utility.yul\":4218:4225   */\n      0x00\n        /* \"#utility.yul\":4247:4271   */\n      tag_122\n        /* \"#utility.yul\":4265:4270   */\n      dup3\n        /* \"#utility.yul\":4247:4271   */\n      tag_123\n      jump\t// in\n    tag_122:\n        /* \"#utility.yul\":4236:4271   */\n      swap1\n      pop\n        /* \"#utility.yul\":4226:4277   */\n      swap2\n      swap1\n      pop\n      jump\t// out\n        /* \"#utility.yul\":4283:4373   */\n    tag_124:\n        /* \"#utility.yul\":4317:4324   */\n      0x00\n        /* \"#utility.yul\":4360:4365   */\n      dup2\n        /* \"#utility.yul\":4353:4366   */\n      iszero\n        /* \"#utility.yul\":4346:4367   */\n      iszero\n        /* \"#utility.yul\":4335:4367   */\n      swap1\n      pop\n        /* \"#utility.yul\":4325:4373   */\n      swap2\n      swap1\n      pop\n      jump\t// out\n        /* \"#utility.yul\":4379:4505   */\n    tag_123:\n        /* \"#utility.yul\":4416:4423   */\n      0x00\n        /* \"#utility.yul\":4456:4498   */\n      0xffffffffffffffffffffffffffffffffffffffff\n        /* \"#utility.yul\":4449:4454   */\n      dup3\n        /* \"#utility.yul\":4445:4499   */\n      and\n        /* \"#utility.yul\":4434:4499   */\n      swap1\n      pop\n        /* \"#utility.yul\":4424:4505   */\n      swap2\n      swap1\n      pop\n      jump\t// out\n        /* \"#utility.yul\":4511:4588   */\n    tag_127:\n        /* \"#utility.yul\":4548:4555   */\n      0x00\n        /* \"#utility.yul\":4577:4582   */\n      dup2\n        /* \"#utility.yul\":4566:4582   */\n      swap1\n      pop\n        /* \"#utility.yul\":4556:4588   */\n      swap2\n      swap1\n      pop\n      jump\t// out\n        /* \"#utility.yul\":4594:4748   */\n    tag_67:\n        /* \"#utility.yul\":4678:4684   */\n      dup3\n        /* \"#utility.yul\":4673:4676   */\n      dup2\n        /* \"#utility.yul\":4668:4671   */\n      dup4\n        /* \"#utility.yul\":4655:4685   */\n      calldatacopy\n        /* \"#utility.yul\":4740:4741   */\n      0x00\n        /* \"#utility.yul\":4731:4737   */\n      dup4\n        /* \"#utility.yul\":4726:4729   */\n      dup4\n        /* \"#utility.yul\":4722:4738   */\n      add\n        /* \"#utility.yul\":4715:4742   */\n      mstore\n        /* \"#utility.yul\":4645:4748   */\n      pop\n      pop\n      pop\n      jump\t// out\n        /* \"#utility.yul\":4754:5074   */\n    tag_44:\n        /* \"#utility.yul\":4798:4804   */\n      0x00\n        /* \"#utility.yul\":4835:4836   */\n      0x02\n        /* \"#utility.yul\":4829:4833   */\n      dup3\n        /* \"#utility.yul\":4825:4837   */\n      div\n        /* \"#utility.yul\":4815:4837   */\n      swap1\n      pop\n        /* \"#utility.yul\":4882:4883   */\n      0x01\n        /* \"#utility.yul\":4876:4880   */\n      dup3\n        /* \"#utility.yul\":4872:4884   */\n      and\n        /* \"#utility.yul\":4903:4921   */\n      dup1\n        /* \"#utility.yul\":4893:4895   */\n      tag_131\n      jumpi\n        /* \"#utility.yul\":4959:4963   */\n      0x7f\n        /* \"#utility.yul\":4951:4957   */\n      dup3\n        /* \"#utility.yul\":4947:4964   */\n      and\n        /* \"#utility.yul\":4937:4964   */\n      swap2\n      pop\n        /* \"#utility.yul\":4893:4895   */\n    tag_131:\n        /* \"#utility.yul\":5021:5023   */\n      0x20\n        /* \"#utility.yul\":5013:5019   */\n      dup3\n        /* \"#utility.yul\":5010:5024   */\n      lt\n        /* \"#utility.yul\":4990:5008   */\n      dup2\n        /* \"#utility.yul\":4987:5025   */\n      eq\n        /* \"#utility.yul\":4984:4986   */\n      iszero\n      tag_132\n      jumpi\n        /* \"#utility.yul\":5040:5058   */\n      tag_133\n      tag_134\n      jump\t// in\n    tag_133:\n        /* \"#utility.yul\":4984:4986   */\n    tag_132:\n        /* \"#utility.yul\":4805:5074   */\n      pop\n      swap2\n      swap1\n      pop\n      jump\t// out\n        /* \"#utility.yul\":5080:5361   */\n    tag_112:\n        /* \"#utility.yul\":5163:5190   */\n      tag_136\n        /* \"#utility.yul\":5185:5189   */\n      dup3\n        /* \"#utility.yul\":5163:5190   */\n      tag_119\n      jump\t// in\n    tag_136:\n        /* \"#utility.yul\":5155:5161   */\n      dup2\n        /* \"#utility.yul\":5151:5191   */\n      add\n        /* \"#utility.yul\":5293:5299   */\n      dup2\n        /* \"#utility.yul\":5281:5291   */\n      dup2\n        /* \"#utility.yul\":5278:5300   */\n      lt\n        /* \"#utility.yul\":5257:5275   */\n      0xffffffffffffffff\n        /* \"#utility.yul\":5245:5255   */\n      dup3\n        /* \"#utility.yul\":5242:5276   */\n      gt\n        /* \"#utility.yul\":5239:5301   */\n      or\n        /* \"#utility.yul\":5236:5238   */\n      iszero\n      tag_137\n      jumpi\n        /* \"#utility.yul\":5304:5322   */\n      tag_138\n      tag_117\n      jump\t// in\n    tag_138:\n        /* \"#utility.yul\":5236:5238   */\n    tag_137:\n        /* \"#utility.yul\":5344:5354   */\n      dup1\n        /* \"#utility.yul\":5340:5342   */\n      0x40\n        /* \"#utility.yul\":5333:5355   */\n      mstore\n        /* \"#utility.yul\":5123:5361   */\n      pop\n      pop\n      pop\n      jump\t// out\n        /* \"#utility.yul\":5367:5547   */\n    tag_134:\n        /* \"#utility.yul\":5415:5492   */\n      0x4e487b7100000000000000000000000000000000000000000000000000000000\n        /* \"#utility.yul\":5412:5413   */\n      0x00\n        /* \"#utility.yul\":5405:5493   */\n      mstore\n        /* \"#utility.yul\":5512:5516   */\n      0x22\n        /* \"#utility.yul\":5509:5510   */\n      0x04\n        /* \"#utility.yul\":5502:5517   */\n      mstore\n        /* \"#utility.yul\":5536:5540   */\n      0x24\n        /* \"#utility.yul\":5533:5534   */\n      0x00\n        /* \"#utility.yul\":5526:5541   */\n      revert\n        /* \"#utility.yul\":5553:5733   */\n    tag_117:\n        /* \"#utility.yul\":5601:5678   */\n      0x4e487b7100000000000000000000000000000000000000000000000000000000\n        /* \"#utility.yul\":5598:5599   */\n      0x00\n        /* \"#utility.yul\":5591:5679   */\n      mstore\n        /* \"#utility.yul\":5698:5702   */\n      0x41\n        /* \"#utility.yul\":5695:5696   */\n      0x04\n        /* \"#utility.yul\":5688:5703   */\n      mstore\n        /* \"#utility.yul\":5722:5726   */\n      0x24\n        /* \"#utility.yul\":5719:5720   */\n      0x00\n        /* \"#utility.yul\":5712:5727   */\n      revert\n        /* \"#utility.yul\":5739:5841   */\n    tag_119:\n        /* \"#utility.yul\":5780:5786   */\n      0x00\n        /* \"#utility.yul\":5831:5833   */\n      0x1f\n        /* \"#utility.yul\":5827:5834   */\n      not\n        /* \"#utility.yul\":5822:5824   */\n      0x1f\n        /* \"#utility.yul\":5815:5820   */\n      dup4\n        /* \"#utility.yul\":5811:5825   */\n      add\n        /* \"#utility.yul\":5807:5835   */\n      and\n        /* \"#utility.yul\":5797:5835   */\n      swap1\n      pop\n        /* \"#utility.yul\":5787:5841   */\n      swap2\n      swap1\n      pop\n      jump\t// out\n        /* \"#utility.yul\":5847:5969   */\n    tag_71:\n        /* \"#utility.yul\":5920:5944   */\n      tag_143\n        /* \"#utility.yul\":5938:5943   */\n      dup2\n        /* \"#utility.yul\":5920:5944   */\n      tag_120\n      jump\t// in\n    tag_143:\n        /* \"#utility.yul\":5913:5918   */\n      dup2\n        /* \"#utility.yul\":5910:5945   */\n      eq\n        /* \"#utility.yul\":5900:5902   */\n      tag_144\n      jumpi\n        /* \"#utility.yul\":5959:5960   */\n      0x00\n        /* \"#utility.yul\":5956:5957   */\n      dup1\n        /* \"#utility.yul\":5949:5961   */\n      revert\n        /* \"#utility.yul\":5900:5902   */\n    tag_144:\n        /* \"#utility.yul\":5890:5969   */\n      pop\n      jump\t// out\n        /* \"#utility.yul\":5975:6091   */\n    tag_75:\n        /* \"#utility.yul\":6045:6066   */\n      tag_146\n        /* \"#utility.yul\":6060:6065   */\n      dup2\n        /* \"#utility.yul\":6045:6066   */\n      tag_124\n      jump\t// in\n    tag_146:\n        /* \"#utility.yul\":6038:6043   */\n      dup2\n        /* \"#utility.yul\":6035:6067   */\n      eq\n        /* \"#utility.yul\":6025:6027   */\n      tag_147\n      jumpi\n        /* \"#utility.yul\":6081:6082   */\n      0x00\n        /* \"#utility.yul\":6078:6079   */\n      dup1\n        /* \"#utility.yul\":6071:6083   */\n      revert\n        /* \"#utility.yul\":6025:6027   */\n    tag_147:\n        /* \"#utility.yul\":6015:6091   */\n      pop\n      jump\t// out\n        /* \"#utility.yul\":6097:6219   */\n    tag_83:\n        /* \"#utility.yul\":6170:6194   */\n      tag_149\n        /* \"#utility.yul\":6188:6193   */\n      dup2\n        /* \"#utility.yul\":6170:6194   */\n      tag_127\n      jump\t// in\n    tag_149:\n        /* \"#utility.yul\":6163:6168   */\n      dup2\n        /* \"#utility.yul\":6160:6195   */\n      eq\n        /* \"#utility.yul\":6150:6152   */\n      tag_150\n      jumpi\n        /* \"#utility.yul\":6209:6210   */\n      0x00\n        /* \"#utility.yul\":6206:6207   */\n      dup1\n        /* \"#utility.yul\":6199:6211   */\n      revert\n        /* \"#utility.yul\":6150:6152   */\n    tag_150:\n        /* \"#utility.yul\":6140:6219   */\n      pop\n      jump\t// out\n\n    auxdata: 0xa2646970667358221220b7d12a0f155ba441b57a4298b71db9467004785133dc9dbdc9927c76c3b6837664736f6c63430008040033\n}\n",
				"bytecode": {
					"linkReferences": {},
					"object": "608060405234801561001057600080fd5b50610938806100206000396000f3fe608060405234801561001057600080fd5b50600436106100625760003560e01c806347c7faca146100675780639857518814610083578063c1f3d39d1461009f578063e2045452146100bb578063eab94b20146100d7578063f0b50e80146100f3575b600080fd5b610081600480360381019061007c9190610673565b61010f565b005b61009d600480360381019061009891906105ba565b61015f565b005b6100b960048036038101906100b491906105e3565b6101fe565b005b6100d560048036038101906100d0919061061f565b610261565b005b6100f160048036038101906100ec9190610673565b6102c1565b005b61010d600480360381019061010891906106af565b610311565b005b60008060008473ffffffffffffffffffffffffffffffffffffffff1673ffffffffffffffffffffffffffffffffffffffff1681526020019081526020016000209050818160030181905550505050565b6000808273ffffffffffffffffffffffffffffffffffffffff1673ffffffffffffffffffffffffffffffffffffffff168152602001908152602001600020600080820160006101ae9190610430565b60018201600090556002820160006101000a81549073ffffffffffffffffffffffffffffffffffffffff021916905560038201600090556004820160006101000a81549060ff0219169055505050565b60008060008473ffffffffffffffffffffffffffffffffffffffff1673ffffffffffffffffffffffffffffffffffffffff1681526020019081526020016000209050818160040160006101000a81548160ff021916908315150217905550505050565b60008060008473ffffffffffffffffffffffffffffffffffffffff1673ffffffffffffffffffffffffffffffffffffffff1681526020019081526020016000209050818160000190805190602001906102bb929190610470565b50505050565b60008060008473ffffffffffffffffffffffffffffffffffffffff1673ffffffffffffffffffffffffffffffffffffffff1681526020019081526020016000209050818160010181905550505050565b6040518060a001604052808281526020018681526020018573ffffffffffffffffffffffffffffffffffffffff1681526020018481526020018315158152506000808673ffffffffffffffffffffffffffffffffffffffff1673ffffffffffffffffffffffffffffffffffffffff16815260200190815260200160002060008201518160000190805190602001906103aa929190610470565b506020820151816001015560408201518160020160006101000a81548173ffffffffffffffffffffffffffffffffffffffff021916908373ffffffffffffffffffffffffffffffffffffffff1602179055506060820151816003015560808201518160040160006101000a81548160ff0219169083151502179055509050505050505050565b50805461043c906107eb565b6000825580601f1061044e575061046d565b601f01602090049060005260206000209081019061046c91906104f6565b5b50565b82805461047c906107eb565b90600052602060002090601f01602090048101928261049e57600085556104e5565b82601f106104b757805160ff19168380011785556104e5565b828001600101855582156104e5579182015b828111156104e45782518255916020019190600101906104c9565b5b5090506104f291906104f6565b5090565b5b8082111561050f5760008160009055506001016104f7565b5090565b600061052661052184610763565b61073e565b90508281526020810184848401111561053e57600080fd5b6105498482856107dc565b509392505050565b600081359050610560816108bd565b92915050565b600081359050610575816108d4565b92915050565b600082601f83011261058c57600080fd5b813561059c848260208601610513565b91505092915050565b6000813590506105b4816108eb565b92915050565b6000602082840312156105cc57600080fd5b60006105da84828501610551565b91505092915050565b600080604083850312156105f657600080fd5b600061060485828601610551565b925050602061061585828601610566565b9150509250929050565b6000806040838503121561063257600080fd5b600061064085828601610551565b925050602083013567ffffffffffffffff81111561065d57600080fd5b6106698582860161057b565b9150509250929050565b6000806040838503121561068657600080fd5b600061069485828601610551565b92505060206106a5858286016105a5565b9150509250929050565b600080600080600060a086880312156106c757600080fd5b60006106d5888289016105a5565b95505060206106e688828901610551565b94505060406106f7888289016105a5565b935050606061070888828901610566565b925050608086013567ffffffffffffffff81111561072557600080fd5b6107318882890161057b565b9150509295509295909350565b6000610748610759565b9050610754828261081d565b919050565b6000604051905090565b600067ffffffffffffffff82111561077e5761077d61087d565b5b610787826108ac565b9050602081019050919050565b600061079f826107b2565b9050919050565b60008115159050919050565b600073ffffffffffffffffffffffffffffffffffffffff82169050919050565b6000819050919050565b82818337600083830152505050565b6000600282049050600182168061080357607f821691505b602082108114156108175761081661084e565b5b50919050565b610826826108ac565b810181811067ffffffffffffffff821117156108455761084461087d565b5b80604052505050565b7f4e487b7100000000000000000000000000000000000000000000000000000000600052602260045260246000fd5b7f4e487b7100000000000000000000000000000000000000000000000000000000600052604160045260246000fd5b6000601f19601f8301169050919050565b6108c681610794565b81146108d157600080fd5b50565b6108dd816107a6565b81146108e857600080fd5b50565b6108f4816107d2565b81146108ff57600080fd5b5056fea2646970667358221220b7d12a0f155ba441b57a4298b71db9467004785133dc9dbdc9927c76c3b6837664736f6c63430008040033",
					"opcodes": "PUSH1 0x80 PUSH1 0x40 MSTORE CALLVALUE DUP1 ISZERO PUSH2 0x10 JUMPI PUSH1 0x0 DUP1 REVERT JUMPDEST POP PUSH2 0x938 DUP1 PUSH2 0x20 PUSH1 0x0 CODECOPY PUSH1 0x0 RETURN INVALID PUSH1 0x80 PUSH1 0x40 MSTORE CALLVALUE DUP1 ISZERO PUSH2 0x10 JUMPI PUSH1 0x0 DUP1 REVERT JUMPDEST POP PUSH1 0x4 CALLDATASIZE LT PUSH2 0x62 JUMPI PUSH1 0x0 CALLDATALOAD PUSH1 0xE0 SHR DUP1 PUSH4 0x47C7FACA EQ PUSH2 0x67 JUMPI DUP1 PUSH4 0x98575188 EQ PUSH2 0x83 JUMPI DUP1 PUSH4 0xC1F3D39D EQ PUSH2 0x9F JUMPI DUP1 PUSH4 0xE2045452 EQ PUSH2 0xBB JUMPI DUP1 PUSH4 0xEAB94B20 EQ PUSH2 0xD7 JUMPI DUP1 PUSH4 0xF0B50E80 EQ PUSH2 0xF3 JUMPI JUMPDEST PUSH1 0x0 DUP1 REVERT JUMPDEST PUSH2 0x81 PUSH1 0x4 DUP1 CALLDATASIZE SUB DUP2 ADD SWAP1 PUSH2 0x7C SWAP2 SWAP1 PUSH2 0x673 JUMP JUMPDEST PUSH2 0x10F JUMP JUMPDEST STOP JUMPDEST PUSH2 0x9D PUSH1 0x4 DUP1 CALLDATASIZE SUB DUP2 ADD SWAP1 PUSH2 0x98 SWAP2 SWAP1 PUSH2 0x5BA JUMP JUMPDEST PUSH2 0x15F JUMP JUMPDEST STOP JUMPDEST PUSH2 0xB9 PUSH1 0x4 DUP1 CALLDATASIZE SUB DUP2 ADD SWAP1 PUSH2 0xB4 SWAP2 SWAP1 PUSH2 0x5E3 JUMP JUMPDEST PUSH2 0x1FE JUMP JUMPDEST STOP JUMPDEST PUSH2 0xD5 PUSH1 0x4 DUP1 CALLDATASIZE SUB DUP2 ADD SWAP1 PUSH2 0xD0 SWAP2 SWAP1 PUSH2 0x61F JUMP JUMPDEST PUSH2 0x261 JUMP JUMPDEST STOP JUMPDEST PUSH2 0xF1 PUSH1 0x4 DUP1 CALLDATASIZE SUB DUP2 ADD SWAP1 PUSH2 0xEC SWAP2 SWAP1 PUSH2 0x673 JUMP JUMPDEST PUSH2 0x2C1 JUMP JUMPDEST STOP JUMPDEST PUSH2 0x10D PUSH1 0x4 DUP1 CALLDATASIZE SUB DUP2 ADD SWAP1 PUSH2 0x108 SWAP2 SWAP1 PUSH2 0x6AF JUMP JUMPDEST PUSH2 0x311 JUMP JUMPDEST STOP JUMPDEST PUSH1 0x0 DUP1 PUSH1 0x0 DUP5 PUSH20 0xFFFFFFFFFFFFFFFFFFFFFFFFFFFFFFFFFFFFFFFF AND PUSH20 0xFFFFFFFFFFFFFFFFFFFFFFFFFFFFFFFFFFFFFFFF AND DUP2 MSTORE PUSH1 0x20 ADD SWAP1 DUP2 MSTORE PUSH1 0x20 ADD PUSH1 0x0 KECCAK256 SWAP1 POP DUP2 DUP2 PUSH1 0x3 ADD DUP2 SWAP1 SSTORE POP POP POP POP JUMP JUMPDEST PUSH1 0x0 DUP1 DUP3 PUSH20 0xFFFFFFFFFFFFFFFFFFFFFFFFFFFFFFFFFFFFFFFF AND PUSH20 0xFFFFFFFFFFFFFFFFFFFFFFFFFFFFFFFFFFFFFFFF AND DUP2 MSTORE PUSH1 0x20 ADD SWAP1 DUP2 MSTORE PUSH1 0x20 ADD PUSH1 0x0 KECCAK256 PUSH1 0x0 DUP1 DUP3 ADD PUSH1 0x0 PUSH2 0x1AE SWAP2 SWAP1 PUSH2 0x430 JUMP JUMPDEST PUSH1 0x1 DUP3 ADD PUSH1 0x0 SWAP1 SSTORE PUSH1 0x2 DUP3 ADD PUSH1 0x0 PUSH2 0x100 EXP DUP2 SLOAD SWAP1 PUSH20 0xFFFFFFFFFFFFFFFFFFFFFFFFFFFFFFFFFFFFFFFF MUL NOT AND SWAP1 SSTORE PUSH1 0x3 DUP3 ADD PUSH1 0x0 SWAP1 SSTORE PUSH1 0x4 DUP3 ADD PUSH1 0x0 PUSH2 0x100 EXP DUP2 SLOAD SWAP1 PUSH1 0xFF MUL NOT AND SWAP1 SSTORE POP POP POP JUMP JUMPDEST PUSH1 0x0 DUP1 PUSH1 0x0 DUP5 PUSH20 0xFFFFFFFFFFFFFFFFFFFFFFFFFFFFFFFFFFFFFFFF AND PUSH20 0xFFFFFFFFFFFFFFFFFFFFFFFFFFFFFFFFFFFFFFFF AND DUP2 MSTORE PUSH1 0x20 ADD SWAP1 DUP2 MSTORE PUSH1 0x20 ADD PUSH1 0x0 KECCAK256 SWAP1 POP DUP2 DUP2 PUSH1 0x4 ADD PUSH1 0x0 PUSH2 0x100 EXP DUP2 SLOAD DUP2 PUSH1 0xFF MUL NOT AND SWAP1 DUP4 ISZERO ISZERO MUL OR SWAP1 SSTORE POP POP POP POP JUMP JUMPDEST PUSH1 0x0 DUP1 PUSH1 0x0 DUP5 PUSH20 0xFFFFFFFFFFFFFFFFFFFFFFFFFFFFFFFFFFFFFFFF AND PUSH20 0xFFFFFFFFFFFFFFFFFFFFFFFFFFFFFFFFFFFFFFFF AND DUP2 MSTORE PUSH1 0x20 ADD SWAP1 DUP2 MSTORE PUSH1 0x20 ADD PUSH1 0x0 KECCAK256 SWAP1 POP DUP2 DUP2 PUSH1 0x0 ADD SWAP1 DUP1 MLOAD SWAP1 PUSH1 0x20 ADD SWAP1 PUSH2 0x2BB SWAP3 SWAP2 SWAP1 PUSH2 0x470 JUMP JUMPDEST POP POP POP POP JUMP JUMPDEST PUSH1 0x0 DUP1 PUSH1 0x0 DUP5 PUSH20 0xFFFFFFFFFFFFFFFFFFFFFFFFFFFFFFFFFFFFFFFF AND PUSH20 0xFFFFFFFFFFFFFFFFFFFFFFFFFFFFFFFFFFFFFFFF AND DUP2 MSTORE PUSH1 0x20 ADD SWAP1 DUP2 MSTORE PUSH1 0x20 ADD PUSH1 0x0 KECCAK256 SWAP1 POP DUP2 DUP2 PUSH1 0x1 ADD DUP2 SWAP1 SSTORE POP POP POP POP JUMP JUMPDEST PUSH1 0x40 MLOAD DUP1 PUSH1 0xA0 ADD PUSH1 0x40 MSTORE DUP1 DUP3 DUP2 MSTORE PUSH1 0x20 ADD DUP7 DUP2 MSTORE PUSH1 0x20 ADD DUP6 PUSH20 0xFFFFFFFFFFFFFFFFFFFFFFFFFFFFFFFFFFFFFFFF AND DUP2 MSTORE PUSH1 0x20 ADD DUP5 DUP2 MSTORE PUSH1 0x20 ADD DUP4 ISZERO ISZERO DUP2 MSTORE POP PUSH1 0x0 DUP1 DUP7 PUSH20 0xFFFFFFFFFFFFFFFFFFFFFFFFFFFFFFFFFFFFFFFF AND PUSH20 0xFFFFFFFFFFFFFFFFFFFFFFFFFFFFFFFFFFFFFFFF AND DUP2 MSTORE PUSH1 0x20 ADD SWAP1 DUP2 MSTORE PUSH1 0x20 ADD PUSH1 0x0 KECCAK256 PUSH1 0x0 DUP3 ADD MLOAD DUP2 PUSH1 0x0 ADD SWAP1 DUP1 MLOAD SWAP1 PUSH1 0x20 ADD SWAP1 PUSH2 0x3AA SWAP3 SWAP2 SWAP1 PUSH2 0x470 JUMP JUMPDEST POP PUSH1 0x20 DUP3 ADD MLOAD DUP2 PUSH1 0x1 ADD SSTORE PUSH1 0x40 DUP3 ADD MLOAD DUP2 PUSH1 0x2 ADD PUSH1 0x0 PUSH2 0x100 EXP DUP2 SLOAD DUP2 PUSH20 0xFFFFFFFFFFFFFFFFFFFFFFFFFFFFFFFFFFFFFFFF MUL NOT AND SWAP1 DUP4 PUSH20 0xFFFFFFFFFFFFFFFFFFFFFFFFFFFFFFFFFFFFFFFF AND MUL OR SWAP1 SSTORE POP PUSH1 0x60 DUP3 ADD MLOAD DUP2 PUSH1 0x3 ADD SSTORE PUSH1 0x80 DUP3 ADD MLOAD DUP2 PUSH1 0x4 ADD PUSH1 0x0 PUSH2 0x100 EXP DUP2 SLOAD DUP2 PUSH1 0xFF MUL NOT AND SWAP1 DUP4 ISZERO ISZERO MUL OR SWAP1 SSTORE POP SWAP1 POP POP POP POP POP POP POP JUMP JUMPDEST POP DUP1 SLOAD PUSH2 0x43C SWAP1 PUSH2 0x7EB JUMP JUMPDEST PUSH1 0x0 DUP3 SSTORE DUP1 PUSH1 0x1F LT PUSH2 0x44E JUMPI POP PUSH2 0x46D JUMP JUMPDEST PUSH1 0x1F ADD PUSH1 0x20 SWAP1 DIV SWAP1 PUSH1 0x0 MSTORE PUSH1 0x20 PUSH1 0x0 KECCAK256 SWAP1 DUP2 ADD SWAP1 PUSH2 0x46C SWAP2 SWAP1 PUSH2 0x4F6 JUMP JUMPDEST JUMPDEST POP JUMP JUMPDEST DUP3 DUP1 SLOAD PUSH2 0x47C SWAP1 PUSH2 0x7EB JUMP JUMPDEST SWAP1 PUSH1 0x0 MSTORE PUSH1 0x20 PUSH1 0x0 KECCAK256 SWAP1 PUSH1 0x1F ADD PUSH1 0x20 SWAP1 DIV DUP2 ADD SWAP3 DUP3 PUSH2 0x49E JUMPI PUSH1 0x0 DUP6 SSTORE PUSH2 0x4E5 JUMP JUMPDEST DUP3 PUSH1 0x1F LT PUSH2 0x4B7 JUMPI DUP1 MLOAD PUSH1 0xFF NOT AND DUP4 DUP1 ADD OR DUP6 SSTORE PUSH2 0x4E5 JUMP JUMPDEST DUP3 DUP1 ADD PUSH1 0x1 ADD DUP6 SSTORE DUP3 ISZERO PUSH2 0x4E5 JUMPI SWAP2 DUP3 ADD JUMPDEST DUP3 DUP2 GT ISZERO PUSH2 0x4E4 JUMPI DUP3 MLOAD DUP3 SSTORE SWAP2 PUSH1 0x20 ADD SWAP2 SWAP1 PUSH1 0x1 ADD SWAP1 PUSH2 0x4C9 JUMP JUMPDEST JUMPDEST POP SWAP1 POP PUSH2 0x4F2 SWAP2 SWAP1 PUSH2 0x4F6 JUMP JUMPDEST POP SWAP1 JUMP JUMPDEST JUMPDEST DUP1 DUP3 GT ISZERO PUSH2 0x50F JUMPI PUSH1 0x0 DUP2 PUSH1 0x0 SWAP1 SSTORE POP PUSH1 0x1 ADD PUSH2 0x4F7 JUMP JUMPDEST POP SWAP1 JUMP JUMPDEST PUSH1 0x0 PUSH2 0x526 PUSH2 0x521 DUP5 PUSH2 0x763 JUMP JUMPDEST PUSH2 0x73E JUMP JUMPDEST SWAP1 POP DUP3 DUP2 MSTORE PUSH1 0x20 DUP2 ADD DUP5 DUP5 DUP5 ADD GT ISZERO PUSH2 0x53E JUMPI PUSH1 0x0 DUP1 REVERT JUMPDEST PUSH2 0x549 DUP5 DUP3 DUP6 PUSH2 0x7DC JUMP JUMPDEST POP SWAP4 SWAP3 POP POP POP JUMP JUMPDEST PUSH1 0x0 DUP2 CALLDATALOAD SWAP1 POP PUSH2 0x560 DUP2 PUSH2 0x8BD JUMP JUMPDEST SWAP3 SWAP2 POP POP JUMP JUMPDEST PUSH1 0x0 DUP2 CALLDATALOAD SWAP1 POP PUSH2 0x575 DUP2 PUSH2 0x8D4 JUMP JUMPDEST SWAP3 SWAP2 POP POP JUMP JUMPDEST PUSH1 0x0 DUP3 PUSH1 0x1F DUP4 ADD SLT PUSH2 0x58C JUMPI PUSH1 0x0 DUP1 REVERT JUMPDEST DUP2 CALLDATALOAD PUSH2 0x59C DUP5 DUP3 PUSH1 0x20 DUP7 ADD PUSH2 0x513 JUMP JUMPDEST SWAP2 POP POP SWAP3 SWAP2 POP POP JUMP JUMPDEST PUSH1 0x0 DUP2 CALLDATALOAD SWAP1 POP PUSH2 0x5B4 DUP2 PUSH2 0x8EB JUMP JUMPDEST SWAP3 SWAP2 POP POP JUMP JUMPDEST PUSH1 0x0 PUSH1 0x20 DUP3 DUP5 SUB SLT ISZERO PUSH2 0x5CC JUMPI PUSH1 0x0 DUP1 REVERT JUMPDEST PUSH1 0x0 PUSH2 0x5DA DUP5 DUP3 DUP6 ADD PUSH2 0x551 JUMP JUMPDEST SWAP2 POP POP SWAP3 SWAP2 POP POP JUMP JUMPDEST PUSH1 0x0 DUP1 PUSH1 0x40 DUP4 DUP6 SUB SLT ISZERO PUSH2 0x5F6 JUMPI PUSH1 0x0 DUP1 REVERT JUMPDEST PUSH1 0x0 PUSH2 0x604 DUP6 DUP3 DUP7 ADD PUSH2 0x551 JUMP JUMPDEST SWAP3 POP POP PUSH1 0x20 PUSH2 0x615 DUP6 DUP3 DUP7 ADD PUSH2 0x566 JUMP JUMPDEST SWAP2 POP POP SWAP3 POP SWAP3 SWAP1 POP JUMP JUMPDEST PUSH1 0x0 DUP1 PUSH1 0x40 DUP4 DUP6 SUB SLT ISZERO PUSH2 0x632 JUMPI PUSH1 0x0 DUP1 REVERT JUMPDEST PUSH1 0x0 PUSH2 0x640 DUP6 DUP3 DUP7 ADD PUSH2 0x551 JUMP JUMPDEST SWAP3 POP POP PUSH1 0x20 DUP4 ADD CALLDATALOAD PUSH8 0xFFFFFFFFFFFFFFFF DUP2 GT ISZERO PUSH2 0x65D JUMPI PUSH1 0x0 DUP1 REVERT JUMPDEST PUSH2 0x669 DUP6 DUP3 DUP7 ADD PUSH2 0x57B JUMP JUMPDEST SWAP2 POP POP SWAP3 POP SWAP3 SWAP1 POP JUMP JUMPDEST PUSH1 0x0 DUP1 PUSH1 0x40 DUP4 DUP6 SUB SLT ISZERO PUSH2 0x686 JUMPI PUSH1 0x0 DUP1 REVERT JUMPDEST PUSH1 0x0 PUSH2 0x694 DUP6 DUP3 DUP7 ADD PUSH2 0x551 JUMP JUMPDEST SWAP3 POP POP PUSH1 0x20 PUSH2 0x6A5 DUP6 DUP3 DUP7 ADD PUSH2 0x5A5 JUMP JUMPDEST SWAP2 POP POP SWAP3 POP SWAP3 SWAP1 POP JUMP JUMPDEST PUSH1 0x0 DUP1 PUSH1 0x0 DUP1 PUSH1 0x0 PUSH1 0xA0 DUP7 DUP9 SUB SLT ISZERO PUSH2 0x6C7 JUMPI PUSH1 0x0 DUP1 REVERT JUMPDEST PUSH1 0x0 PUSH2 0x6D5 DUP9 DUP3 DUP10 ADD PUSH2 0x5A5 JUMP JUMPDEST SWAP6 POP POP PUSH1 0x20 PUSH2 0x6E6 DUP9 DUP3 DUP10 ADD PUSH2 0x551 JUMP JUMPDEST SWAP5 POP POP PUSH1 0x40 PUSH2 0x6F7 DUP9 DUP3 DUP10 ADD PUSH2 0x5A5 JUMP JUMPDEST SWAP4 POP POP PUSH1 0x60 PUSH2 0x708 DUP9 DUP3 DUP10 ADD PUSH2 0x566 JUMP JUMPDEST SWAP3 POP POP PUSH1 0x80 DUP7 ADD CALLDATALOAD PUSH8 0xFFFFFFFFFFFFFFFF DUP2 GT ISZERO PUSH2 0x725 JUMPI PUSH1 0x0 DUP1 REVERT JUMPDEST PUSH2 0x731 DUP9 DUP3 DUP10 ADD PUSH2 0x57B JUMP JUMPDEST SWAP2 POP POP SWAP3 SWAP6 POP SWAP3 SWAP6 SWAP1 SWAP4 POP JUMP JUMPDEST PUSH1 0x0 PUSH2 0x748 PUSH2 0x759 JUMP JUMPDEST SWAP1 POP PUSH2 0x754 DUP3 DUP3 PUSH2 0x81D JUMP JUMPDEST SWAP2 SWAP1 POP JUMP JUMPDEST PUSH1 0x0 PUSH1 0x40 MLOAD SWAP1 POP SWAP1 JUMP JUMPDEST PUSH1 0x0 PUSH8 0xFFFFFFFFFFFFFFFF DUP3 GT ISZERO PUSH2 0x77E JUMPI PUSH2 0x77D PUSH2 0x87D JUMP JUMPDEST JUMPDEST PUSH2 0x787 DUP3 PUSH2 0x8AC JUMP JUMPDEST SWAP1 POP PUSH1 0x20 DUP2 ADD SWAP1 POP SWAP2 SWAP1 POP JUMP JUMPDEST PUSH1 0x0 PUSH2 0x79F DUP3 PUSH2 0x7B2 JUMP JUMPDEST SWAP1 POP SWAP2 SWAP1 POP JUMP JUMPDEST PUSH1 0x0 DUP2 ISZERO ISZERO SWAP1 POP SWAP2 SWAP1 POP JUMP JUMPDEST PUSH1 0x0 PUSH20 0xFFFFFFFFFFFFFFFFFFFFFFFFFFFFFFFFFFFFFFFF DUP3 AND SWAP1 POP SWAP2 SWAP1 POP JUMP JUMPDEST PUSH1 0x0 DUP2 SWAP1 POP SWAP2 SWAP1 POP JUMP JUMPDEST DUP3 DUP2 DUP4 CALLDATACOPY PUSH1 0x0 DUP4 DUP4 ADD MSTORE POP POP POP JUMP JUMPDEST PUSH1 0x0 PUSH1 0x2 DUP3 DIV SWAP1 POP PUSH1 0x1 DUP3 AND DUP1 PUSH2 0x803 JUMPI PUSH1 0x7F DUP3 AND SWAP2 POP JUMPDEST PUSH1 0x20 DUP3 LT DUP2 EQ ISZERO PUSH2 0x817 JUMPI PUSH2 0x816 PUSH2 0x84E JUMP JUMPDEST JUMPDEST POP SWAP2 SWAP1 POP JUMP JUMPDEST PUSH2 0x826 DUP3 PUSH2 0x8AC JUMP JUMPDEST DUP2 ADD DUP2 DUP2 LT PUSH8 0xFFFFFFFFFFFFFFFF DUP3 GT OR ISZERO PUSH2 0x845 JUMPI PUSH2 0x844 PUSH2 0x87D JUMP JUMPDEST JUMPDEST DUP1 PUSH1 0x40 MSTORE POP POP POP JUMP JUMPDEST PUSH32 0x4E487B7100000000000000000000000000000000000000000000000000000000 PUSH1 0x0 MSTORE PUSH1 0x22 PUSH1 0x4 MSTORE PUSH1 0x24 PUSH1 0x0 REVERT JUMPDEST PUSH32 0x4E487B7100000000000000000000000000000000000000000000000000000000 PUSH1 0x0 MSTORE PUSH1 0x41 PUSH1 0x4 MSTORE PUSH1 0x24 PUSH1 0x0 REVERT JUMPDEST PUSH1 0x0 PUSH1 0x1F NOT PUSH1 0x1F DUP4 ADD AND SWAP1 POP SWAP2 SWAP1 POP JUMP JUMPDEST PUSH2 0x8C6 DUP2 PUSH2 0x794 JUMP JUMPDEST DUP2 EQ PUSH2 0x8D1 JUMPI PUSH1 0x0 DUP1 REVERT JUMPDEST POP JUMP JUMPDEST PUSH2 0x8DD DUP2 PUSH2 0x7A6 JUMP JUMPDEST DUP2 EQ PUSH2 0x8E8 JUMPI PUSH1 0x0 DUP1 REVERT JUMPDEST POP JUMP JUMPDEST PUSH2 0x8F4 DUP2 PUSH2 0x7D2 JUMP JUMPDEST DUP2 EQ PUSH2 0x8FF JUMPI PUSH1 0x0 DUP1 REVERT JUMPDEST POP JUMP INVALID LOG2 PUSH5 0x6970667358 0x22 SLT KECCAK256 0xB7 0xD1 0x2A 0xF ISZERO JUMPDEST LOG4 COINBASE 0xB5 PUSH27 0x4298B71DB9467004785133DC9DBDC9927C76C3B6837664736F6C63 NUMBER STOP ADDMOD DIV STOP CALLER "
				},
				"gasEstimates": {
					"creation": {
						"codeDepositCost": "472000",
						"executionCost": "505",
						"totalCost": "472505"
					},
					"external": {
						"addUser(uint256,address,uint256,bool,string)": "infinite",
						"removeUser(address)": "infinite",
						"setAge(address,uint256)": "20817",
						"setGrade(address,uint256)": "20729",
						"setIsAlive(address,bool)": "21632",
						"setUsername(address,string)": "infinite"
					}
				},
				"methodIdentifiers": {
					"addUser(uint256,address,uint256,bool,string)": "f0b50e80",
					"removeUser(address)": "98575188",
					"setAge(address,uint256)": "eab94b20",
					"setGrade(address,uint256)": "47c7faca",
					"setIsAlive(address,bool)": "c1f3d39d",
					"setUsername(address,string)": "e2045452"
				}
			},
			"storageLayout": {
				"storage": [
					{
						"astId": 17,
						"contract": "exercices/ex09 - Structures/sources/Struct.sol:Struct",
						"label": "users",
						"offset": 0,
						"slot": "0",
						"type": "t_mapping(t_address,t_struct(User)12_storage)"
					}
				],
				"types": {
					"t_address": {
						"encoding": "inplace",
						"label": "address",
						"numberOfBytes": "20"
					},
					"t_bool": {
						"encoding": "inplace",
						"label": "bool",
						"numberOfBytes": "1"
					},
					"t_mapping(t_address,t_struct(User)12_storage)": {
						"encoding": "mapping",
						"key": "t_address",
						"label": "mapping(address => struct Struct.User)",
						"numberOfBytes": "32",
						"value": "t_struct(User)12_storage"
					},
					"t_string_storage": {
						"encoding": "bytes",
						"label": "string",
						"numberOfBytes": "32"
					},
					"t_struct(User)12_storage": {
						"encoding": "inplace",
						"label": "struct Struct.User",
						"members": [
							{
								"astId": 3,
								"contract": "exercices/ex09 - Structures/sources/Struct.sol:Struct",
								"label": "username",
								"offset": 0,
								"slot": "0",
								"type": "t_string_storage"
							},
							{
								"astId": 5,
								"contract": "exercices/ex09 - Structures/sources/Struct.sol:Struct",
								"label": "age",
								"offset": 0,
								"slot": "1",
								"type": "t_uint256"
							},
							{
								"astId": 7,
								"contract": "exercices/ex09 - Structures/sources/Struct.sol:Struct",
								"label": "account",
								"offset": 0,
								"slot": "2",
								"type": "t_address"
							},
							{
								"astId": 9,
								"contract": "exercices/ex09 - Structures/sources/Struct.sol:Struct",
								"label": "grade",
								"offset": 0,
								"slot": "3",
								"type": "t_uint256"
							},
							{
								"astId": 11,
								"contract": "exercices/ex09 - Structures/sources/Struct.sol:Struct",
								"label": "isAlive",
								"offset": 0,
								"slot": "4",
								"type": "t_bool"
							}
						],
						"numberOfBytes": "160"
					},
					"t_uint256": {
						"encoding": "inplace",
						"label": "uint256",
						"numberOfBytes": "32"
					}
				}
			},
			"userdoc": {
				"kind": "user",
				"methods": {},
				"version": 1
			}
		}
	}
}